:020000040000FA
:1000000070F9FF1FAF010000BB010000BD0100003F
:1000100000000000000000000000000000000000E0
:10002000000000000000000000000000BF01000010
:100030000000000000000000C1010000291F0000B6
:10004000C5010000C5010000C5010000C501000098
:10005000C5010000C5010000C5010000C501000088
:10006000C5010000C5010000C5010000C501000078
:10007000C5010000C5010000152000009D1800000A
:10008000C5010000C5010000C5010000C501000058
:10009000C5010000C5010000C11E0000F51E0000E2
:1000A000C5010000C5010000C5010000C501000038
:1000B000C5010000C5010000C5010000C501000028
:1000C00000F002F800F046F80CA030C808382418F8
:1000D0002D18A246671EAB4654465D46AC4201D180
:1000E00000F038F87E460F3E0FCCB646012633426C
:1000F00000D0FB1AA246AB46334318471C830000CE
:100100003C830000103A02D378C878C1FAD852076D
:1001100001D330C830C101D504680C6070470000BD
:100120000023002400250026103A01D378C1FBD813
:10013000520700D330C100D50B60704710B5642959
:1001400002D100F09BF810BD002010BD1FB51FBDEF
:1001500010B510BD01F04CFB1146FFF7F7FF05F09D
:100160004DFD01F064FB03B4FFF7F2FF03BC02F0A6
:1001700094F8000070B505460C46164602E00FCC18
:100180000FC5103E102EFAD2082E02D303CC03C5A1
:10019000083E042E07D301CC01C5361F03E02178A9
:1001A0002970641C6D1C761EF9D270BD7047094819
:1001B00080470948804709480047FEE7FEE7FEE719
:1001C000FEE7FEE7FEE7000005480649044A064B45
:1001D00070470000991F0000AD010000C100000041
:1001E00070F8FF1F70F9FF1F70F8FF1F704770B5A0
:1001F00000252C46AD1A9C4112DA00252C462D1AFA
:100200008C4102DA01F0C5F870BD002440428C41F7
:10021000214601F0BEF8002440428C41214619E0FD
:1002200000252C462D1A8C410ADA002452429C41AA
:10023000234601F0AEF8002440428C41214670BDB7
:10024000002452429C414042234600248C412146D6
:1002500001F09FF8002452429C41234670BD0000EB
:100260000FB4054910B503AA029801F08FF910BC2C
:1002700008BC04B01847000084F0FF1FF7B5002544
:1002800075291068009914A611D0C046C0460028F0
:1002900002DA404211A608E0009909688A0701D5F0
:1002A0000FA602E0490704D50EA6012501E0C046CD
:1002B000C046009F0024243704E001F07BF9303170
:1002C0003955641C0028F8D12B4632462146009847
:1002D00001F0EBF8FEBD0000000000002D00000062
:1002E0002B00000020000000034610B50B439B07C5
:1002F0000FD1042A0DD308C810C9121FA342F8D089
:1003000018BA21BA884201D9012010BD0020C0438B
:1003100010BD002A03D0D30703D0521C07E00020F1
:1003200010BD03780C78401C491C1B1B07D10378B7
:100330000C78401C491C1B1B01D1921EF1D11846A0
:1003400010BDD2B210B513029A1813049A1800F017
:100350000EF810BD01E004C0091F0429FBD28B0771
:1003600001D50280801CC90700D0027070470029A7
:100370000BD0C30702D00270401C491E022904D3CF
:10038000830702D50280801C891EE3E70022EEE786
:100390000022DFE770477047704700000121C90560
:1003A0000123411842001B06D3185B0E0AD0C1106E
:1003B0000722D206891840075242D14201D5520085
:1003C00089187047090208D50146002A03D0C10FD9
:1003D000C9070020704710467047420202D0002033
:1003E00002497047072109050143F4E70000F87F3F
:1003F00070470000004870470CF8FF1F70477047B7
:10040000FFFFFFFFFFFFFFFFFFFFFFFFFFFFFEFEFE
:10041000F3B50446002081B020622046E168884799
:10042000002872D0252802D06268A168ABE0594F3D
:1004300000267F442046E16888472028054608DBDF
:10044000312D06D2781920380078002801D00643D3
:10045000F0E7B00701D5042086430020E06107469D
:10046000A0612A2D0AD0284601F010FF002827D0CD
:10047000B8000019303D0090856119E00298BA007B
:10048000121902C8916102902046E1688847012F45
:10049000054617D1E06900281FDA202086431CE0BA
:1004A00000980A21806948430099401930388861D2
:1004B0002046E1688847054601F0E8FE0028EFD1B4
:1004C000012F0AD02E2D08D12046E1688847054625
:1004D000202006437F1C022FC3DBA069002803DA1B
:1004E0004042A06101200643F00701D0102086435E
:1004F0006C2D0BD0682D09D04C2D3CD06A2D38D0F6
:10050000742D38D07A2D36D016E040E0E1682F46C1
:1005100020468847B842054609D16C2F29D00120D2
:100520008002E168064320468847054604E06C2FB8
:100530001DD0FF2001300643002D28D02846413829
:10054000192803D80120C002064320352046266022
:100550002946029A1646FFF7F1FD002810D001281F
:100560000BD0F61DF008C0000830029055E740207F
:10057000E1E78020D5E70020D3E7361D02964CE75F
:1005800062682846A1689047206A401C44E7206AB8
:10059000FEBD0000D07D0000002203098B422CD359
:1005A000030A8B4211D300239C464EE003460B43C3
:1005B0003CD4002243088B4231D303098B421CD325
:1005C000030A8B4201D394463FE0C3098B4201D317
:1005D000CB01C01A524183098B4201D38B01C01A4F
:1005E000524143098B4201D34B01C01A52410309C6
:1005F0008B4201D30B01C01A5241C3088B4201D375
:10060000CB00C01A524183088B4201D38B00C01A21
:10061000524143088B4201D34B00C01A5241411A48
:1006200000D201465241104670475DE0CA0F00D02B
:100630004942031000D34042534000229C46030924
:100640008B422DD3030A8B4212D3FC22890112BAAA
:10065000030A8B420CD3890192118B4208D3890182
:1006600092118B4204D389013AD0921100E089099A
:10067000C3098B4201D3CB01C01A524183098B427B
:1006800001D38B01C01A524143098B4201D34B0164
:10069000C01A524103098B4201D30B01C01A5241C7
:1006A000C3088B4201D3CB00C01A524183088B424E
:1006B00001D38B00C01A5241D9D243088B4201D3D7
:1006C0004B00C01A5241411A00D2014663465241C2
:1006D0005B10104601D34042002B00D549427047C1
:1006E00063465B1000D3404201B50020C046C046BF
:1006F00002BD00000246C80FC00781434B0030B561
:100700004B405B009B0D20D01923DB06C918012349
:100710001B05994220DB0324A40704251346AB40A4
:100720000BD3002B04D1EB0613409B00E34204D40F
:1007300001246407002312195941FF231B05994224
:100740000BD2C9000143500F09E0CB0204D501438D
:100750000803024305D0054830BDFF21C905084301
:1007600030BD084607210905884330BD0000C07F21
:10077000F0B50C46871A9C410D46861A9D4103D25E
:10078000C01BA141D21963410D0D1F0DC94EEC1BB9
:10079000AE435CD07F057F0D0026002F51D02D0584
:1007A000AC46A943DD020123ED0A1B051D432023AE
:1007B0001B1B24D41746E740381871412F46E740E9
:1007C000CC199D402818314661410C0D27D1614458
:1007D0009A4013D50023401C594152000ED14008C5
:1007E000400001224B005205D34207D305204007A9
:1007F000C14201D5B04900E0B0493046F0BD6B00C0
:10080000002A00D001229A181F23203C1B1B01D56F
:10081000002302E0E540281871410C0DD7D00124D7
:1008200024050919C407CD0740084908E40F2843E7
:100830006144002CD5D00024401C61419A40D0D1A5
:10084000CDE76A05520DD9D1C90FC907D5E79C4D2F
:100850004E00002801D0012400E0002434195F007C
:10086000002A01D0012600E00026BE19954FAC42B7
:100870000CD8AE420AD8B44206D001256D05EC4230
:10088000BCD010461946F0BD9942FCD00020394634
:10089000F0BDF0B51FB40C460F46811A9F412546A6
:1008A000861A9D4106D20125ED076F40401ABC41D2
:1008B00052187B41210D1E0D8D1BAC467D4D8D4385
:1008C0007ED075056D0D7CD00D05AE46AC431B0387
:1008D0001B0B794D52429D41202366469B1B14D32E
:1008E0001746F740381800260090744160462F469E
:1008F0000741E41900989D402818664116D47146B6
:1009000071189A4025D5012320E093182A466A41A0
:100910005200002B00D0521C1E23203E9B1B002B9C
:1009200061DD3541EE1728186641E8D5001876419B
:100930005B1C9A4000D3401C4B05F3181524E34080
:1009400010D3002B52D071467118D30FC01802D3A8
:10095000491C05B0F0BD0123DB079A42F9D14008DC
:100960004000F6E701225205B21801D1002853D009
:100970000123CC0ADB029943891E002A08D1020C0C
:1009800003D0020C0004103902E002460020203996
:100990000023550B05D112020823550B01D152013A
:1009A0000D23550C01D112011B1DD50C01D1920054
:1009B0009B1C150D01D152005B1C2025EE1A01E095
:1009C0002CE022E00546F54015439840CA1AE1079D
:1009D00069181305C918002ABBDA03204007081854
:1009E000C10FC9070FE071466118B2E7F10740086F
:1009F0000843711071444A000CD001235B059A42F0
:100A0000A7D2C90FC9070020A3E74905490D26D180
:100A1000002001E00028F4D100219AE7284D66006B
:100A2000002801D0012100E0002171185F00002A98
:100A300001D0012600E00026BE19224FA94210D89D
:100A4000AE420ED8B14208D001256D05E94206D06C
:100A50001946A802414010467BE79C4201D021463E
:100A600077E70020394674E710B50C465C4005D5A1
:100A70000124E4076340FFF70CFF10BDFFF778FE89
:100A800010BD30B40C465C4004D50124E40763403B
:100A900030BC6DE630BCFCE670B50124E407614073
:100AA0000D465D4002D4FFF763FE70BD6340FFF763
:100AB000F0FE70BDFF0700000000F0FF0000F07FB7
:100AC0000000E0FF0000F87FF0B5F94D0C091E09A9
:100AD0002C402E402F468BB0A7437DD0B543FCD091
:100AE000002E7AD0002CFCD00D465D40ED0F254342
:100AF000AC1BFF25AD0464190894C502440DC9025E
:100B00002143500DDC0204430120C007014304438C
:100B1000D2020191200C110C00958C460104234651
:100B20008B430A9161460904E24D8A430991010A07
:100B30007D4449198039097805464D4301266D18D1
:100B4000F605751B6943C90C640B891C4C4364187A
:100B5000B5012C1B250C2E04B4434C434D43210CF2
:100B6000691889090591009DE90701D00121C9078C
:100B700004912C4601996708CD072F434C08059D29
:100B8000E10B4D432D0C29466646754302950D46F3
:100B900045432E46029D7D1BB44100950D465D43A5
:100BA00001942C0C2F040D465543AE462D0C3D43AD
:100BB000029503947546049C2D04641B049406D28C
:100BC000029C039D641C002675410395029401ACB0
:100BD00070CC009F7D1B01E03EE162E1B44109045D
:100BE0000095079101940599A4086143090C0C46EE
:100BF0004443650BE7040C4666467443A646640B03
:100C00003C43039502947446049DE4042C1B049415
:100C100006D2029C039D641C002675410395029434
:100C200001AC70CC009F7D1BB44101940C465C4329
:100C30000095650FE7000C465443A646640F3C43FD
:100C4000039502947446049DE4002C1B049406D280
:100C5000029C039D641C002675410395029401AC1F
:100C600070CC009F7D1BB441AE09AF06049DC90046
:100C7000AD092F43049DA406AD060495079D34439A
:100C800069180791059DE10B4D432D0C29466646D9
:100C9000754302950D4645432E46029D7D1BB4418A
:100CA00000950D465D4301942C0C2F040D465543D1
:100CB000AE462D0C3D43029503947546049C2D04CD
:100CC000641B049406D2029C039D641C002675419B
:100CD0000395029401AC70CC009F7D1BB44101943C
:100CE0008C050694079C890A611800950791019C60
:100CF0000599A4086143090C0D464543680BEF04B0
:100D00000D46644665436C0B3C43049FED047D1B1C
:100D1000AC4602D20025641C6841009E019D371B31
:100D200085410846584301950C46460FC50054437B
:100D3000600F28436546E4002C1B02D20025401CAE
:100D40006E41019D3F1AB5412846BD0980062843E2
:100D50008446A009BF064E020699A40676180743EA
:100D6000079D002068410A99079019430020099BBC
:100D700000906046FF1913434041E20F64003A437C
:100D8000A4460446D71A8C41A04203D90120009002
:100D900020463A46C70F941840416246D20F22437C
:100DA000644664000494009CBE466400D71AA446BE
:100DB000044602978C417746002F01D1A04204D906
:100DC0006046401C8446029A2046C40FA6469418EA
:100DD0004041049A0546D20F224364466400D31A68
:100DE0008D417146002901D1A84202D928461A46F0
:100DF000641C10430122002800D016436102002029
:100E0000079B891904465C410223002C02DB491828
:100E100013466441089DCE0A2D145D194B056705E4
:100E2000E10A2C050D1908993E43C9076940002BBA
:100E300008D0934006D30022761C5141002B01D1EB
:100E4000760876001C4A002D43DB154241D0AA43A8
:100E50003FD030460BB0F0BD06180D464D41174C43
:100E60007642AC411AD395181C465C41134A6D4238
:100E7000A24113D3012252054C00D4420AD15C0096
:100E8000D4420BD04B4002D592021143E2E7490015
:100E90004908DFE75940C90FC90718E00020084991
:100EA000D8E7054801420DD10342F7D0F2E7000030
:100EB0000000FF07E37600000000F07F0000E0FF85
:100EC0000000F87F114859400143C0124140002002
:100ED000C0E70123089A9B069A4205DC03225207C9
:100EE0008918C90FC907B5E7052252078918074AAB
:100EF0001143D2125140ADE770B515461C4602466B
:100F00000B4628462146FFF7DFFD70BDFFFFFF7F40
:100F1000F0B58B4C0F09254689B0BD437BD01D0928
:100F20002646AE43FAD00E465E402740F60F3E43BB
:100F3000254071D024012142FBD0FF24AD19A40427
:100F40002D1B039501252D05DB02DB0AC9022B436E
:100F5000C90A29431E010901040F130F050121438A
:100F60001701880B820391432D098C46A90B1E4360
:100F70008A039543B30B9A0396433F09BA0B940334
:100F8000A74302962E467E430497B6464E19D719BC
:100F90000C460196544305977E43371B7646BF1B8C
:100FA0003601B646BE0B361900967646BC04371994
:100FB000009C01D3641C00946400002F01D0012622
:100FC0003443029E049F754366467E430496760032
:100FD00034196E0034190094029C019E1C1966435A
:100FE000751BAE46069465464519059C05956C43F0
:100FF000594375460891691A0191049E014651436F
:10100000A41B0491611A009C0791E10605D06109B7
:101010000122114302E072E06EE06109089D0027A1
:101020002C0A2D066918049D7C412A0A2D06691890
:10103000019D6241AC0DAD026D185441079A910DAE
:10104000920255196141029A644658435443069BE3
:10105000059A5A43121A131B9A0E9B015B187A4188
:10106000010B0005C3185141220A200644195A41B8
:101070009A4200D2491C01204002814203D3152329
:101080000226F64302E014230326F6432020C51A65
:10109000A9401746AF40DA400A4320460399D8409A
:1010A0000914731819055118039A3843D20751408F
:1010B000AC4009D00122944006D30022401C51418B
:1010C000002C01D1400840001E4A934212D3012255
:1010D00003989206904207DB0520400709181A483A
:1010E0000143C012414004E0032040070818C10F2B
:1010F000C907002009B0F0BD0020F107FAE7051884
:101100000C464C4111486D42A04115D394181A4623
:101110005A410E48644290410ED301204A004005D6
:10112000824209D35A00824206D35940C90F084A65
:10113000C90700201143DDE700200649DAE7000077
:101140000000FF07FE070000FFFFFF7F0000E0FF39
:101150000000F07F0000F87FF0B5FF252D04C609E0
:10116000C209FF2704462E400137CB093E434840C1
:101170002A402B400746002A6BD0002B69D0AA4298
:1011800067D0AB4265D0002800DA32460125ED0574
:1011900029432C4309022002090AD21A4B0C7F244E
:1011A000E31A434C000A7C44E35C7D2424041219B6
:1011B00014145B00A218884201D3521C00E04000C6
:1011C00049420C465C4324115C43DB016415E3187F
:1011D000040A5C43C502200D0C4644436419250AE9
:1011E0005D432303EC0C0D46654300030019EB1827
:1011F0004C42A34201D35B18401CD4052018002B9D
:1012000007D05B00C91804D3401C002901D1400855
:1012100040003F2189048A4209D3002A08DC1106D4
:10122000090F04D0032149074018C00FC007F0BDC3
:1012300001224100120689187F2252069142F6D2FD
:1012400005214907C84201D59010F0BDFF20C00517
:10125000F0BD002F00DA32461648AA4207D2AB4250
:1012600005D21902090E17D0F80FC007F0BDFF25EF
:1012700063002D06AB42F9D84900A942F6D8AB422B
:1012800001D1A942F2D0A94201D1002101E06100BF
:101290004908D0050843F0BD1102090EFBD0FF201C
:1012A0000243D005F0BD0A460146104654E700004F
:1012B000ED7000000000C07F10B501469E240002C2
:1012C000CA15A307002A02D01843002A04DBA21A79
:1012D000002A0CDDD04010BD1206120E01D14000D4
:1012E0004008A21A03D4D04040420028F3DDFF2278
:1012F00048001206904201D9002010BDC817C04313
:10130000584010BD0102C21504D00123DB07194368
:10131000002A0ADB9E239A1A02D40846D04070475E
:10132000FF2241001206914201D900207047C017E8
:10133000C04370471F22030C02D10F2200041CD0AF
:10134000030E01D10002083A030F01D10001121F60
:10135000830F01D18000921E002801DB4000521E45
:10136000D2055118021251181922904004D3491C79
:10137000002801D14908490008467047C10FC90734
:1013800000D04042012292071143D3E7012189078F
:10139000D0E7FEB5054610460C46184373D0AE465E
:1013A0008C460020AD1A01469C4167D36646002753
:1013B00001243D46B61A9D4102D313463A462124E4
:1013C000654676462F04360C3E432D0CB61A9D41D9
:1013D00004D3150C1B042B431204103465467646C7
:1013E0002F06360A3E432D0AB61A9D4104D3150E28
:1013F0001B022B4312020834654676462F07360936
:101400003E432D09B61A9D4104D3150F1B012B43F2
:101410001201241D65467646AF07B6083E43AD0867
:10142000B61A9D4104D3950F9B002B439200A41C38
:1014300065467646EF0776083E436D08B61A9D412D
:101440001AD392185B41641C16E000187646654674
:101450004941B71A9D410191009009D36046B11AE4
:1014600098418E468446009801990025401C6941A8
:10147000DD0752082A435B08641EE6D572466346C0
:1014800003B0F0BDFFE700200146C046C0462A4633
:101490002346F5E710B5FEF7ADFF006810BD10B5A7
:1014A0000446FEF7A7FF046010BDFFB504460D46D5
:1014B00081B0243000902168880604D51022E069AC
:1014C0009143216000E00120A84201DD471B00E0BC
:1014D00000270498A1697A191018081AA0612078C9
:1014E000C00602D42046C046C046002608E0039845
:1014F0006268A168805D9047206A401C761C20626B
:1015000004988642F3DB2078C0060AD52046C04600
:10151000C04606E06268A16830209047206A401CFF
:10152000206238467F1E0028F4DC07E000986268DD
:10153000A168405D9047206A401C206228466D1ECD
:101540000028F3DC2046C046C0462078000602D5BD
:10155000022005B0F0BD0120FBE7000001694A1C34
:1015600002610878704700B58FB0029100210591A3
:101570000549019379440391114604906846FEF7AA
:1015800047FF0FB000BD0000E5FFFFFF084B70B53F
:101590000D467B44FFF7E7FF0446284600F080F83D
:1015A000002802D00020C04370BD204670BD00005E
:1015B0003339000001468008081A02091018020A8F
:1015C0001018020C1018C008820012185200891A54
:1015D00001E0401C0A390A29FBD2704770B5054664
:1015E0004800440D124B0020002C0AD0634008D064
:1015F0009A4206DA6642B24203DD120540195141B1
:1016000070BD002C08D0002B09D0C90FC907002AD3
:10161000F6DB084A114370BDC90FC90770BD2846E3
:101620000A03104302D00020034970BD284670BD54
:10163000FF0700000000F07F0000F87F10B5FF23D7
:101640001B0644009C421DD84C009C421AD80346FD
:10165000124A0B4307D4401A02D3EFF3008010BDA7
:10166000EFF3008010BD081A06D2EFF300800121CD
:101670009043C907084302E0EFF30080904380F3F2
:10168000008810BD0D231B041A4204D0114600200F
:1016900000F00AF810BD00F09FF810BD00000090A7
:1016A000C068802108407047C80212D54803400F27
:1016B000002804D0C803C043012188407047EFF3DD
:1016C00000800001000903210907084380F3008816
:1016D0007047002070470000F0B53D4B02460C46B5
:1016E0001C400020002C63D03A4D8B4366D000296B
:1016F0006BDB0B0D1D05A94301252D052943012495
:10170000FD33E34001D392184941FF3381339C46B6
:101710008B02940D0121234389074C42920200273A
:101720001B198C105D1A04D42D1B02D42B466500A6
:10173000491992185B416408F4D15C1A08D4012558
:10174000ED07EE175519744102D42A462346491C69
:1017500094185B41012292071D46E61B8D4106D479
:10176000B61A854103D42B46550034467F192419F7
:101770005B415208802AEFD1234300D00223384630
:101780000A22D04001D3012213438A051043624646
:10179000890A12058918002B09D00122D34002D3EF
:1017A0000022401C5141002B01D140084000F0BDF7
:1017B0000B03134307D0C90FC907F0BD080310433B
:1017C00003D1002901DB1046F0BD00202946F0BD01
:1017D0000000F07F0000F87F10B5024800F02FF8FD
:1017E00010BD00000000C07F004870470CF8FF1FCC
:1017F0007546FFF7F9FFAE46050069465346C00837
:10180000C000854618B020B5FEF7DEFC60BC00279E
:101810004908B6460026C0C5C0C5C0C5C0C5C0C5BC
:10182000C0C5C0C5C0C5403D49008D46704710B514
:101830000446C046C0462046FEF795FC10BD10B5D4
:101840000C461107090F092904D00A290AD00829D2
:101850000CD104E011460820FFF726FF06E05106F0
:1018600006D501E0510601D50120C007214610BD73
:10187000D10607D501010909CC084907000E000669
:10188000044309E0410F20024907000A0143200EEA
:1018900000061D22D14101430846E7E7002006E08B
:1018A000054909694200054B9952411CC8B20449D7
:1018B00009788842F4DB704700B00340F4F1FF1F61
:1018C00058F0FF1FF3B585B02648016A059805F06A
:1018D000F7FD04902449886A049905F0D3FC224955
:1018E000886222492248006805F0BEFD03D21F48E5
:1018F0001F49086008E01F491D48006805F032FDD7
:1019000002D21C481A490860174880680121C9079B
:1019100048400646069905F04FFD0290124840687F
:101920000121C907484007460F48816A384605F03B
:1019300043FD01900C4800680121C9074840074653
:10194000049905F039FD0646019905F09BFC054612
:10195000029905F097FC0390FFF7AEFC04B2204615
:1019600007B0F0BDC4F1FF1FC4F0FF1F0000E14548
:1019700004F0FF1F0000E1C570B50024012001F054
:1019800006FA01F0B5FE01F047F814490820085E98
:10199000FFF7F4FC05461149C8682946FFF792FF96
:1019A00004460E4A143A1221515E1020105E00F0D7
:1019B0009DF8001904B2FEF721FDFF202D3084426E
:1019C00000DD04460648844200DA04460348143821
:1019D0004480848000F006F870BD0000C4F1FF1F51
:1019E000D4FEFFFF10B5044A0421515E0220105EB0
:1019F00001F004FA10BD0000B0F1FF1F002000222A
:101A000034498A61CA617F2189020968324A1160BA
:101A10007F218902496851607F218902896891602C
:101A20007F218902C968D1607F218902096911611A
:101A30007F218902496951617F2189028969916108
:101A40007F218902C969D1617F218902096A1162F6
:101A500000BF2DE0002243011F492C3159188A8113
:101A600043011D492C31CA54430159184A7043019E
:101A700019492C3159184A80430117492C315918FA
:101A80008A604100FD22520289180A8843011249E6
:101A90002C3159188A80811D4900FD225202891873
:101AA0000A8843010C492C315918CA80411CC8B21C
:101AB0000628CFDB0A22074940398A8500222C31CB
:101AC0004A808A808A60CA600A824A82034A143144
:101AD0000A627047C4F1FF1FC4F0FF1F66664641EB
:101AE00010B5012001F053F910BD0000F0B589B028
:101AF00004460D4661190846FFF740FC3B49086063
:101B00003B480068FEF74AFC3A4A3B4B059104907B
:101B1000FFF7FEF907910690FEF7ECFD34490860E7
:101B200032480068FEF73AFC344A354B0191009088
:101B3000FFF7EEF9059104902D480068FEF72EFCA2
:101B400003910290059B049AFEF78EFF0791069081
:101B5000FEF7D0FD2649086008460168294800685C
:101B600005F090FB2749086027492648006805F0E2
:101B70007BFC03D224482349086008E0234921481C
:101B8000006805F0EFFB02D220481E490860204A99
:101B9000116AD06805F094FC07461E4905F0E2FB87
:101BA00009D31B4A116AD06805F08AFC07461A4916
:101BB00005F05AFC02D2002012490860174801695A
:101BC0001048006805F0F8FB07901448C168084801
:101BD000006805F0F1FB0690079905F053FB0746F6
:101BE000FFF76AFB06B2304609B0F0BD08F0FF1FF0
:101BF0000CF0FF1F666666666666E63F3333333376
:101C00003333D33F10F0FF1F0000E1450000E1C572
:101C1000C4F1FF1F0000204100002042C4F0FF1F5C
:101C200070B505466C020020084948700A204872C9
:101C30002002000E0872012048702004000E487235
:101C40000C7200F063F8002070BD0000000002403C
:101C500010B50F4840690121090308430C49486148
:101C600000BF0C484079802108400028F9D07D2130
:101C7000C90009480068FEF78FFC401E84B2A00628
:101C8000800E40300349C8703020487110BD0000FC
:101C900000800440000002402CF0FF1FFFB581B01F
:101CA00007460C46790204980D180426002000907F
:101CB00023E0002014494870062048722802000ED4
:101CC0000872012048702804000E4872FC20284049
:101CD00008720220487020780872607848720320E9
:101CE0004870A0780872E0784872A419AD1900F025
:101CF0000DF80098801980B20090039900988842EE
:101D0000D7D3002005B0F0BD0000024010B572B678
:101D100030200A4948710A480A4908600748401DAE
:101D20000968884762B60548407933210840002891
:101D300001D0012010BD0020FCE70000000002409F
:101D400031F0FF1F40F0FF1F10B53A2003F0DAFD1D
:101D500010BD10B5262003F0D5FD10BD10B50A202A
:101D600003F0D0FD10BD10B53B2003F0CBFD10BD3E
:101D700010B501213C2003F049FE10BD10B5002133
:101D80003C2003F043FE10BD10B501213B2003F0C1
:101D90003DFE10BD10B500213B2003F037FE10BD05
:101DA00010B5012200213B2003F0C2FD10BD10B58B
:101DB000012211463B2003F0BBFD10BDC206D20E2E
:101DC00001219140014A11607047000000E100E0EC
:101DD00010B5002819DA1A4A03071B0F083B9B08A5
:101DE0009B00D2588307DC0EFF23A3409A438B0746
:101DF0001B0E8407E40EA3401A43114B0407240F63
:101E0000083CA408A4001A5118E00E4A03231B0240
:101E1000D21883089B00D2588307DC0EFF23A3400F
:101E20009A438B071B0E8407E40EA3401A43054B0D
:101E3000032424021B198408A4001A5110BD0000B9
:101E40001CED00E000E100E010B5002819DA1A4AA4
:101E500003071B0F083B9B089B00D2588307DC0E2F
:101E6000FF23A3409A438B071B0E8407E40EA34075
:101E70001A43114B0407240F083CA408A4001A516C
:101E800018E00E4A03231B02D21883089B00D25885
:101E90008307DC0EFF23A3409A438B071B0E8407A6
:101EA000E40EA3401A43054B032424021B198408A3
:101EB000A4001A5110BD00001CED00E000E100E09C
:101EC00010B50A48C068C007C00F002806D00848EF
:101ED0000068002802D00649086880470348C068A7
:101EE000012108430149C86010BD00000071034092
:101EF0005CF0FF1F10B50A48C069C007C00F00287A
:101F000006D008484068002802D006494868804743
:101F10000348C169012001430148C16110BD0000AF
:101F2000007103405CF0FF1F10B500F001F810BD18
:101F300010B5002413480068002809D01148006833
:101F4000401E10490860002802D101200E49087087
:101F50000E480068401C0D490860084600680C499E
:101F6000884202D1002009490860002407E01421BA
:101F70006143084A881801F051FD601CC4B2062C68
:101F8000F5DB10BD78F0FF1F7CF0FF1F80F0FF1F16
:101F9000FFFFFF7FB8F2FF1F164817498880012016
:101FA0004870232008701120000514494862002061
:101FB000134948709620134908701A201049087078
:101FC00000BF0F480079102108400028F9D100BF58
:101FD0000B4800790C2108400028F9D10A48006814
:101FE00040080A4908600848006840080849086035
:101FF0007047000003E80000002005400080044016
:10200000004006400050064014F0FF1F18F0FF1F6C
:102010001CF0FF1F70B500250026404800793F489E
:10202000007920210840002874D03C48C4793C48FD
:102030000078002806D0012813D0022820D00328D9
:1020400030D126E0AA2C08D1354801780078401C10
:10205000334A10703348445402E00020304908707D
:1020600030E0AF2C08D12E4801780078401C2C4A73
:1020700010702C48445402E000202949087021E0E7
:10208000274801780078401C254A107025484454A0
:1020900018E0234801780078401C214A107021483C
:1020A00044540FE01F48C078401D1D4909788842FC
:1020B00007DD1B4801780078401C194A1070194848
:1020C000445400BF00BF1748C078401D1449097828
:1020D00088421FD1002012490870002505E01148F0
:1020E000405D8019C6B2681CC5B20E48C078001D9C
:1020F000A842F4DCF1B20B48C078001D094A105C1C
:10210000814203D000200849087003E00548807828
:1021100005490870054801F0BBFC70BD00C00640D1
:10212000C3F0FF1F0CF6FF1FC2F0FF1F40F3FF1F9D
:10213000F8B582B28BB204140D1410465843002136
:1021400026465E43371436048019794116466E439D
:10215000371436048019794126466E438919F8BD33
:1021600030B47446641E2578641CAB4204D3635DAE
:102170005B00E31830BC18471D46F8E74900CA0267
:102180000243100000D004204A0D01D00122104368
:10219000044A490D914201D102210843012800D18E
:1021A00005207047FF070000F8B504464F1EC80021
:1021B0000838211815461E46086849683A4606231D
:1021C0009A4310D02A463346FEF7A2FE3A46D20082
:1021D000083AA3181A687F1E5B68FEF745FC0622C2
:1021E0003B469343EED1022F23D0042F11D0062F6C
:1021F0002FD12A463346FEF78BFEE36AA26AFEF72A
:1022000033FC2A463346FEF783FE636A226AFEF7F2
:102210002BFC2A463346FEF77BFEE369A269FEF7F4
:1022200023FC2A463346FEF773FE63692269FEF7F4
:102230001BFC2A463346FEF76BFEE368A268FEF7F6
:1022400013FC2A463346FEF763FE63682268FEF7F6
:102250000BFCF8BD10B50122FFF7C0F910BD10B599
:10226000FEF702FC10BD002210B5134610461146C1
:10227000FEF72AFC10BD0000034A10B5002011072C
:10228000FFF7ACF910BD000001FDFFFF30380A2850
:1022900001D20120704700207047014600BF002096
:1022A00070470000F0B587B006460F46002504A829
:1022B00003F008F8002445E0A0003058A100795848
:1022C000401A0190002801DB019901E0019949427F
:1022D0000846FFF753F88F21C9050090FEF73CFF31
:1022E0000390A10004AA5058002105F011F819D05C
:1022F000A00004AA11580398FEF72EFF7F21C905FC
:10230000019005F0DDF8029002984000400801902D
:102310000F48416A019805F0A7F812D20120A040A9
:1023200005430EE00A48C169039805F01BF805D380
:102330000748016A039805F097F802D20120A040EF
:102340000543641C032CB7DB284607B0F0BD000032
:10235000E875000008494969012252071143064AFD
:10236000516106498969012282401143034A916102
:1023700001215160704700000080044000B003401C
:10238000024688000C23184020231843084B98600D
:10239000D006C00E186000BF0548006880231840B2
:1023A0000028F9D0024800690005000D70470000C0
:1023B00000B00340F0B504464F008E488FB07F0850
:1023C0000D460D91874228DB4042381820430CD03F
:1023D0008948874203DC874218D1002C16D020465A
:1023E0002946FFF737FF0FB0F0BD844A844B2046E3
:1023F0002946FEF78DFD07460E46824A824B20464F
:102400002946FEF785FD3A46334649E00120FFF7AD
:1024100046F8FFF728FF0FB0F0BD7C48874243DA4B
:10242000F920800587420BDA20462946FFF7A6FEF1
:10243000042801D1FFF720FF204629460FB0F0BD48
:1024400022462B4610462946FEF762FD0646024606
:102450006F480F460B4606217844FFF7A5FE32462B
:102460003B46FEF755FD06906A48079132463B46CB
:1024700004217844FFF798FE32463B46FEF748FDBC
:1024800000225C4BFEF7F0FA02460B4607990698CD
:10249000FEF71AFB22462B46FEF73AFD22462B4654
:1024A000FEF7E2FA0FB0F0BD2046524C6900490831
:1024B00000222346FEF7F0FA0022D243FFF78EF8FF
:1024C0000546024654480E460B4606217844FFF75F
:1024D0006BFE2A463346FEF71BFD06904F480791D8
:1024E0002A46334604217844FFF75EFE2A463346E7
:1024F000FEF70EFD00222346FEF7B6FA0591049082
:102500002846314604F0FEFD089045480C468742B7
:1025100019DB059B049A07990698FEF7D5FA02463F
:102520000B4621460898FEF7F3FC2346089AFEF76F
:102530009BFA0122FFF752F8304A314BFEF7A1FA1D
:10254000304A314B4AE000273A460B460898FEF7DE
:102550008BFA3A4623460A910E9010461946FEF72A
:10256000D7FC2A463346FEF797FA0A9B0E9AFEF7E7
:10257000ABFA05460E46059B049A07990698FEF7A6
:10258000A3FA00910490012228463146FFF726F86D
:102590001A4A1B4BFEF780FA0E46054601222146D9
:1025A0000898FFF71BF8009B049AFEF7B1FC2A4637
:1025B0003346FEF766FA05460E46012238462146A6
:1025C000FFF70CF80F4C174F22463B46FEF764FA14
:1025D0002A463346FEF760FA22463B46FEF75CFA8F
:1025E0000D9A002A00DD5DE70122D20751400FB0AD
:1025F000F0BD00000000F03F0000F07F075C1433E6
:1026000026A6913C182D4454FB21F93F0000E03FE1
:102610007C5E0000925E0000085E00001E5E00000E
:102620003333EF3FFB21E93FF0B589B004460D4657
:102630004800069172494008884215DB714988427A
:1026400003DC884207D1002C05D020462946FFF73D
:1026500001FE09B0F0BD6C48002D02DD6B4909B0E8
:10266000F0BD6B4909B0F0BD6A49884211DA6A4988
:1026700088420BDA20462946FFF780FD042801D165
:10268000FFF7FAFD2046294609B0F0BD0026F643C3
:102690005DE06D0061496D08884232DA6049884228
:1026A00019DA0026012332469B0720462946FEF709
:1026B000DBF907460191012220462946FEF78EFFED
:1026C0000022584BFEF7DDF93A46019BFEF7FCF974
:1026D00004460D463BE001260022524B2046294687
:1026E000FEF7C2F90746009100224E4B20462946CC
:1026F000FEF7C7F93A46009BFEF7E6F904460D4699
:1027000025E04949884219DA02260022474B204633
:102710002946FEF7FDFB0022424BFEF7A5F90746CE
:1027200002910022414B20462946FEF7AAF93A467B
:10273000029BFEF7C9F904460D4608E0032622462F
:102740002B4600203A49FEF7BFF904460D462246C3
:102750002B4610461946FEF7DBFB07460B460246A2
:102760000191FEF7D5FB0246029032480B460391D9
:1027700006217844FFF718FD3A46019BFEF7C8FB97
:1027800000902D48019105217844039B029AFFF7A0
:102790000BFD039B029AFEF7BBFB02460B46019919
:1027A0000098002E0BDAFEF75FF922462B46FEF763
:1027B000AFFB22462B46FEF76FF909B0F0BDFEF7DE
:1027C00053F922462B46FEF7A3FB1C4AF6007A4437
:1027D00093191A685B68FEF754F922462B46FEF7F8
:1027E00050F9174A7A4493191A685B68FEF754F94E
:1027F000069A002AE1DA0122D207514009B0F0BD61
:10280000000010440000F07F182D4454FB21F93FD4
:10281000FB21F9BF0000DC3F0000203E0000F33F39
:102820000000E63F0000F03F008003400000F83F5A
:102830000000F0BF1A5C0000DC5B0000765B00006B
:10284000405B0000F0B51FB4039B54425D00164688
:1028500026439C46F40F6D084B004E4E5B082C43FC
:102860008E46B44205D847420743FC0F1C43B4428E
:1028700004D96346FFF7F3FC05B0F0BD464E66444D
:10288000164309D0CC0F6646B61702273E402643B2
:1028900004461C4304D00BE0FFF7C6FE05B0F0BDB4
:1028A000002EFBD0012EF9D0022E32D0032E34D0D0
:1028B00014462C430BD0374CA54216D1A3420AD163
:1028C000012189078D438B43194603950DE070461E
:1028D00000280FDB25E0314F7F44002E0ED0012E63
:1028E00010D0022E15D0032E17D0A3421DD1704652
:1028F000002816DA2A482B4905B0F0BD79683868F7
:1029000005B0F0BD01227968D2073868514005B0A2
:10291000F0BD2348244905B0F0BD2148234905B046
:10292000F0BD1F48224905B0F0BD5B1B1B153C2BB9
:1029300002DD1B481E490FE06446002C05DA3C24EA
:10294000E34202DA0020014606E0039BFEF7BCF8F2
:1029500049004908FFF768FE002EE4D0012E0BD095
:10296000144A154B022E0CD0FEF78BF80C4A0E4B76
:10297000FEF787F805B0F0BD0122D207514005B03F
:10298000F0BDFEF77EF8064A074BFEF785F805B066
:10299000F0BD00000000F07F000010C0E45A00000D
:1029A000182D4454FB21F9BFFB210940FB2109C02C
:1029B000FB21F93F075C143326A6A13C10B502F0B9
:1029C000DDFCFFF745F900F0EBFF01F041F800F006
:1029D00053FD00F0A9F900F051F900F019FF00F0E3
:1029E00008F800F03FFA00F0EDF900F042FE62B6A0
:1029F00010BD10B5002002F085FA012002F082FA25
:102A0000012200213D2002F093FF012200213F20FE
:102A100002F08EFF10BD000010B52248007801289A
:102A200000D110BD01201F490870002002F060FA9B
:102A30001D498860012002F05BFA1B49C860002034
:102A400002F04EFA012002F04BFA00F0A3FF174902
:102A50000968441A1448008901B213480182808928
:102A600001B21148418200F095FF104908603D20F5
:102A700002F048FF002805D10B48008A404201B20D
:102A8000094801823F2002F03DFF012805D1064898
:102A9000408A404201B20448418200200149087046
:102AA00000BFBEE765F0FF1FB0F1FF1F74F0FF1F0E
:102AB0000FB410B508988047039880470598804761
:102AC000052000F03BFF07988047052000F036FF07
:102AD0000898804710BC08BC04B018470FB410B564
:102AE000089880470398804704988047052000F0A5
:102AF00025FF07988047052000F020FF08988047B1
:102B000010BC08BC04B018470FB4FEB50F9E0025DA
:102B100000240898804713E00E988047052000F0B5
:102B20000DFF0D9880476006040E0C988047012821
:102B300001D1601CC4B2032000F000FF681CC5B2C4
:102B4000082DE9DB002E08D10CA807C86B4607C387
:102B500008A80FC8FFF7C2FF07E00CA807C86B461C
:102B600007C308A80FC8FFF7A3FF2046FEBC08BC98
:102B700004B018470FB470B50B9C0025059880472A
:102B80000A9880471FE080202040C011002802D012
:102B90000698804706E080202040C011002801D11F
:102BA000079880476006040E052000F0C7FE0998CC
:102BB0008047052000F0C2FE0A988047022000F0FE
:102BC000BDFE681CC5B2082DDDDB70BC08BC04B0BE
:102BD00018470FB410B503988047049880470798AA
:102BE00080470A2000F0AAFE059880470A2000F0DE
:102BF000A5FE0898804710BC08BC04B018470FB465
:102C000010B50398804708988047059880470A20A8
:102C100000F094FE07988047049880470A2000F04F
:102C20008DFE10BC08BC04B018470FB43EB500249C
:102C30000698804708988047012000F07FFE0B9897
:102C40008047012000F07AFE10E0601CC4B2FA2C2C
:102C50000CDD0AA807C86B4607C306A80FC8FFF714
:102C6000CEFF01203EBC08BC04B018470A9880473C
:102C70000028EAD10C9880470020F3E710B500F057
:102C800039F800F001F810BD00200021144A9172BB
:102C9000D1720121117300BF18E0DC220C214143E5
:102CA000104BC9184A8100220C214143C9180A71EE
:102CB0000C214143C9184A710C214143C918CA71FA
:102CC0000C214143C9188A71411CC8B20328E4DBB6
:102CD0000549044A11600549D16005499161704771
:102CE00084F2FF1F94F2FF1F5D1D0000531D0000C2
:102CF000491D000010B5012200210A2002F018FE33
:102D00000A2004F039F901220021262002F010FEE9
:102D1000262004F031F9012200213A2002F008FEB9
:102D20003A2004F029F910BD10B5012211461220F5
:102D300002F0FEFD012211460C2002F0F9FD0122F5
:102D40001146252002F0F4FD002000F001F810BD2E
:102D500010B50446002C04D0012C0BD0022C13D14A
:102D60000DE00121122002F051FE01210C2002F0A1
:102D70004DFE0AE00121122002F048FE05E001218B
:102D80000C2002F043FE00E000BF00BF10BD10B5F4
:102D90000446002C04D0012C09D0022C0FD10AE0EB
:102DA000122002F051FE0C2002F04EFE08E012202C
:102DB00002F04AFE04E00C2002F046FE00E000BFF4
:102DC00000BF10BD10B500230B4A1946022002F0C7
:102DD0004DF90023084A0121022002F047F900239F
:102DE000054A0221084602F041F90023024A032164
:102DF000022002F03BF910BD983A000070B504467D
:102E00000D46002D0ADDEA1C0121022002F0F0F837
:102E100003220021022002F0EBF80AE00322012144
:102E2000022002F0E5F80320421B0021022002F0FC
:102E3000DFF8002C0ADDE21C0221084602F0D8F877
:102E400003221146022002F0D3F80AE003220221F5
:102E5000084602F0CDF80320021B0146022002F0D2
:102E6000C7F870BD10B5002400F040F880216B2039
:102E700000F062FA642000F047FD00216B2000F0B2
:102E80005BFA032000F0A1F9002000F096F964201D
:102E900000F0C0F900216A2000F04EFAFF21232043
:102EA00000F04AFA8021372000F046FA002138204D
:102EB00000F042FA752000F0E5F80446682C0BD1CA
:102EC00001216B2000F038FA00216C2000F034FA68
:102ED000322000F09FF901E0012010BD00BF03F097
:102EE0000BF80028FBD100BFF7E7000010B5012266
:102EF00000213B2002F01CFD3B2004F03DF80122A4
:102F000011463C2002F014FD3C2004F035F808483E
:102F10000849486108488861084888600848C860CE
:102F200008480860084848600848086110BD00006B
:102F3000711D000068F5FF1F7D1D0000891D000048
:102F4000951D0000A11D0000AF1D0000671D0000C1
:102F5000F0B585B007460E4614461D46484A103265
:102F600007CA02920191009045480FC8FFF731FE51
:102F7000D020434A0390103207CA6B4607C340482B
:102F80000FC8FFF7F7FD3E490A6948698969009251
:102F9000029101903A480FC8FFF747FE00280DD074
:102FA000374A116950699269029200910190344840
:102FB0000FC8FFF724FE012005B0F0BD304A03968C
:102FC000103207CA6B4607C32D480FC8FFF7D2FD62
:102FD0002B4A116950699269029200910190284828
:102FE0000FC8FFF722FE264A1169506992690292C2
:102FF0000091019022480FC8FFF7EBFDD120204A35
:103000000390103207CA6B4607C31D480FC8FFF76D
:10301000B1FD1B4A103207CA6B4607C318480FC8D8
:10302000FFF703FE1FE0012C0CD10020144A03908F
:10303000103207CA6B4607C311480FC8FFF764FD7B
:1030400028700DE001200E4A0390116950699269C1
:103050000292009101900A480FC8FFF755FD2870B1
:10306000601EC4B26D1C002CDDD1054A103207CAA7
:103070006B4607C302480FC8FFF7C1FD00209BE75E
:1030800068F5FF1F7FB504460025374A103207CA8E
:103090006B4607C334480FC8FFF79BFDD020324A68
:1030A00003901169506992690292009101902E4833
:1030B0000FC8FFF75FFD2C4A103207CA6B4607C3E3
:1030C00029480FC8FFF7B1FD274A039411695069D9
:1030D000926902920091019023480FC8FFF74AFDC0
:1030E000214A1169506992690292009101901E482B
:1030F0000FC8FFF79AFD1C4A116950699269029244
:103100000091019018480FC8FFF763FDD120164ABF
:1031100003901169506992690292009101901248DE
:103120000FC8FFF727FD104A103207CA6B4607C3C6
:103130000D480FC8FFF779FD00200B4A03901032AD
:1031400007CA6B4607C308480FC8FFF7DDFC0546F2
:10315000054A103207CA6B4607C303480FC8FFF77A
:103160004EFD284604B070BD68F5FF1FFEB504464D
:103170000D4616466B46062243216820FFF7E8FEFF
:103180000746002F17D1684600780102684640784C
:10319000014308B220806846807801026846C07802
:1031A000014308B2288068460079000269464979DF
:1031B000084300B230803846FEBD10B50446E00634
:1031C000010E1C2000F0B8F810BD10B50446E00652
:1031D000010E1B2000F0B0F810BD70B504460025AC
:1031E000BC2C01DB012510E0622C01DB02250CE088
:1031F0002A2C01DB032508E0142C01DB042504E064
:103200000A2C01DB052500E0062529461A2000F0DE
:1032100093F870BD70B504467D20C000844200DD87
:103220000446042C00DA042421467D20C000FDF76A
:10323000BDF9401EC6B23146192000F07DF80646A1
:103240002546E10F4919C903080CFFF7C6FF70BDF9
:10325000F0B585B00D4616461F46002435490A696B
:103260004869896900920291019032480FC8FFF7BE
:10327000B0FCD0202F4A0390103207CA6B4607C318
:103280002C480FC8FFF776FC2A4A103207CA6B4653
:1032900007C328480FC8FFF7C8FC00280BD0254AF1
:1032A000103207CA6B4607C322480FC8FFF7A7FCB6
:1032B000012005B0F0BD1F4A0395103207CA6B46C6
:1032C00007C31C480FC8FFF755FC1A4A103207CA3B
:1032D0006B4607C317480FC8FFF7A7FC002424E07C
:1032E000385D144A0390103207CA6B4607C3114871
:1032F0000FC8FFF73FFC0F4A103207CA6B4607C3DF
:103300000C480FC8FFF791FC00280CD0094A11693E
:103310005069926902920091019006480FC8FFF728
:103320006EFC0120C5E7601CC4B2B442D8DB0020AB
:10333000BFE7000068F5FF1F7FB504460D463D4A14
:1033400011695069926902920091019039480FC841
:10335000FFF73FFCD020374A03901169506992690A
:1033600002920091019033480FC8FFF703FC314AE5
:10337000103207CA6B4607C32E480FC8FFF755FC2B
:1033800000280DD02B4A1169506992690292009170
:10339000019028480FC8FFF732FC012004B070BD2F
:1033A000244A039411695069926902920091019034
:1033B00020480FC8FFF7DEFB1E4A11695069926969
:1033C0000292009101901B480FC8FFF72EFC194A8A
:1033D0000395116950699269029200910190154814
:1033E0000FC8FFF7C7FB134A11695069926902922F
:1033F000009101900F480FC8FFF717FC00280CD070
:103400000C4A116950699269029200910190094831
:103410000FC8FFF7F4FB0120C0E7064A11695069A5
:10342000926902920091019002480FC8FFF7E7FBF2
:103430000020B3E768F5FF1F70B5002419E02146AE
:10344000B031C8B2002100F0DCF80021084600F0DD
:10345000D8F80021102000F0D4F8002505E0012163
:10346000002000F0CEF8681CC5B2802DF7DB601C90
:10347000C4B2082CE3DB70BD10B500F08DF801215B
:10348000072002F0C3FA642000F03EFA0021072072
:1034900002F0BCFA642000F037FA0121072002F0A4
:1034A000B5FA0021AE2000F0ACF80021084600F08B
:1034B000A8F80021102000F0A4F80021402000F01E
:1034C000A0F80021812000F09CF80021CF2000F01E
:1034D00098F80021A12000F094F80021C82000F005
:1034E00090F80021A62000F08CF80021A82000F020
:1034F00088F800213F2000F084F80021D32000F05C
:1035000080F80021084600F07CF80021D52000F06A
:1035100078F80021802000F074F80021D92000F014
:1035200070F80021F12000F06CF80021DA2000F0A2
:1035300068F80021122000F064F80021DB2000F080
:1035400060F80021402000F05CF80021202000F00D
:1035500058F80021022000F054F800218D2000F0DE
:1035600050F80021142000F04CF80021A42000F0B5
:1035700048F80021A62000F044F80021AF2000F018
:1035800040F80021AF2000F03CF8FFF755FF002184
:10359000084600F01CF810BD10B501221146172096
:1035A00002F0C6F901221146072002F0C1F90122FA
:1035B0001146062002F0BCF9012211462B2002F030
:1035C000B7F9012211462A2002F0B2F910BD70B5F8
:1035D00004460D462946B031C8B2002100F011F86A
:1035E000F0212140091108461030002100F009F8AF
:1035F0002107090F012211430846002100F001F8BC
:1036000070BD70B504460E46002E04D00121062080
:1036100002F0FCF903E00021062002F0F7F9002196
:10362000172002F0F3F9002518E000212B2002F00A
:10363000EDF980202040002804D001212A2002F04A
:10364000E5F903E000212A2002F0E0F901212B2016
:1036500002F0DCF96006040E681CC5B2082DE4DB3C
:103660000121172002F0D2F90121062002F0CEF943
:1036700070BD10B50420FEF76DFE0520FEF76AFE52
:103680000620FEF767FE0720FEF764FE0C20FEF71B
:1036900061FE0D20FEF75EFE10BD000070B5002437
:1036A00020E06201114951188A8863010F495918B5
:1036B000C988501AFDF762FE054662010B49511890
:1036C0004A88630109495918C988501AFDF756FEFE
:1036D00006462946FDF740FD6201044951188860FD
:1036E000601CC4B2062CDCDB70BD0000F0F0FF1FD4
:1036F000F8B5002400255AE02300FEF731FD06044A
:103700000A10161C222800210D20FEF739FEC5B232
:103710001DE000210C20FEF733FEC5B217E00021AA
:103720000720FEF72DFEC5B211E000210620FEF7AE
:1037300027FEC5B20BE000210520FEF721FEC5B231
:1037400005E000210420FEF71BFEC5B200BF00BF4C
:1037500061012E480818417862012C481018407801
:10376000401CC2B263012948181842704900620126
:10377000264810180C30455261012448081840783A
:103780000A2804DB002162012048101841706301FF
:103790001E4A9A18911C63011C4A9A1810460C3054
:1037A0000A2201F079FBFFF779FF601CC4B2062CF6
:1037B000A2DB164AA0329168CC3A506D03F062FD4C
:1037C0000646124AA0329168CC3A506D03F078FE5A
:1037D00007463146FDF7C0FC0C49D43188610A46E2
:1037E000543A9168AC3A506B03F04CFD0646074AD8
:1037F00080329168AC3A506B03F062FE0746314666
:10380000FDF7AAFC0149D431C861F8BDF0F0FF1FF3
:1038100010B501220021412002F08AF80122002186
:10382000422002F085F801220021222002F080F8D7
:1038300001220021232002F07BF8412003F09CFBB1
:10384000422003F099FB222003F096FB232003F093
:1038500093FB10BD7FB504460E461546022C03DDD2
:103860000020C04304B070BDE0000D49085C012891
:1038700001D1C01EF6E768460470012141700321A2
:1038800001720196039501F089FA0120E100044AD2
:103890005054E0001146401845600020E2E7000067
:1038A00030F3FF1F70B50446062C02DD0020C04334
:1038B00070BD14206043134D4019007B012801D1D5
:1038C000C01EF5E7142060430E4D401941600025ED
:1038D000142060430B4E8019457014206043354618
:1038E0002B54012514206043801905731420604374
:1038F0003546401981601420604340190261002060
:10390000D6E70000B8F2FF1F002800D17047012859
:1039100000D10220074908600021074A117004E025
:1039200005490978012900D100E0F9E700BF00BF8F
:10393000ECE7000078F0FF1F7CF0FF1FFEB50746A4
:103940000026114840690090104911480068FCF7B2
:1039500023FE7843019000BF0B48856911E00A48B7
:103960008469AC420DD0AC4202D2281B861903E018
:103970000098001B4019861925460198864200D3FD
:1039800000E0ECE700BFFEBD00E000E040420F00B9
:1039900028F0FF1F014800687047000080F0FF1FFB
:1039A00070B5002400BF1AE0002114206043174ABC
:1039B00080184160142060438018816014206043A7
:1039C0008018417014206043115414206043801803
:1039D00001611420604380180173601CC4B2062C7E
:1039E000E2DB0B480568681E0A49884200D90CE0F2
:1039F000681E094948610321081FFEF725FA0020C7
:103A0000054988610720086100BF70BDB8F2FF1F3B
:103A100028F0FF1FFFFFFF0000E000E010B50446A4
:103A20006068002812D06068401E606000280DD1D8
:103A3000012060702078012803D1A0686060002018
:103A400060702069002801D02069804710BD000007
:103A500000B500F04DF807480068C0782021084301
:103A600004490968C8700E2001218140024A116092
:103A700000BF00BD40F3FF1F00E100E00146012947
:103A800001D1024870470020FCE7000040F3FF1F0F
:103A900010B50021002203681B7908242340002B65
:103AA00003D003681A790368D97903681A7903681F
:103AB0001B7980242340002B19D0838A002B05D149
:103AC0000368DB78A3430468E37010E0448A43682A
:103AD0001B5D0468E371438A5B1C9BB2438284894B
:103AE000A34201DB00234382838A5B1E838210BDD5
:103AF0000A480B4908600B4888600B484860FF2063
:103B00000130C8818881002048830883C882888268
:103B100048824862C86108627047000000C00640E1
:103B200040F3FF1F68F4FF1F68F3FF1FF8B5064658
:103B30000C461546002200233046FFF79FFF024641
:103B4000002A00D1F8BD00231DE008E0918A009111
:103B5000918968460088814200DD01E000BFF5E7F9
:103B600000BFE05C178A5168C855108A401C80B2BB
:103B700010829189884201DB00201082908A401CCB
:103B80009082581C83B2AB42DFDB1068C078802182
:103B900008431168C87000BFD4E7000010B50A4898
:103BA0000078012800D110BD01200749087000F0FD
:103BB0000DF800F0D1FA00F0F5F800F08BF80020D5
:103BC0000149087000BFEEE765F0FF1F10B51F4800
:103BD0000078002800D110BD1C480078132821D09F
:103BE00008DC02280DD010280ED0112812D012287F
:103BF00025D113E0142819D015281BD0F0281ED188
:103C00001CE000F0EDF91AE000F056F9102000F089
:103C100077FA14E0112000F073FA10E0122000F09F
:103C20006FFA0CE0132000F06BFA08E0142000F0AB
:103C300067FA04E0152000F063FA00E000BF00BF5F
:103C400000200249087000BFC5E70000C2F0FF1F56
:103C5000F0B589B007460E461446202101A8FCF7AE
:103C600097FB1B2C02DD002009B0F0BDFF2E01DD0B
:103C70000120F9E7AA216846017141718671C4717A
:103C800000250DE0795D01AA281D115401A9201D10
:103C9000085C495D4018C1B2201D1154681CC5B2B2
:103CA000A542EFDB25460AE001A9201D085C495D1D
:103CB0004018C1B201AA201D1154681CC5B2201DB4
:103CC0008542F1DB621D01A90120FFF72FFF0020D3
:103CD000CAE70000FEB50020009001900290002489
:103CE0002E4908692E4903F067FB0546FDF7E4FA03
:103CF0000004020E2146641C6846425427490869A4
:103D0000274903F059FB0546FDF7D6FAC2B2214612
:103D1000641C68464254214A116AD06803F0D0FB03
:103D200006461F4903F048FB0546FDF7C5FA0004A7
:103D3000020E2146641C68464254184A116AD06833
:103D400003F0BEFB0646164903F036FB0546FDF7B9
:103D5000B3FAC2B22146641C684642540F4948690E
:103D60000F4903F029FB0546FDF7A6FA0004020EF1
:103D70002146641C6846425408494869084903F0D2
:103D80001BFB0546FDF798FAC2B22146641C684643
:103D900042540C220121FFF75BFFFEBDC4F1FF1F5F
:103DA0000000C8421FB500200090019002900390CF
:103DB0000024404840880004020E2146641C6846E6
:103DC00042543C4882782146641C68464254394833
:103DD00080880004020E2146641C6846425435481F
:103DE00002792146641C6846425432488068020EBB
:103DF0002146641C684642542E4880680002020E28
:103E00002146641C684642542A4800890004020E78
:103E10002146641C684642542648027A2046611CAA
:103E2000CCB269460A542348C068020E2046611C81
:103E3000CCB269460A541F48C0680002020E2046F0
:103E4000611CCCB269460A541A4880890004020EEB
:103E50002046611CCCB269460A541648027B2046B3
:103E6000611CCCB269460A541248008A0004020E52
:103E70002046611CCCB269460A540E48027C20469A
:103E8000611CCCB269460A540A48408A0004020EFA
:103E90002046611CCCB269460A540648827C204602
:103EA000611CCCB269460A542246F1216846FFF7EC
:103EB000CFFE1FBDB0F1FF1F10B5454909790902BA
:103EC000434A5279114308B2FDF758FA0446414972
:103ED000FDF742F9404908603D49897909023C4AA9
:103EE000D279114308B2FDF749FA04463949FDF782
:103EF00033F9394948603649097A0902344A527A15
:103F0000114308B2FDF73AFA04463449FDF724F9A3
:103F1000314988602E49897A09022D4AD27A1143A3
:103F200008B2FDF72BFA04462A49FDF715F92A498C
:103F3000C8602749097B0902254A527B114308B210
:103F4000FDF71CFA04462549FDF706F922490861E8
:103F50001F49897B09021E4AD27B114308B2FDF733
:103F60000DFA04461D49FDF7F7F81B494861184949
:103F7000097C0902164A527C114308B2FDF7FEF98A
:103F800004461449FDF7E8F8134988611049897C13
:103F900009020F4AD27C114308B2FDF7EFF904463B
:103FA0000C49FDF7D9F80C49C8610949097D090296
:103FB000074A527D114308B2FDF7E0F9044607496C
:103FC000FDF7CAF80449086202F0C8FF10BD0000FE
:103FD0000CF6FF1F0000C842C4F0FF1F00007A4427
:103FE00030B585B014216846FCF7D2F9414908681C
:103FF000414903F0E1F90546FDF75EF904B22004FA
:10400000010E6846017044703A4948683A4903F025
:10401000D3F90546FDF750F904B22004010E6846B5
:104020008170C47033498868344903F0C5F9054686
:10403000FDF742F904B22004010E68460171447193
:104040002C49C8682C4903F0B7F90546FDF734F947
:1040500004B22004010E68468171C47125490869C3
:10406000254903F0A9F90546FDF726F904B2200415
:10407000010E6846017244721E4948691F4903F0E7
:104080009BF90546FDF718F904B22004010E6846B5
:104090008172C47217498869184903F08DF9054681
:1040A000FDF70AF904B22004010E68460173447357
:1040B0001049C869114903F07FF90546FDF7FCF87E
:1040C00004B22004010E68468173C4730949086A6A
:1040D0000A4903F071F90546FDF7EEF804B2200431
:1040E000010E68460174447412221021FFF7B0FDDE
:1040F00005B030BDC4F0FF1F0000C84200007A4484
:104100007CB50546002000900190AA216846017008
:104110004170EF2181700721C17005710D48C07891
:10412000001D0C49085C69464871002409E0684696
:1041300080796946095D4018C1B268468171601C8A
:10414000C4B2072CF3DB072269460120FFF7EEFC1F
:104150007CBD00000CF6FF1F30B585B01421684609
:10416000FCF716F900244048408C01122246641CDA
:10417000684681543C48203082782146641C684659
:10418000425439482C38C08D01122246641C6846BE
:104190008154354882782146641C6846425432482E
:1041A0008030408801122246641C684681542E48A3
:1041B000803082782146641C684642542A48A030E8
:1041C000408801122246641C684681542648A0306B
:1041D00082782046611CCCB269460A542249D43107
:1041E0008869224903F0E8F80546FDF765F8000400
:1041F000020E2046611CCCB269460A541A49D431D9
:1042000088691A4903F0D8F80546FDF755F8C2B297
:104210002046611CCCB269460A541349D431C8699E
:10422000134903F0C9F80546FDF746F80004020EED
:104230002046611CCCB269460A540B49D431C86986
:104240000B4903F0B9F80546FDF736F8C2B220462F
:10425000611CCCB269460A542246F2216846FFF737
:10426000F7FC05B030BD0000F0F0FF1F00007A44FD
:104270000000C842F8B50446E078C021084000902C
:10428000E0788506AD0E6078C007C00F002813D017
:10429000EE102846E917490F0918C910C900691A14
:1042A000491CCFB20C480068002804D00A4839469F
:1042B00002683046904700BF607808210840002817
:1042C00008D005484068002804D0009A9011024A9E
:1042D000516888470020F8BDFCF5FF1F38B504463B
:1042E000002C09D02021684601702821417030211E
:1042F00081703821C17004E0A32204216846FCF7D4
:1043000020F86A460421034802F0EAFD02F0A4F90D
:1043100038BD00009E0A00003EB5044602216846F2
:104320000170CA214170E32181700921C1706A4680
:104330000421682002F0D4FDA321684601704020CA
:104340002040002807D0C02168464170C8218170F4
:10435000C221C17004E0A321684641708170C17020
:10436000FF2081302040002807D0C4216846017119
:10437000CC214171C621817104E0A32168460171FD
:1043800041718171A3216846C171017241726A460F
:104390000A21644802F0A4FDA007800F002803D082
:1043A00020206946087002E0D820694608706A46F5
:1043B00001215C480F3002F093FD202020400028AE
:1043C00003D0012000F0B6F802E0002000F0B2F8BF
:1043D000FF208130204000281DD0FF2001302040E8
:1043E000002809D0B221684601708B214170B621A6
:1043F00081709B21C17008E0B02168460170802166
:104400004170B42181709021C1706A4604214548F1
:10441000401F02F065FDE007C00F002824D0F820FF
:10442000694608706A4601218B20000102F058FDA0
:10443000FA21072000F0B8FB072000F07CFB0120E8
:1044400000F09FFB642000F085FCFF20F53000F0B9
:1044500093FCC821344800F02DFB282000F047FBD6
:104460000A2000F056FB08E0D820694608706A462A
:1044700001218B20000102F033FD022020400028A2
:1044800003D0D9206946087002E0D8206946087038
:104490006A460121254802F023FD0420204000281F
:1044A00003D0012000F072F802E0002000F06EF866
:1044B00010202040002803D00120FFF70FFF02E06A
:1044C0000020FFF70BFF082020431949488102F024
:1044D000C3F800201649887340202040002803D0EC
:1044E0000846807B801D8873FF2081302040002893
:1044F00004D00F48807B801D0D4988731420204014
:10450000002804D00A48807B103009498873A0072E
:10451000800F002804D00648807B001D0449887362
:1045200000203EBDA70A000009E3CA023D070000C3
:10453000FCF5FF1F3EB50446002C0DD00DA10A6806
:10454000486889680092029101906A460921972083
:10455000C00002F0C5FC3EBD09A211685068926817
:104560000292009101906A4609219720C00002F052
:10457000B7FCF0E7B8AAB38DB4980D355D00000024
:10458000B8AAAAAAB088C3C5C700000038B50446B7
:10459000002C09D0C02168460170C2214170C4219D
:1045A0008170C621C17004E08B2204216846FBF7AC
:1045B000C8FE6A460421034802F092FC02F04CF85F
:1045C00038BD0000980A000010B5C82301229202ED
:1045D0000249034801F0C8FE10BD0000107600003B
:1045E000F60B0000FFB58DB007461546169E002459
:1045F000002030806E49887B05A9179A01F082FF60
:10460000002802D0601E11B0F0BD69484089142115
:104610000840002869D06946087D0006497D0904E4
:1046200008436946897D090208436946C97D0843F4
:1046300028606946087E0006497E090408436946E9
:10464000897E090208436946C97E08436860694655
:10465000087F0006497F090408436946897F0902EB
:1046600008436946C97F0843A86008A9087800067E
:1046700049780904084308A989780902084308A968
:10468000C9780843E86020461030C4B22868001496
:104690000190686800140290A86800140390E8680C
:1046A000001404900198404302994943411803982B
:1046B0004043091804984043081800900F21090648
:1046C0000098884204DB112109060098884205DD24
:1046D00001F0C2FF00203080401E94E70020305ED1
:1046E000FF2101310843308000BF3148408940211B
:1046F0000840002824D005A8005D000205AA611C1E
:10470000515C084301B20E98018005A9A01C085C09
:104710000002E11C515C084301B20E98418005A9DA
:10472000201D085C0002611D515C084301B20E9817
:104730008180A01DC4B20020305E08210843308073
:104740001B484089FF2181310840002821D005A85D
:10475000005D000205AA611C515C084300B238806C
:1047600005A9A01C085C0002E11C515C084300B2D2
:10477000788005A9201D085C0002611D515C08437A
:1047800000B2B880A01DC4B20020305E7021084382
:1047900030800748807A8007800F002803D005A961
:1047A0000819FFF767FD1098FBF729FE00202AE79C
:1047B000FCF5FF1F30B585B0044616A207CA02AB50
:1047C00007C3C82C03DD0020C04305B030BD21461F
:1047D000C820FBF7EBFE401E85B228126946087020
:1047E0004D706A4602210E4802F07AFB002802D082
:1047F0000020C043E9E702AA0C210A4802F070FB3E
:10480000002802D00020C043DFE707488481002051
:10481000DBE70000FEF2ABC4AAF1DFDFBBAFDFDFF6
:1048200016020000C10A0000FCF5FF1F1FB5044678
:104830004D48007A8007000F205801904A480089AF
:1048400004210840002802D00198404201904648C7
:10485000007AC006800F80002058029042480089EC
:1048600020210840002802D00298404202903E4891
:10487000007A0006800F8000205803903A48008993
:10488000FF2101310840002802D0039840420390E4
:1048900036490198FDF74CFC8900800F08430190D0
:1048A00032490298FDF744FC8900800F08430290CA
:1048B0002E490398FDF73CFC8900800F08430390C4
:1048C0000198010E6846017001980002010E6846C9
:1048D000417001980004010E684681700198C1B2D0
:1048E0006846C1706A4604213D20000102F0F8FAD2
:1048F000002803D00020C04304B010BD0298010E70
:104900006846017002980002010E684641700298E4
:104910000004010E684681700298C1B26846C170F9
:104920006A460421F520800002F0DAFA002802D05D
:104930000020C043E0E70398010E68460170039829
:104940000002010E6846417003980004010E68469B
:1049500081700398C1B26846C1706A4604217B2009
:10496000C00002F0BDFAC7E7FCF5FF1F09E3CA0269
:1049700010B586B0044649A00068039048A00068BE
:10498000029048A00068019047A000680090A0072E
:10499000800F03A9095C68460175E006800F03A932
:1049A000095C684641752006800F03A9095C6846CA
:1049B0008175A007800F02A9095C68460174E006B2
:1049C000800F02A9095C684641742006800F02A985
:1049D000095C6846817405AA0321344802F080FA14
:1049E000002803D00020C04306B010BD04AA032154
:1049F0002E48001D02F074FA002802D00020C043A7
:104A0000F2E70198059000980490042020400028C7
:104A10000AD06846017D0120014368460175007C8B
:104A200001210843694608742020204000280AD04C
:104A30006846417D0120014368464175407C012163
:104A4000084369464874FF200130204000280AD0FE
:104A50006846817D0120014368468175807C012183
:104A600008436946887405AA03211120800102F0D9
:104A700037FA002802D00020C043B5E704AA03217A
:104A80000A480B3002F02CFA002802D00020C04364
:104A9000AAE7074804810020A6E700004CCD6C007F
:104AA0000CC92C0036567600264666002604000007
:104AB000FCF5FF1FF8B506460D467D21C9003046BE
:104AC000FBF774FD68430446210E6846017020021E
:104AD000010E684641702004010E68468170C47062
:104AE0006A460421FF205D3002F0FAF9F8BD38B5BE
:104AF000044605212046FBF759FD84B22112684681
:104B0000017044706A460221FF205B3002F0E8F930
:104B100038BD38B5044605212046FBF747FD84B271
:104B200021126846017044706A460221FF20593004
:104B300002F0D6F938BD38B5044600200090E007F1
:104B4000C00F002804D0694608783021084300903F
:104B500002202040002804D0694608780C21084330
:104B6000009004202040002804D0694608780321E2
:104B7000084300906A460121FF20493002F0B0F955
:104B800038BD38B50446012C01DA012402E0042CBA
:104B900000DD0424601EC0B200906A460121FF209F
:104BA000503002F09DF938BDF0B585B006460F468D
:104BB0007007400F002803D019208001874203DDD1
:104BC0000020C04305B0F0BD3846FCF7DFFB5C4970
:104BD0000090FCF7C1FA019002A801F0E1F96846E3
:104BE000007A022806D0042816D0082826D01028DB
:104BF00048D135E08D21C905019802F0DDFB009018
:104C0000FCF780FB84B24F49019802F0D5FB00907D
:104C1000FCF778FB85B238E023214906019802F0C1
:104C2000CBFB0090FCF76EFB84B24749019802F081
:104C3000C3FB0090FCF766FB85B226E08B21C9051B
:104C4000019802F0B9FB0090FCF75CFB84B23F498D
:104C5000019802F0B1FB0090FCF754FB85B214E020
:104C600045210906019802F0A7FB0090FCF74AFBDA
:104C700084B23749019802F09FFB0090FCF742FB99
:104C800085B202E00020C0439CE700BF21126846C5
:104C90000173447329128173C573F007C00F002894
:104CA00016D003AA0221FF20D53002F019F90028FE
:104CB00002D00020C04385E703AA02320221FF2070
:104CC000253002F00DF9002802D00020C04379E71A
:104CD00002203040002816D003AA0221FF20D9303C
:104CE00002F0FEF8002802D00020C0436AE703AAC1
:104CF00002320221FF20293002F0F2F8002802D00F
:104D00000020C0435EE704203040002816D003AAEC
:104D10000221FF20DD3002F0E3F8002802D000205D
:104D2000C0434FE703AA02320221FF202D3002F0D8
:104D3000D7F8002802D00020C04343E7002041E715
:104D400000004843000040460000C04500004045C8
:104D50000000C04438B5054605212846FBF726FC6F
:104D600084B221126846017044706A460221FF2015
:104D7000DF3002F0B5F838BD38B5054605212846C4
:104D8000FBF714FC84B221126846017044706A4635
:104D90000221FF20DB3002F0A3F838BD70B50446D5
:104DA00000253848406902210843364948613648A1
:104DB0000068022188433449086034496068096802
:104DC00048430546324821780901455021780901B8
:104DD0004018C068012108432D4922781201891822
:104DE000C8602B48217809014018806841084900B3
:104DF000274822781201801881602548217809010E
:104E000040188068022188432149227812018918BC
:104E100088601F48217809014018816801200143FA
:104E20001B4822781201801881606078012827D100
:104E30001748217809014018806802210843144965
:104E4000227812018918886021788900114AE06867
:104E500050502078002802D0012810D107E01620F9
:104E6000FCF7ACFF217A1620FCF7B2FF07E0172011
:104E7000FCF7A4FF217A1720FCF7AAFF00BF00BFB0
:104E800070BD0000008004400070034028F0FF1F48
:104E9000007103405CF0FF1FF8B506460F4614464C
:104EA00000250020009006E06800315A009808189C
:104EB0000090681C85B2A542F6DB21460098FBF7FE
:104EC0006BFB3880F8BD000000BF044A12798023D4
:104ED0001A40002AF9D0014BD871704700A0064053
:104EE00000218200014B9A5851607047A87500005C
:104EF00001468800024A1058406880B2704700009E
:104F0000A875000010B50446204600F019F8A0006E
:104F10000A4908580068A100084A51580860A000D2
:104F200011460858006818210843A100515808602C
:104F30000020A1005158486010BD0000A875000075
:104F400010B50446002C04D0012C1AD0022C48D1F4
:104F50002FE025484069202108432349486108463D
:104F6000C0680321090688431F49C860202002F059
:104F700003F81D48C0680121090608431A49C860A2
:104F80002FE0194840694021084317494861084605
:104F9000C0680321890688431349C860272001F0AF
:104FA000EBFF1148C0680121C90608430E49C860DB
:104FB00017E00D484069802108430B4948610846C5
:104FC000C0680321090788430749C86000200749D2
:104FD000C860052001F0D0FF0348C0680249C860DE
:104FE00000BF00BF10BD00000080044040A003408F
:104FF000F8B504460F461646002C04D0012C0ED0FE
:10500000022C24D117E06100164A515A491C714301
:1050100008467D21C900FBF7BFFA054618E061008C
:10502000104A515A491C714308467D21C900FBF7BB
:10503000B3FA05460CE061000A4A515A491C714313
:1050400008467D21C900FBF7A7FA054600E000BF2E
:1050500000BFA000044908580C30F9004018456012
:10506000F8BD000044F0FF1FA8750000FFB583B035
:1050700004460E463146204600F08AF84148006852
:105080007D21C900484302900299080C0599FBF75D
:1050900083FA0546002701E0781CC7B2284638414C
:1050A0000128F9DA072F01DD07B0F0BD0299F940B8
:1050B00008460599FBF770FA85B2600032490D5237
:1050C000002C04D0012C0ED0022C24D117E029464C
:1050D000491C069A514308467D21C900FBF75CFA3A
:1050E00080B2019018E02946491C069A51430846AF
:1050F0007D21C900FBF750FA80B201900CE02946EF
:10510000491C069A514308467D21C900FBF744FA21
:1051100080B2019000E000BF00BFA0001B4908580A
:105120008560A00008580C30F100415804208143EC
:10513000A000164A10580C30F20081502821A0001F
:10514000124A10580C30F20081507807400F083096
:10515000A1000E4A51580860022C03D10020A10082
:105160005158C864A000094A10580C30F200801849
:10517000019941600020A100044A5158486000BFD5
:1051800092E7000024F0FF1F44F0FF1FA875000005
:1051900000B5002804D001281FD002281CD139E016
:1051A000474A526920231A43454B5A61002902D0CD
:1051B000012910D107E0424AD268FF2301339A4304
:1051C0003F4BDA6007E03E4AD26801235B029A4314
:1051D0003B4BDA6000BF00BF6FE0394A52694023A1
:1051E0001A43374B5A61002902D0012910D107E038
:1051F000334AD26801239B021A43314BDA6007E03D
:105200002F4AD2680123DB029A432D4BDA6000BF9C
:1052100000BF52E02A4A526980231A43284B5A6140
:105220000B00FCF79DFF0604111E2B384048244A52
:10523000126992089200224B1A611A4612690123E0
:105240001A431F4B1A6136E01D4A12690C239A4318
:105250001B4B1A611A46126904231A43184B1A6130
:1052600029E0174A126930239A43154B1A611A46EE
:10527000126910231A43124B1A611CE0104A12697A
:10528000C0239A430E4B1A611A46126940231A43EF
:105290000B4B1A610FE00A4A1269FF2301339A434C
:1052A000074B1A6107E0064A126901235B021A43A1
:1052B000034B1A6100BF00BF00BF00BF00BD00006C
:1052C000008004407CB5054629494968087801AB4F
:1052D00004220D21FDF73CFE002801D007207CBDF3
:1052E00068460079E0210840C1106846C079302244
:1052F000104000110143684601704079E0210840E8
:10530000C1106846C0790C221040801001436846E5
:1053100041708079E0210840C1106846C07980075B
:10532000800F01436846817000241CE06846005DE0
:10533000002802D1A100685013E00E48A100685077
:1053400006E0A10068580C4902F036F8A100685048
:105350006846005D401EC0B2694608550028F0D17D
:1053600000BF601CC4B2032CE0DB0020B7E70000E4
:105370008CF0FF1F7B14AE3E1D5A843F00B587B0F2
:105380001822294901A8FAF7F5FE2848284908609B
:105390002848007838221040C008401D400001AA6B
:1053A000115A23480068FBF7F7F8214908602148A3
:1053B0004078E02210404009400001AA115A1C48E0
:1053C0000068FBF7E9F81A4908601B48406A0322A5
:1053D00012071040000F411C15480068FBF7DCF86D
:1053E000164908601448406A012212061040000E57
:1053F000411C12480068FBF7CFF8114908600E48BD
:10540000406A012212051040000D411C0848006846
:10541000FBF7C2F80B490860E1214902022001F0C4
:1054200095FE07B000BD00009075000000803801B7
:1054300020F0FF1F004006400080044028F0FF1FBE
:105440002CF0FF1F24F0FF1FF0B58BB005460C4673
:105450001746012108A8017000214170FE4800682C
:10546000817CFD484068007808AB02220590FDF77A
:10547000EFFE002803D00020C0430BB0F0BDC820D1
:10548000FEF742FA002008A90870F3480068C17BC3
:10549000F1484068007808AB01220590FDF7D8FE7E
:1054A000002802D00020C043E7E7EB4800684179BC
:1054B000E9484068007808AB01220590FDF7C8FE76
:1054C000002802D00020C043D7E7E3480068817C71
:1054D000E1484068007808AB01220590FDF7B8FE6E
:1054E000002802D00020C043C7E7DB480068C17D28
:1054F000D9484068007808AB01220590FDF7A8FE66
:10550000002802D00020C043B7E7D34800680179E3
:10551000D1484068007808AB01220590FDF798FE5D
:10552000002802D00020C043A7E70C2008A908707B
:10553000C94800680179C8484068007808AB012272
:105540000590FDF785FE002802D00020C04394E7B7
:105550000F20FEF7D9F9C048806A407A08A9087080
:10556000BD4800688178BC484068007808AB0122DB
:105570000590FDF76DFE002802D00020C0437CE7B7
:10558000B548806A007A08A90870B3480068417875
:10559000B1484068007808AB01220590FDF758FE3D
:1055A000002802D00020C04367E7002F07D0AA4898
:1055B000806A807AE021084308A9087004E0A648C0
:1055C000806A807A08A90870A34800688179A24897
:1055D0004068007808AB01220590FDF739FE0028ED
:1055E00002D00020C04348E7002F07D09A48806AC5
:1055F000C07AE021084308A9087003E09748C07A00
:1056000008A9087094480068C179934840680078F8
:1056100008AB01220590FDF71BFE002802D00020F8
:10562000C0432AE7002F02D0C820FEF76DF94020C2
:1056300008A90870884800680179874840680078A0
:1056400008AB01220590FDF703FE002802D00020E0
:10565000C04312E7782008A908707F4800684179A4
:105660007D484068007808AB01220590FDF7F0FD09
:10567000002802D00020C043FFE678498889FEF761
:1056800043F9002008A908707348006841797248FE
:105690004068007808AB01220590FDF7D9FD00288D
:1056A00002D00020C043E8E66B480068817A6A486F
:1056B0004068007808AB02220590FDF749FC0028FD
:1056C00002D00020C043D8E608A908780002497833
:1056D000084306900C210698FAF768FFC6B200202E
:1056E000A86068602860A0606060206007906BE040
:1056F00059480068C17A58484068007808AB0C22C5
:105700000190FDF725FC002802D00020C043B4E63C
:1057100008A80078010208A84078014309B2684649
:10572000018208A88078010208A8C078014309B264
:105730006846418208A80079010208A8407901431F
:1057400009B2684681821022825E21688818206032
:1057500068461222825E616888186060684614227A
:10576000825EA1688818A06008A88079010208A854
:10577000C079014309B26846018108A8007A010294
:1057800008A8407A014309B26846418108A8807A96
:10579000010208A8C07A014309B268468181082243
:1057A000825E29688818286068460A22825E6968D5
:1057B0008818686068460C22825EA9688818A8600C
:1057C0000798401CC0B207900798B04290DB23486E
:1057D000006803902868C117020C090411430004F3
:1057E000019100900023039AFAF701FD324600234D
:1057F00005910490FAF7FBFC2860184800680390B4
:105800006868C117020C090411430004019100905B
:105810000023039AFAF7EBFC32460023059104902B
:10582000FAF7E5FC68600D4800680390A868C117A6
:10583000020C090411430004019100900023039A13
:10584000FAF7D5FC3246002305910490FAF7CFFC15
:10585000A8600248406803E08CF0FF1FE875000074
:1058600003902068C117020C090411430004019140
:1058700000900023039AFAF7BAFC32460023059100
:105880000490FAF7B4FC20601D48406803906068FB
:10589000C117020C09041143000401910090002378
:1058A000039AFAF7A4FC3246002305910490FAF714
:1058B0009EFC6060124840680390A068C117020C0B
:1058C000090411430004019100900023039AFAF7A0
:1058D0008EFC3246002305910490FAF788FCA06004
:1058E000A068002805DD01210904A068401AA06015
:1058F00004E001210904A0684018A0600020BCE574
:10590000E87500000CB501464B110193CB06DB0E88
:105910000093684600798000044B18580269684675
:1059200003781046D840C007C00F0CBDB475000006
:105930003CB503465D110195DD06ED0E0095002A8C
:1059400000D00122002925D16C462479A4002E4DD7
:105950002C59A0696C4625780124AC400546A54326
:1059600028466C462479A400274D2C59A0616C462A
:105970002479A4002C5960696C4625780124AC4038
:105980000546A54328466C462479A4001E4D2C5993
:10599000606137E06C462479A4001B4D2C59A06946
:1059A0006C4625780124AC4020436C462479A40041
:1059B000154D2C59A0616C462479A4002C596069BE
:1059C0006C4625780124AC4020436C462479A40021
:1059D0000D4D2C5960616C462479A4002C59206827
:1059E0006C4625780124AC400546A54328466C4604
:1059F00025781446AC4020436C462479A400024D1F
:105A00002C5920603CBD0000B47500001CB5441149
:105A10000194C406E40E00946B461C780123A34055
:105A20001A46002906D06B461B799B00054CE358AB
:105A30005A6005E06B461B799B00024CE3589A6064
:105A40001CBD0000B47500000CB543110193C306E2
:105A5000DB0E00936A46137801229A4011466A468B
:105A600012799200014B9A58D1600CBDB4750000B8
:105A7000F0B587B006460F4600253E4840680078DE
:105A800006AB03220D210290FDF762FA002802D036
:105A9000072007B0F0BD6846007EC106C90E684603
:105AA0000176407EC106C90E68464176807EC106F9
:105AB000C90E68468176002458E0A0003058A10045
:105AC0007958401A0290002801DB029901E00299FE
:105AD00049420846FBF752FC8F21C9050190FBF7AC
