:020000040000FA
:1000000090030020930100009F010000A101000067
:1000100000000000000000000000000000000000E0
:10002000000000000000000000000000A30100002C
:100030000000000000000000A5010000A53D000038
:10004000A9010000A9010000A9010000A901000008
:10005000A9010000A9010000A9010000A9010000F8
:10006000A9010000A9010000A9010000A9010000E8
:10007000FD3E0000A9010000A9010000B519000023
:10008000A9010000A9010000A9010000A9010000C8
:10009000A9010000A9010000753500009D35000090
:1000A000A9010000A9010000A9010000A9010000A8
:1000B000A9010000A9010000A9010000A901000098
:1000C00000F002F800F038F80CA030C80838241806
:1000D0002D18A246671EAB4654465D46AC4201D180
:1000E00000F02AF87E460F3E0FCCB646012633427A
:1000F00000D0FB1AA246AB4633431847A4C4000005
:10010000C4C400000023002400250026103A01D3B7
:1001100078C1FBD8520700D330C100D50B607047BF
:1001200010B5642902D100F09BF810BD002010BD6D
:100130001FB51FBD10B510BD01F0BAFB1146FFF78A
:10014000F7FF07F059F901F0D2FB03B4FFF7F2FF14
:1001500003BC03F0DCFF000070B505460C461646F4
:1001600002E00FCC0FC5103E102EFAD2082E02D39B
:1001700003CC03C5083E042E07D301CC01C5361FAE
:1001800003E021782970641C6D1C761EF9D270BDC5
:100190007047094880470948804709480047FEE7FB
:1001A000FEE7FEE7FEE7FEE7FEE70000054806493A
:1001B000044A064B70470000F93D00009101000021
:1001C000C100000090020020900300209002002057
:1001D000704770B500252C46AD1A9C4112DA0025F7
:1001E0002C462D1A8C4102DA01F034F970BD00243E
:1001F00040428C41214601F02DF9002440428C41BF
:10020000214619E000252C462D1A8C410ADA0024DB
:1002100052429C41234601F01DF9002440428C418A
:10022000214670BD002452429C4140422346002496
:100230008C41214601F00EF9002452429C41234694
:1002400070BD00000FB4054910B503AA029801F073
:10025000FDF910BC08BC04B01847000094F0FF1F63
:10026000F7B5002575291068009914A611D0C0466D
:10027000C046002802DA404211A608E00099096849
:100280008A0701D50FA602E0490704D50EA601256D
:1002900001E0C046C046009F0024243704E001F07E
:1002A000E9F930313955641C0028F8D12B46324623
:1002B0002146009801F05AF9FEBD00000000000040
:1002C0002D0000002B00000020000000034610B5A8
:1002D0000B439B070FD1042A0DD308C810C9121F66
:1002E000A342F8D018BA21BA884201D9012010BD22
:1002F0000020C04310BD002A03D0D30703D0521CF6
:1003000007E0002010BD03780C78401C491C1B1B23
:1003100007D103780C78401C491C1B1B01D1921E8D
:10032000F1D1184610BD000030B5441C03E001783F
:10033000401C00290DD08107F9D10B4BDD0104C809
:10034000D11A91432940FAD0001B0A0603D0C01EDF
:1003500030BD001B30BD0A0401D0801E30BD090233
:10036000FCD0401E30BD000001010101D2B210B529
:1003700013029A1813049A1800F00EF810BD01E049
:1003800004C0091F0429FBD28B0701D50280801C01
:10039000C90700D00270704700290BD0C30702D0F4
:1003A0000270401C491E022904D3830702D5028033
:1003B000801C891EE3E70022EEE70022DFE770479A
:1003C000704770470102C21504D00123DB071943AF
:1003D000002A0ADB9E239A1A02D40846D0407047AE
:1003E000FF2241001206914201D900207047C01738
:1003F000C04370477047000000487047300200203B
:10040000FFFFFFFFFFFFFFFFFFFFFFFFFFFFFEFEFE
:10041000F3B50446002081B020622046E168884799
:10042000002872D0252802D06268A168ABE0594F3D
:1004300000267F442046E16888472028054608DBDF
:10044000312D06D2781920380078002801D00643D3
:10045000F0E7B00701D5042086430020E06107469D
:10046000A0612A2D0AD0284603F04AFE002827D092
:10047000B8000019303D0090856119E00298BA007B
:10048000121902C8916102902046E1688847012F45
:10049000054617D1E06900281FDA202086431CE0BA
:1004A00000980A21806948430099401930388861D2
:1004B0002046E1688847054603F022FE0028EFD178
:1004C000012F0AD02E2D08D12046E1688847054625
:1004D000202006437F1C022FC3DBA069002803DA1B
:1004E0004042A06101200643F00701D0102086435E
:1004F0006C2D0BD0682D09D04C2D3CD06A2D38D0F6
:10050000742D38D07A2D36D016E040E0E1682F46C1
:1005100020468847B842054609D16C2F29D00120D2
:100520008002E168064320468847054604E06C2FB8
:100530001DD0FF2001300643002D28D02846413829
:10054000192803D80120C002064320352046266022
:100550002946029A1646FFF7E3FD002810D001282D
:100560000BD0F61DF008C0000830029055E740207F
:10057000E1E78020D5E70020D3E7361D02964CE75F
:1005800062682846A1689047206A401C44E7206AB8
:10059000FEBD00000EBD0000002203098B422CD3DB
:1005A000030A8B4211D300239C464EE003460B43C3
:1005B0003CD4002243088B4231D303098B421CD325
:1005C000030A8B4201D394463FE0C3098B4201D317
:1005D000CB01C01A524183098B4201D38B01C01A4F
:1005E000524143098B4201D34B01C01A52410309C6
:1005F0008B4201D30B01C01A5241C3088B4201D375
:10060000CB00C01A524183088B4201D38B00C01A21
:10061000524143088B4201D34B00C01A5241411A48
:1006200000D201465241104670475DE0CA0F00D02B
:100630004942031000D34042534000229C46030924
:100640008B422DD3030A8B4212D3FC22890112BAAA
:10065000030A8B420CD3890192118B4208D3890182
:1006600092118B4204D389013AD0921100E089099A
:10067000C3098B4201D3CB01C01A524183098B427B
:1006800001D38B01C01A524143098B4201D34B0164
:10069000C01A524103098B4201D30B01C01A5241C7
:1006A000C3088B4201D3CB00C01A524183088B424E
:1006B00001D38B00C01A5241D9D243088B4201D3D7
:1006C0004B00C01A5241411A00D2014663465241C2
:1006D0005B10104601D34042002B00D549427047C1
:1006E00063465B1000D3404201B50020C046C046BF
:1006F00002BD00000246C80FC00781434B0030B561
:100700004B405B009B0D20D01923DB06C918012349
:100710001B05994220DB0324A40704251346AB40A4
:100720000BD3002B04D1EB0613409B00E34204D40F
:1007300001246407002312195941FF231B05994224
:100740000BD2C9000143500F09E0CB0204D501438D
:100750000803024305D0054830BDFF21C905084301
:1007600030BD084607210905884330BD0000C07F21
:10077000F0B50C46871A9C410D46861A9D4103D25E
:10078000C01BA141D21963410D0D1F0DC94EEC1BB9
:10079000AE435CD07F057F0D0026002F51D02D0584
:1007A000AC46A943DD020123ED0A1B051D432023AE
:1007B0001B1B24D41746E740381871412F46E740E9
:1007C000CC199D402818314661410C0D27D1614458
:1007D0009A4013D50023401C594152000ED14008C5
:1007E000400001224B005205D34207D305204007A9
:1007F000C14201D5B04900E0B0493046F0BD6B00C0
:10080000002A00D001229A181F23203C1B1B01D56F
:10081000002302E0E540281871410C0DD7D00124D7
:1008200024050919C407CD0740084908E40F2843E7
:100830006144002CD5D00024401C61419A40D0D1A5
:10084000CDE76A05520DD9D1C90FC907D5E79C4D2F
:100850004E00002801D0012400E0002434195F007C
:10086000002A01D0012600E00026BE19954FAC42B7
:100870000CD8AE420AD8B44206D001256D05EC4230
:10088000BCD010461946F0BD9942FCD00020394634
:10089000F0BDF0B51FB40C460F46811A9F412546A6
:1008A000861A9D4106D20125ED076F40401ABC41D2
:1008B00052187B41210D1E0D8D1BAC467D4D8D4385
:1008C0007ED075056D0D7CD00D05AE46AC431B0387
:1008D0001B0B794D52429D41202366469B1B14D32E
:1008E0001746F740381800260090744160462F469E
:1008F0000741E41900989D402818664116D47146B6
:1009000071189A4025D5012320E093182A466A41A0
:100910005200002B00D0521C1E23203E9B1B002B9C
:1009200061DD3541EE1728186641E8D5001876419B
:100930005B1C9A4000D3401C4B05F3181524E34080
:1009400010D3002B52D071467118D30FC01802D3A8
:10095000491C05B0F0BD0123DB079A42F9D14008DC
:100960004000F6E701225205B21801D1002853D009
:100970000123CC0ADB029943891E002A08D1020C0C
:1009800003D0020C0004103902E002460020203996
:100990000023550B05D112020823550B01D152013A
:1009A0000D23550C01D112011B1DD50C01D1920054
:1009B0009B1C150D01D152005B1C2025EE1A01E095
:1009C0002CE022E00546F54015439840CA1AE1079D
:1009D00069181305C918002ABBDA03204007081854
:1009E000C10FC9070FE071466118B2E7F10740086F
:1009F0000843711071444A000CD001235B059A42F0
:100A0000A7D2C90FC9070020A3E74905490D26D180
:100A1000002001E00028F4D100219AE7284D66006B
:100A2000002801D0012100E0002171185F00002A98
:100A300001D0012600E00026BE19224FA94210D89D
:100A4000AE420ED8B14208D001256D05E94206D06C
:100A50001946A802414010467BE79C4201D021463E
:100A600077E70020394674E710B50C465C4005D5A1
:100A70000124E4076340FFF70CFF10BDFFF778FE89
:100A800010BD30B40C465C4004D50124E40763403B
:100A900030BC6DE630BCFCE670B50124E407614073
:100AA0000D465D4002D4FFF763FE70BD6340FFF763
:100AB000F0FE70BDFF0700000000F0FF0000F07FB7
:100AC0000000E0FF0000F87FF0B5F94D0C091E09A9
:100AD0002C402E402F468BB0A7437DD0B543FCD091
:100AE000002E7AD0002CFCD00D465D40ED0F254342
:100AF000AC1BFF25AD0464190894C502440DC9025E
:100B00002143500DDC0204430120C007014304438C
:100B1000D2020191200C110C00958C460104234651
:100B20008B430A9161460904E24D8A430991010A07
:100B30007D4449198039097805464D4301266D18D1
:100B4000F605751B6943C90C640B891C4C4364187A
:100B5000B5012C1B250C2E04B4434C434D43210CF2
:100B6000691889090591009DE90701D00121C9078C
:100B700004912C4601996708CD072F434C08059D29
:100B8000E10B4D432D0C29466646754302950D46F3
:100B900045432E46029D7D1BB44100950D465D43A5
:100BA00001942C0C2F040D465543AE462D0C3D43AD
:100BB000029503947546049C2D04641B049406D28C
:100BC000029C039D641C002675410395029401ACB0
:100BD00070CC009F7D1B01E03EE162E1B44109045D
:100BE0000095079101940599A4086143090C0C46EE
:100BF0004443650BE7040C4666467443A646640B03
:100C00003C43039502947446049DE4042C1B049415
:100C100006D2029C039D641C002675410395029434
:100C200001AC70CC009F7D1BB44101940C465C4329
:100C30000095650FE7000C465443A646640F3C43FD
:100C4000039502947446049DE4002C1B049406D280
:100C5000029C039D641C002675410395029401AC1F
:100C600070CC009F7D1BB441AE09AF06049DC90046
:100C7000AD092F43049DA406AD060495079D34439A
:100C800069180791059DE10B4D432D0C29466646D9
:100C9000754302950D4645432E46029D7D1BB4418A
:100CA00000950D465D4301942C0C2F040D465543D1
:100CB000AE462D0C3D43029503947546049C2D04CD
:100CC000641B049406D2029C039D641C002675419B
:100CD0000395029401AC70CC009F7D1BB44101943C
:100CE0008C050694079C890A611800950791019C60
:100CF0000599A4086143090C0D464543680BEF04B0
:100D00000D46644665436C0B3C43049FED047D1B1C
:100D1000AC4602D20025641C6841009E019D371B31
:100D200085410846584301950C46460FC50054437B
:100D3000600F28436546E4002C1B02D20025401CAE
:100D40006E41019D3F1AB5412846BD0980062843E2
:100D50008446A009BF064E020699A40676180743EA
:100D6000079D002068410A99079019430020099BBC
:100D700000906046FF1913434041E20F64003A437C
:100D8000A4460446D71A8C41A04203D90120009002
:100D900020463A46C70F941840416246D20F22437C
:100DA000644664000494009CBE466400D71AA446BE
:100DB000044602978C417746002F01D1A04204D906
:100DC0006046401C8446029A2046C40FA6469418EA
:100DD0004041049A0546D20F224364466400D31A68
:100DE0008D417146002901D1A84202D928461A46F0
:100DF000641C10430122002800D016436102002029
:100E0000079B891904465C410223002C02DB491828
:100E100013466441089DCE0A2D145D194B056705E4
:100E2000E10A2C050D1908993E43C9076940002BBA
:100E300008D0934006D30022761C5141002B01D1EB
:100E4000760876001C4A002D43DB154241D0AA43A8
:100E50003FD030460BB0F0BD06180D464D41174C43
:100E60007642AC411AD395181C465C41134A6D4238
:100E7000A24113D3012252054C00D4420AD15C0096
:100E8000D4420BD04B4002D592021143E2E7490015
:100E90004908DFE75940C90FC90718E00020084991
:100EA000D8E7054801420DD10342F7D0F2E7000030
:100EB0000000FF0721B600000000F07F0000E0FF07
:100EC0000000F87F114859400143C0124140002002
:100ED000C0E70123089A9B069A4205DC03225207C9
:100EE0008918C90FC907B5E7052252078918074AAB
:100EF0001143D2125140ADE770B515461C4602466B
:100F00000B4628462146FFF7DFFD70BDFFFFFF7F40
:100F10001F22030C02D10F22000402D0030E03D0C3
:100F200004E00020014670470002083A030F01D197
:100F30000001121F830F01D18000921E002801DBE7
:100F40004000521E120551184205C01241181046A9
:100F50007047C10FC90700D04042012292071143D8
:100F6000D6E701218907D3E7F0B58B4C0F09254659
:100F700089B0BD437BD01D092646AE43FAD00E464C
:100F80005E402740F60F3E43254071D024012142A8
:100F9000FBD0FF24AD19A4042D1B039501252D05BD
:100FA000DB02DB0AC9022B43C90A29431E010901DE
:100FB000040F130F050121431701880B820391438E
:100FC0002D098C46A90B1E438A039543B30B9A0344
:100FD00096433F09BA0B9403A74302962E467E43DD
:100FE0000497B6464E19D7190C46019654430597F7
:100FF0007E43371B7646BF1B3601B646BE0B3619FD
:1010000000967646BC043719009C01D3641C0094FA
:101010006400002F01D001263443029E049F7543D3
:1010200066467E430496760034196E0034190094A7
:10103000029C019E1C196643751BAE4606946546CC
:101040004519059C05956C43594375460891691AE5
:101050000191049E01465143A41B0491611A009C16
:101060000791E10605D061090122114302E072E017
:101070006EE06109089D00272C0A2D066918049D61
:101080007C412A0A2D066918019D6241AC0DAD0212
:101090006D185441079A910D920255196141029AB7
:1010A000644658435443069B059A5A43121A131B2D
:1010B0009A0E9B015B187A41010B0005C318514140
:1010C000220A200644195A419A4200D2491C0120A2
:1010D0004002814203D315230226F64302E0142383
:1010E0000326F6432020C51AA9401746AF40DA4030
:1010F0000A4320460399D84009147318190551185A
:10110000039A3843D2075140AC4009D001229440A1
:1011100006D30022401C5141002C01D14008400060
:101120001E4A934212D3012203989206904207DB93
:101130000520400709181A480143C012414004E045
:10114000032040070818C10FC907002009B0F0BDEF
:101150000020F107FAE705180C464C4111486D4292
:10116000A04115D394181A465A410E486442904142
:101170000ED301204A004005824209D35A00824220
:1011800006D35940C90F084AC90700201143DDE7BB
:1011900000200649DAE700000000FF07FE07000014
:1011A000FFFFFF7F0000E0FF0000F07F0000F87FFE
:1011B0000121C9050123411842001B06D3185B0E0B
:1011C0000AD0C1100722D206891840075242D142E4
:1011D00001D5520089187047090208D50146002A36
:1011E00003D0C10FC9070020704710467047420264
:1011F00002D0002002497047072109050143F4E7A6
:101200000000F87FF0B5FF252D04C609C209FF27AD
:1012100004462E400137CB093E4348402A402B402C
:101220000746002A6BD0002B69D0AA4267D0AB4298
:1012300065D0002800DA32460125ED0529432C430C
:1012400009022002090AD21A4B0C7F24E31A434CEC
:10125000000A7C44E35C7D242404121914145B000E
:10126000A218884201D3521C00E0400049420C46BB
:101270005C4324115C43DB016415E318040A5C43FE
:10128000C502200D0C4644436419250A5D4323031F
:10129000EC0C0D46654300030019EB184C42A342C9
:1012A00001D35B18401CD4052018002B07D05B002D
:1012B000C91804D3401C002901D1400840003F2137
:1012C00089048A4209D3002A08DC1106090F04D0D8
:1012D000032149074018C00FC007F0BD012241009B
:1012E000120689187F2252069142F6D2052149073B
:1012F000C84201D59010F0BDFF20C005F0BD002F01
:1013000000DA32461648AA4207D2AB4205D2190289
:10131000090E17D0F80FC007F0BDFF2563002D069A
:10132000AB42F9D84900A942F6D8AB4201D1A94253
:10133000F2D0A94201D1002101E061004908D005A5
:101340000843F0BD1102090EFBD0FF200243D00577
:10135000F0BD0A460146104654E700007FAF00008A
:101360000000C07F10B501469E240002CA15A307E5
:10137000002A02D01843002A04DBA21A002A0CDD3E
:10138000D04010BD1206120E01D140004008A21A32
:1013900003D4D04040420028F3DDFF22480012066B
:1013A000904201D9002010BDC817C043584010BD5D
:1013B0001F22030C02D10F2200041CD0030E01D106
:1013C0000002083A030F01D10001121F830F01D15F
:1013D0008000921E002801DB4000521ED2055118E9
:1013E000021251181922904004D3491C002801D13F
:1013F0004908490008467047C10FC90700D040425C
:10140000012292071143D3E701218907D0E70000A9
:1014100010B5FF22C30D134009D05A4007D09142A6
:1014200005DA5C42A14202DDC905081810BDC40FEF
:10143000E407002B06D0002A06D0002902DBFF209B
:10144000C0050443204610BD4102FCD0004810BD39
:101450000000C07FFEB5054610460C46184373D009
:10146000AE468C460020AD1A01469C4167D36646C5
:10147000002701243D46B61A9D4102D313463A4641
:101480002124654676462F04360C3E432D0CB61AB1
:101490009D4104D3150C1B042B43120410346546E4
:1014A00076462F06360A3E432D0AB61A9D4104D3CE
:1014B000150E1B022B4312020834654676462F0791
:1014C00036093E432D09B61A9D4104D3150F1B0161
:1014D0002B431201241D65467646AF07B6083E43EE
:1014E000AD08B61A9D4104D3950F9B002B43920083
:1014F000A41C65467646EF0776083E436D08B61A8B
:101500009D411AD392185B41641C16E00018764680
:1015100065464941B71A9D410191009009D3604643
:10152000B11A98418E468446009801990025401CC6
:101530006941DD0752082A435B08641EE6D57246FE
:10154000634603B0F0BDFFE700200146C046C04639
:101550002A462346F5E710B5FEF74EFF006810BD9A
:1015600010B50446FEF748FF046010BDFFB5044601
:101570000D4681B0243000902168880604D51022E1
:10158000E0699143216000E00120A84201DD471B92
:1015900000E000270498A1697A191018081AA061C0
:1015A0002078C00602D42046C046C046002608E087
:1015B00003986268A168805D9047206A401C761C91
:1015C000206204988642F3DB2078C0060AD52046C4
:1015D000C046C04606E06268A16830209047206A95
:1015E000401C206238467F1E0028F4DC07E000988B
:1015F0006268A168405D9047206A401C20622846CE
:101600006D1E0028F3DC2046C046C0462078000648
:1016100002D5022005B0F0BD0120FBE701694A1C9C
:1016200002610878704700B58FB0029100210591E2
:101630000549019379440391114604906846FEF7E9
:10164000E7FE0FB000BD0000E5FFFFFF084B70B5DF
:101650000D467B44FFF7E7FF0446284600F080F87C
:10166000002802D00020C04370BD204670BD00009D
:101670006F4F000001468008081A02091018020A7C
:101680001018020C1018C008820012185200891A93
:1016900001E0401C0A390A29FBD2704770B50546A3
:1016A0004800440D124B0020002C0AD0634008D0A3
:1016B0009A4206DA6642B24203DD120540195141F0
:1016C00070BD002C08D0002B09D0C90FC907002A13
:1016D000F6DB084A114370BDC90FC90770BD284623
:1016E0000A03104302D00020034970BD284670BD94
:1016F000FF0700000000F07F0000F87F10B5FF2317
:101700001B0644009C421DD84C009C421AD803463C
:10171000124A0B4307D4401A02D3EFF3008010BDE6
:10172000EFF3008010BD081A06D2EFF3008001210C
:101730009043C907084302E0EFF30080904380F331
:10174000008810BD0D231B041A4204D0114600204E
:1017500000F00AF810BD00F09FF810BD00000090E6
:10176000C068802108407047C80212D54803400F66
:10177000002804D0C803C043012188407047EFF31C
:1017800000800001000903210907084380F3008855
:101790007047002070470000F0B53D4B02460C46F4
:1017A0001C400020002C63D03A4D8B4366D00029AA
:1017B0006BDB0B0D1D05A94301252D0529430124D4
:1017C000FD33E34001D392184941FF3381339C46F6
:1017D0008B02940D0121234389074C42920200277A
:1017E0001B198C105D1A04D42D1B02D42B466500E6
:1017F000491992185B416408F4D15C1A08D4012598
:10180000ED07EE175519744102D42A462346491CA8
:1018100094185B41012292071D46E61B8D4106D4B8
:10182000B61A854103D42B46550034467F19241936
:101830005B415208802AEFD1234300D0022338466F
:101840000A22D04001D3012213438A051043624685
:10185000890A12058918002B09D00122D34002D32E
:101860000022401C5141002B01D140084000F0BD36
:101870000B03134307D0C90FC907F0BD080310437A
:1018800003D1002901DB1046F0BD00202946F0BD40
:101890000000F07F0000F87F10B5024800F02FF83C
:1018A00010BD00000000C07F0048704730020020DB
:1018B0007546FFF7F9FFAE46050069465346C00876
:1018C000C000854618B020B5FEF770FC60BC00274C
:1018D0004908B6460026C0C5C0C5C0C5C0C5C0C5FC
:1018E000C0C5C0C5C0C5403D49008D46704710B554
:1018F0000446C046C0462046FEF727FC10BD10B582
:101900000C461107090F092904D00A290AD0082911
:101910000CD104E011460820FFF726FF06E051062F
:1019200006D501E0510601D50120C007214610BDB2
:10193000D10607D501010909CC084907000E0006A8
:10194000044309E0410F20024907000A0143200E29
:1019500000061D22D14101430846E7E770B58C1807
:101960000578401C6B075B0F01D10378401C2A11DE
:1019700006D10278401C03E00678401C0E70491C1A
:101980005B1EF9D12B0705D40023521E0DD40B701A
:10199000491CFAE70378401CCB1A921C03E01D781F
:1019A0000D70491C5B1C521EF9D5A142D8D30020F2
:1019B00070BD000030B5094A0020064C0649137876
:1019C00004E022694500401C4A53C0B29842F8D353
:1019D00030BD000000B0034004F6FF1F78F0FF1F89
:1019E00070B50E4CA168E06D07F0ECF905460420D7
:1019F000205EFFF701FD01462046803804688068BC
:101A000007F050F906462946204607F04BF93146C3
:101A100007F0D8F90249486270BD000098F5FF1F31
:101A200000F0FF1F70B5284CE088401CE080208843
:101A3000401C208000F0D8FA6088401C608000F0D4
:101A40009BF8E0880025030002F0C4FA063804077A
:101A50002427323802F0F2FE70BD2089401C80B28B
:101A600020811428F8D325812580A088184A401C9D
:101A700000B2A080154C616E914208DA2821401C0A
:101A800048431421FEF792FDFFF7B6FC606600F0B4
:101A900025FA70BD03F0D8FC70BD6089401C0004BD
:101AA000000C6081F8D06581658000F015F870BD8C
:101AB000FFF796FF00F07CF8E58070BD658125801A
:101AC00025816580F8E7000000F0FF1F98F5FF1FF3
:101AD0000000204270477047F0B5244C244F656DDC
:101AE00085B02846796B07F06DF901900420205EDF
:101AF0002A30FFF781FC0390204629461430019AD2
:101B000004F0A6FEE06B1B490E028842E06B00D396
:101B100070400290606C8842606C00D3704000900E
:101B2000F86938620399B86A07F0BCF80390009925
:101B3000019807F0B7F8009028467040029907F026
:101B4000B1F8009907F03EF9039907F03BF8F86106
:101B50008121606DC905884205DA7F21C905C84227
:101B600001D20020F8617D6305B0F0BD98F5FF1F3C
:101B700000F0FF1F0000808070B50B4C216AE06907
:101B80000D4607F01FF906466088401CFFF73CFC35
:101B9000314607F087F80549FFF734FB294607F07F
:101BA00011F8A06170BD000000F0FF1F0000A04010
:101BB000F8B52A4EF168706A07F004F8B169054675
:101BC0000F4607F0FFF8FFF7CDFB04B22846394671
:101BD00006F0F8FFFFF7C6FB05B2002C01DD0A3462
:101BE00002E0002C01DA0A3C24B2002D01DD0A35A6
:101BF00002E0002D01DA0A3D2DB219492820085EC5
:101C0000424211B2A04201DA044602E0A24200DDE3
:101C10000C46A84201DA054602E0AA4200DD0D4664
:101C20000F48803884850746C5854037F96DB86808
:101C300007F0C8F80B49884202DC0B49884207D9F3
:101C40000021084602F0F4FF0020B0807866F8BD5D
:101C50002946204602F0ECFFF8BD000000F0FF1F0F
:101C6000D8F5FF1F0000F041000010C1F8B52A4C64
:101C700000257F2065658002A5652746803F0168B5
:101C80003960416879608168B960C168F96001694B
:101C90003961416979618169B961C169F961006A34
:101CA00038621E482E46E0621D49A6626162A0614C
:101CB0001C4860611C48E0631C4860641C48E66482
:101CC000A0641C4820652046143004F063FFFD2208
:101CD00052026801C0190146068720310E734E7307
:101CE0006900C685891846630B8803866D1C898840
:101CF000EDB24186022DECD3074819214038868584
:101D0000C685068646867E67BE6749018030666660
:101D100001850948E065F8BD98F5FF1F00002041E6
:101D2000CDCC4C3F0000B4420000404000003443A2
:101D30000000A0400000A5436666D640704770478B
:101D400010B5012002F044FF10BD0000FEB5594C53
:101D5000594FA089002815D15C4958A08861786E38
:101D6000A062084601F006FA20462C3000F065FD1E
:101D70002046443000F061FD20465C3000F05DFDFF
:101D80000120A0815248182500780C26012824D073
:101D900003282DD007284ED0092858D004287AD0FF
:101DA000444801212C3000F098FC42480121443085
:101DB00000F093FC0C2347A210210A20009506F0A6
:101DC00069FCA06AFEF7FEFA0246022310215820A1
:101DD0000096019506F0CAFBFEBD364800212C3066
:101DE00000F07BFC7F21C905A06A06F0EBFE2CE029
:101DF000304800212C3000F070FC7F27FF0514E0F4
:101E00003946A06A06F0DEFEA0620A2003F0C4FB99
:101E1000A06AFEF7D7FA0246022310215820009646
:101E2000019506F0A3FB01F013F93F2005F0B6F988
:101E30000028E5D0BEE71F480021443000F04DFCEB
:101E40007F21C905A06A06F0BDFFA062B2E719486C
:101E50000021443000F041FC7F27FF0514E03946A3
:101E6000A06A06F0AFFFA0620A2003F095FBA06A0B
:101E7000FEF7A8FA02460223102158200096019589
:101E800006F074FB01F0E4F8192005F087F900284A
:101E9000E5D08FE7FFE7A06A78660020A081FFF712
:101EA0004DFF03F0BBFE022006F0A8FCFFF712FE78
:101EB00080E70000A4F4FF1F98F5FF1F536574200E
:101EC00054617267657453707065640008F4FF1F95
:101ED000ADF3FF1F53706565643A0000F8B50A2042
:101EE00005F05CF9354C002807D0258E262005F03A
:101EF00055F90128608E03D003E0208E4542F5E7B6
:101F000040420021218661862818C10F0818401020
:101F1000FFF71FF800222A4BFFF726F8FEF7EAFB2F
:101F2000264A014640321066526E104606F04AFFBD
:101F3000244C0746E06AFFF73BF9234A234BFFF79F
:101F400013F8FEF7D7FB00903846FFF731F9204A27
:101F5000204BFFF709F805460E460098FFF728F9D1
:101F60002A463346FEF780FDFEF7C4FB0546E062D5
:101F70001948874207DA1948874204D82946206B56
:101F800006F020FE20631649206B884202DC1549CA
:101F9000884200D9216309484038C6680169206930
:101FA0006061206B06F07EFE07463146284606F04B
:101FB00079FE394606F006FE2061F8BD58F5FF1F90
:101FC0000000943F00F0FF1F666666666666E63FA7
:101FD000333333333333D33F00002041000020C17B
:101FE00000803B4500803BC570B50B4C61692069A2
:101FF0000D4606F0E7FE06462088401CFFF704FA6F
:10200000314606F04FFE0549FFF7FCF8294606F079
:10201000D9FDE06070BD000000F0FF1F0000C84265
:10202000FEB5574C6089002816D15A4955A08861E1
:102030005948006A6062084601F09CF820462C303E
:1020400000F0FBFB2046443000F0F7FB20465C30FC
:1020500000F0F3FB012060815048514F00781825B3
:102060000C26012824D003282CD007284BD009287F
:1020700054D0042874D0424801212C3000F02DFBAC
:102080003F480121443000F028FB0C2345A21021D9
:102090001420009506F0FEFA606AFEF793F90246F6
:1020A000042310213A200096019506F05FFAFEBD48
:1020B000334800212C3000F010FB3946606A06F0EE
:1020C00081FD29E02E4800212C3000F006FB14E0B1
:1020D0003946606A06F076FD60620A2003F05CFA19
:1020E000606AFEF76FF90246042310213A20009639
:1020F000019506F03BFA00F0ABFF3F2005F04EF8EB
:102100000028E5D0C1E71E480021443000F0E5FA80
:102110003946606A06F056FE6062B6E7184800214C
:10212000443000F0DAFA14E03946606A06F04AFEFC
:1021300060620A2003F030FA606AFEF743F9024653
:10214000042310213A200096019506F00FFA00F0C2
:102150007FFF192005F022F80028E5D095E7FFE77A
:102160000D48616A016206F0EFFA0020608103F019
:1021700055FD022006F042FBFFF7ACFC85E70000AE
:10218000A4F4FF1F446972656374696F6E204B6429
:102190000000000008F4FF1F18F5FF1FADF3FF1F3C
:1021A0000000A0404B643A00FEB55E4CE088002879
:1021B00016D161495CA0886160488069E061084689
:1021C00000F0D8FF20462C3000F037FB204644308A
:1021D00000F033FB20465C3000F02FFB0120E08054
:1021E00057483F2700783F0618250C26012827D09E
:1021F00003282FD0072853D009285CD004287CD08E
:10220000484801212C3000F068FA4648012144304A
:1022100000F063FA0C234BA210211420009506F065
:1022200039FA4949E06906F03DFDFEF7CBF8024670
:10223000042310213A200096019506F097F9FEBD7F
:10224000384800212C3000F048FA3946E06906F0A1
:10225000B9FC2EE0334800212C3000F03EFA3A4F12
:1022600018E03F210906E06906F0ACFCE0610A20B5
:1022700003F092F93946E06906F014FDFEF7A2F882
:102280000246042310213A200096019506F06EF9CB
:1022900000F0DEFE3F2004F081FF0028E1D0B9E726
:1022A00020480021443000F018FA3946E06906F071
:1022B00089FDE061AEE71B480021443000F00DFAD3
:1022C000214F18E03F210906E06906F07BFDE0613F
:1022D0000A2003F061F93946E06906F0E3FCFEF7F5
:1022E00071F80246042310213A200096019506F069
:1022F0003DF900F0ADFE192000E004E004F04EFFCF
:102300000028DFD086E70D48E169816106F01CFAFC
:102310000020E08003F082FC022006F06FFAFFF755
:10232000D9FB77E7A4F4FF1F446972656374696F92
:102330006E204B700000000008F4FF1F18F5FF1F0F
:10234000ADF3FF1F4B703A0000002041F8B5244C5C
:1023500005462078002841D0284604F075FC6061CD
:102360000021A0616956814201DD002028701C48CF
:102370002978007D1A4C401AC6B258346878216911
:10238000884200D8002616486661583000F0F2FEF8
:102390001348743086616978016100F05DFE206940
:1023A0006978C7B2814200D20F4600240AE0301992
:1023B0001C21484342192001011B1E20133100F04B
:1023C000C7FC641CBC42F2DB05491C2288695043EF
:1023D000401901220861827000200870F8BD0000D9
:1023E000B0F3FF1F410210B50748002242700A23D4
:1023F00043720B0C037201234370090A417202728B
:1024000000F054F8002010BD0000024010B50C4947
:10241000486901221203104348610A4C60790006A2
:10242000FCD509487D21C9000068FEF7B5F8401EBB
:102430008006800E4030E0703020607110BD0000DA
:10244000008004400000024050F0FF1FFFB5400232
:10245000C518042781B00C4600261FE01248002151
:10246000417006214172290C017201214170290A33
:102470004172FC21294001720221417021780172D0
:102480006178417203214170A1780172E178417253
:10249000E419ED1900F00AF8F01986B203988642A3
:1024A000DCD3002005B0F0BD0000024010B572B6CC
:1024B0003020074C60710749481F0160601D884744
:1024C00062B660793321084000D0012010BD0000C1
:1024D0000000024059F0FF1FF8B5002A7ED05400DA
:1024E00054438718012B41D0861A022B7BD0032B33
:1024F00076D0042B72D11546002600910098069ADA
:10250000C1B2B8B200F000FD0098761C401E0090E9
:102510006800024671006A4371435118091B081A8A
:10252000401C002801DD6D1E7F1EAE42E6DB0098D8
:10253000069AC1B2B8B200F0E7FC2846410070002C
:102540006D1E891E0246694372438918091B0818CB
:10255000401C7F1E002803DC0098401E761C009063
:10256000002DE4DC0098C1B2B8B276E000970D46C9
:10257000164600270098E9B280B2069A00F0C4FC23
:1025800070007F1C01467A0071437A438918091B49
:10259000081A401C6D1C002803DD0098401E761EA2
:1025A0000090B742E6DB0098E9B280B2069A00F0EC
:1025B000ABFC00993046491E009141007800761E20
:1025C000891E024671437A438918091B0818401C6A
:1025D000002801DC6D1C7F1C002E02E040E002E0C0
:1025E0003FE0E0DC75E01546002700910098069A70
:1025F000C1B2B0B200F088FC00987F1C401C009073
:102600006800024679006A4379435118091B081A89
:10261000401C002801DD6D1E761CAF42E6DB0098F1
:10262000069AC1B2B0B200F06FFC284641007800B3
:102630006D1E891E024669437A438918091B0818D2
:10264000401C761C002803DC0098401C7F1C009076
:10265000002DE4DC0098C1B2B0B2069A00F054FC40
:10266000F8BD00960D46164600270098E9B280B2E4
:10267000069A00F049FC70007F1C02467900724304
:1026800079435118091B081A401C6D1E002803DDF0
:102690000098401C761E0090B742E6DB0098E9B235
:1026A00080B2069A00F030FC00993046491C009137
:1026B00041007800761E891E024671437A438918CC
:1026C000091B0818401C002801DC6D1E7F1C002E11
:1026D000E4DC0098E9B280B2BFE77CB50446C0688C
:1026E0000D460E287DD3A0681E287AD3206904F0F9
:1026F000A4FAA168884274D825750C266168206800
:10270000002D11D00122801D891D00F02EF92069B5
:1027100004F093FAA168081A2188400840180021A3
:1027200080B2009601916CE00022801D891D00F0AE
:102730001CF9012500952068616803230622801D8D
:10274000891DFFF7C9FE0095A168206842186168DD
:10275000801D0B46D21F00F094FA0095A1682068F6
:102760000423401861680622C01F891DFFF7B4FECC
:102770000095E1686068A268411820684B1E8218C5
:10278000801D491ED21F00F07CFA0095E168606848
:10279000A26841182068012380180622C01FC91FA3
:1027A000FFF79AFE00956168E0680B182068891DA4
:1027B0000246DB1F00F065FA0095E16860680223BD
:1027C000411820680622801DC91FFFF785FE00956D
:1027D0006168E068A2680B1820688018421E401EDD
:1027E00000E018E0891DDB1F00F04BFA206904F0BF
:1027F00024FAA168081A21884008401880B200967F
:102800000195E168A2880C394908511889B20C2356
:10281000226906F0B9F87CBD10B505F0DDFD10BDEC
:1028200038B51446C9B280B26A4600F0AAFB6846C1
:10283000017801206140884338BD7CB50446C068FA
:102840000E287BD3A0681E2878D3206904F0F5F900
:10285000A168884272D80125009520686168032329
:102860000622801D891DFFF737FE0095A1682068AC
:1028700042186168801D0B46D21F00F002FA0095D5
:10288000A16820680423401861680622C01F891DC2
:10289000FFF722FE0095E1686068A2684118206891
:1028A0004B1E8218801D491ED21F00F0EAF90095C8
:1028B000E1686068A2684118206801238018062238
:1028C000C01FC91FFFF708FE00956168E0680B187C
:1028D0002068891D0246DB1F00F0D3F90095E168EE
:1028E00060680223411820680622801DC91FFFF777
:1028F000F3FD00956168E068A2680B182068891DE7
:102900008018421E401EDB1F00F0BBF9207D0C2604
:10291000002814D0206861680122801D891D00F004
:1029200024F8206904F089F9A168081A2188400870
:102930004018002180B2009601910BE014E020695C
:1029400004F07BF9A168081A21884008401880B279
:1029500000960195E168A2880C394908511889B29E
:102960000C23226906F010F87CBDF7B5D8B00C46F0
:102970000546802874D2402C72D2E1B2A8B250AA87
:1029800000F0FFFA50A802785A98D107C007C90F83
:10299000C00F814264D021462846559400F0CCFAFD
:1029A0000646569050A802782146284600F0F1FAD3
:1029B0005490801940082994019428900124009093
:1029C000254601E0002D7BD0E90028A808188038B2
:1029D000816F5291C66F50A86D1E0278EDB23146DC
:1029E000529800F0A9FA539050A8027831465298B4
:1029F00000F0CFFA519050A80278761C31465298D8
:102A0000FFF70EFF002804D050A8027831465298F4
:102A100015E0539F08E050A8027831463846FFF78A
:102A2000FFFE002803D17F1C51988742F3D95198AB
:102A30008742C7D850A8529702783146384600F0EE
:102A4000A8FA519050A802783146529800F074FAD2
:102A50005390142C1FD2471E58975990074617E0E1
:102A60007EE050A80278711E3846FFF7D9FE002894
:102A700027D059995898884207D05891E000694664
:102A80000F504018641CE4B24660142C03D27F1C23
:102A900051988742E5D9539951985A9B401840085C
:102AA00052905198F1B282B2539880B200F0D5F8AA
:102AB000142DA0D2539F59977F1E5897599F19E004
:102AC0001FE05997E1E750A80278711C3846FFF7DC
:102AD000A7FE002813D059995898884207D05891DA
:102AE000E80028A90F5040186D1CEDB24660142D67
:102AF00081D27F1C5198874200D97CE7E3E7599740
:102B0000F5E7002C20D0E100684608188038816F76
:102B10005291C66F50A8641E0278E4B231465298B2
:102B200000F00AFA539050A802783146529800F00B
:102B300030FA074650A80278761E31465298FFF7C1
:102B40006FFE00280ED020E0002D00D03AE7549808
:102B50005A9B82B25598C1B2569880B200F07DF867
:102B60005BB0F0BD539809E050A802783146519807
:102B7000FFF756FE002804D15198401C5190B842EE
:102B8000F2D95198B842BCD8529050A80278314638
:102B9000529800F0FEF9074650A802783146529844
:102BA00000F0CAF95390142D20D25990401E58902D
:102BB000599818E050A80278711C5198FFF730FE20
:102BC000002826D059995898884208D05891E80092
:102BD00028A9519A0A5040186D1CEDB24660142D78
:102BE00004D25198401C5190B842E3D95398BAB2DC
:102BF0003818400852905398F1B280B25A9B00F0B6
:102C00002CF8142C96D253985990401E58905998ED
:102C10001BE051985990E2E750A80278711E519834
:102C2000FFF7FEFD002815D059995898884208D022
:102C30005891E0006946519A0A504018641CE4B269
:102C40004660142CDED25198401C5190B84200D9F5
:102C500070E7E1E751985990F3E7F8B515461E463D
:102C60000F460446A84202D9D0B225460446324651
:102C70003946204600F048F9641CA4B2A542F6D2B9
:102C8000F8BDFFB583B0054605980C46411B069874
:102C90000027021BFF43002902DD0120029002E011
:102CA000002904DA0297002A09DD012711E0C2B2E7
:102CB000E1B2A8B20C9B00F02CF907B0F0BD002ADD
:102CC00007DB0598E1B282B2A8B20C9BFFF7C5FF03
:102CD000F3E70298484339465143420000924A00C4
:102CE000019288421CDB161A0098101A00900EE020
:102CF000E1B2A8B20C9A00F007F902982D18002E44
:102D000002DA0198361802E000988619E41905984D
:102D10008542EDD1E1B2A8B20C9A00F0F5F8CCE70B
:102D20000098461A801A01900EE0E1B2A8B20C9AFF
:102D300000F0EAF8E419002E02DA0098361803E0F1
:102D40000198861902982D1806988442EDD1E1E782
:102D5000FEB514460D460646802805D8402D03D8FA
:102D6000022D01D3122E01D20020FEBDE068002802
:102D7000FBD0A27830461023A91E12380C27002A57
:102D800012D06268002A04D0C9B2C0B2009305F024
:102D90002AFC002001900097A9B2B0B20C23E2688F
:102DA00005F0F2FD0120FEBDA268002A05D00093C7
:102DB000C9B2C0B2102305F016FC0120EAE70000FA
:102DC00010B5002902D00121002401E000210124D6
:102DD0000448FFF782FC034821461830FFF77DFCCA
:102DE00010BD000074F3FF1FFEB58168044614296E
:102DF0003CD3E068142839D325686A18802A35D86E
:102E000061680B18402B31D800272846521E5B1EE4
:102E1000009700F0F4F8012500956168E068A26869
:102E20000B1820685B1E8218521E00F0CAF820881A
:102E30002189304B4118491E8AB2217980B20E3166
:102E4000C9B21B78FFF709FF0095A16820684218F6
:102E50006168521E0B460D3300F0D1F8206903F073
:102E600001FF0246A068811E8A4201D90020FEBDF2
:102E700080B20C26019700960290A0883346401C31
:102E800081B22088226980B205F0D6FD1A48077504
:102E9000A16901612168491D0160E26861688918C2
:102EA000C268891A091F4160FFF7C7FC1248183031
:102EB0000575E1690161A268216889188268891A2B
:102EC000891F0160E26861688918C268891A091F50
:102ED0004160FFF7B2FC00960195A0880C231130E9
:102EE00081B220886269801D80B205F04DFD01200D
:102EF000FEBD000070F3FF1F74F3FF1F0148007D4B
:102F00007047000074F3FF1F10B5C0B205F07AFAE5
:102F100010BDF8B515461E4607460C46A94201D914
:102F20000D461446324621463846FFF7EDFF641C35
:102F3000E4B2A542F6D2F8BDF8B5D507441EED0FB0
:102F40000E46002C0ED0F1B2A0B26A4600F019F87D
:102F500068460078C007C00FA84201D0601CF8BDC9
:102F6000641EF0D1F1B200206A4600F00AF868460B
:102F70000078C007C00FA84201D00120F8BD002092
:102F8000F8BD10B51446C0B205F058FA2070002004
:102F900010BDF8B5441CD5070E46ED0F0DE0F1B29B
:102FA000A0B26A46FFF7EDFF68460078C007C00F81
:102FB000A84201D0601EF8BD641C802CEFD3802095
:102FC000F8BDF8B51C4615460E46074692B2C9B282
:102FD00080B2069BFFF741FEAAB2E1B2B8B2069BEF
:102FE000FFF73BFEE2B2F1B2B8B2069BFFF791FFEA
:102FF000E2B2F1B2A8B2069BFFF78BFFF8BDF8B5BD
:1030000017461E460C460546B84201D915460746E6
:10301000B44201D91C460E46B44206D1BAB2E1B25E
:10302000A8B2069BFFF719FEF8BDBD420DD1F2B262
:10303000E1B2A8B2069BFFF76CFFF8BDBAB2E1B2ED
:10304000A8B2069BFFF709FE641CB442F6D9F8BD8E
:1030500010B505F007FA10BDF8B5040052D0A2680B
:103060000A2A4FD3E06814284CD3012500956168E3
:103070000B1820685B1E8218521EFFF7A2FF08265D
:103080000096208921780838400808182179C0B2B4
:10309000491CC9B233461C4A05F0A5FA00962079AE
:1030A000217B227840180938C1B2208908230838CA
:1030B00040081018144AC0B2083205F094FA00957E
:1030C000A168206842186168521E09310B46FFF75B
:1030D000D8FD0095E1686068A268411820680A3947
:1030E00082180B46521EFFF7CCFDE0686269216929
:1030F00014388A4202D25043FDF74EFAE06120466E
:1031000000F004F8F8BD000014C10000FEB504464C
:103110008189808B091A14398EB22188491C8AB2A0
:103120000192A188721E0A318DB280182189002275
:103130000092C91E019A89B280B257182B183A46DC
:1031400029460198FFF75BFF21696069814201D838
:10315000002005E0A069491E7043FDF71DFA80B20A
:10316000012100912918E269019853183A46FFF7A6
:1031700046FFFEBDFEB58168044614293BD3E368D3
:10318000142B38D320684218802A34D86168CB18B1
:10319000402B30D80025521E5B1E0095FFF72FFFF5
:1031A000012600966168E068A2680B1820685B1E23
:1031B0008218521EFFF705FF20882189174B4118FE
:1031C000491E8AB2217980B20E31C9B21B78FFF74D
:1031D00044FD0096A168206842186168521E0B46A3
:1031E0000D33FFF70CFFA06903F043FD0246A06812
:1031F000811E8A4201D90020FEBD80B20C210195BA
:1032000000910290A0880C23401C81B22088A26902
:1032100080B205F011FC0120FEBD000070F3FF1F1D
:1032200010B5192003F0BAFF012801D0012010BD0C
:10323000002010BD10B5182003F0B0FF012801D008
:10324000012010BD002010BD10B53F2003F0A6FFE7
:10325000012801D0012010BD002010BD10B52C2088
:1032600003F09CFF10BD10B501212D2004F002F8E1
:1032700010BD10B500212D2003F0FCFF10BD10B5CE
:1032800001212C2003F0F6FF10BD10B500212C20E9
:1032900003F0F0FF10BD10B5012200212C2003F037
:1032A00091FF10BD10B5012211462C2003F08AFFBA
:1032B00010BD0000F0B50021104D114F114B0A4612
:1032C00004261C204843401946708C0082704760D9
:1032D00082601C5902614261491CC9B2C4608261AA
:1032E0000429EED30120A870074828610748E86246
:1032F00002488C30686306486866F0BD1C000020F8
:1033000024C10000E8F3FF1F15710000E570000004
:10331000CD700000F8B5674E7068FFF717F8664982
:1033200000270878002800D0F760624C5834012844
:103330005BD0072854D13E2375221221012000972B
:10334000FFF75DFEB0691C21484371684018306189
:103350008770B069401CB06172685178491E814223
:1033600000DCB161B0691C21484380180121306143
:10337000817072681078401C43B2137020465178F7
:103380002469A14205D80D468B420EDB491E1170FF
:103390000BE0E5B2641EA34207D914700269891AD2
:1033A0004269914201D9521C4261002410E0414817
:1033B0001C21583040694843716841181C20604303
:1033C0000A182001011B1E201331FFF7C1FC641CE9
:1033D000AC42ECDB3748B16974308161FFF796FE8F
:1033E00035480078042849D04DE03E23752212214B
:1033F00001200097FFF703FEB1691C225143726858
:10340000881830618770B069401EB061002800DC08
:10341000B761B0691C2148437168401801213061CF
:10342000817071680878401E42B20A704D78236935
:1034300020469D4203D8002A0ADA0F7008E0DDB268
:10344000002A05DA0F704169002901D0491E616127
:10345000002410E017481C21583040694843716827
:1034600041181C2060430A182001011B1E20133143
:10347000FFF76EFC641CAC42ECDBABE73069006923
:10348000002800D08047F068411CF16064280FDDFF
:10349000F76030694169002908D0877070691C2184
:1034A00048437168401801213061817003F066F86B
:1034B000F8BD0000B0F3FF1FADF3FF1F8307FF222D
:1034C000DB0E9A408907090E994000280BDA0007A5
:1034D000000F0838830808489B001818C3699343F5
:1034E0000B43C3617047830804489B0018180368A6
:1034F00093430B430360704700ED00E000E400E0FD
:10350000F0B50021134B144C144E0A4605251C201F
:103510004843C01882610261446082608F008270FB
:1035200045704261491CF759C9B2C7600529EED3FD
:10353000012098700A4818610A48D8620A489864BD
:103540000A480449586603488C398030816008492C
:103550000160F0BD3401002024C10000CCF3FF1F46
:103560007171000059710000417100002971000063
:10357000E570000010B5074CE068C00704D00648AD
:103580000068002800D08047E06801210843E0601F
:1035900010BD0000007103407CF0FF1F10B5074C08
:1035A000E069C00704D006484068002800D0804782
:1035B000E06901210843E06110BD00000071034093
:1035C0007CF0FF1FF0B50021114C124B124E0A4641
:1035D00003251C2048430019457082610261436045
:1035E0008F00826082704261491CF759C9B2C7607E
:1035F0000329EED301200649A0708C31A161074850
:1036000020610749E16202498C392165A064F0BD5F
:10361000A800002024C10000FCF3FF1FE57000009B
:103620008971000010B5074C6078002808D0201D73
:10363000FFF7A0FD20462030FFF70EFD0020607050
:1036400010BD000064F4FF1FFEB5FFF7EBFFC64995
:103650000020085601250C270626C44C002804D05B
:1036600001287BD002286FD04AE10623C0A20F2197
:103670000320009705F00EF8BC48019740380096EB
:10368000C28D03230F211B2004F070FF0623BAA272
:103690000F214120009704F0FDFF01970096E28979
:1036A00003230F215F2004F061FF0623B4A232211F
:1036B0000320009704F0EEFFAC4CFF214034606D16
:1036C000C905C84214D306232D2232211B2000979E
:1036D000019504F0EBFE0121606DC9074840FDF73C
:1036E00041FE02B20323322121200197009607E018
:1036F000FDF738FE02B2032332211B20019700960A
:1037000004F034FF0623A0A232214120009704F0E8
:10371000C1FFFF21A06DC905C84216D306232D2283
:1037200032215A200097019504F0C0FE0121A06DBE
:10373000C9074840FDF716FE02B20323322160207C
:1037400001970096DAE009E08AE0FDF70BFE02B28D
:10375000032332215A2001970096CFE006238CA242
:103760000F210320009704F095FF01970096228E09
:1037700004230F211B2004F0F9FE062386A20F214B
:103780003720009704F086FF01970096628E04238D
:103790000F21552004F0EAFE062381A221210320F7
:1037A000009704F077FF2C22A25E002A10DA06238D
:1037B0002D2232211B200097019504F077FE2C204A
:1037C00001970096205E032342423221212004E02B
:1037D000042321211B200197009604F0C7FE062335
:1037E00071A221213720009704F054FF2E22A25EFF
:1037F000002A10DA06232D22322155200097019548
:1038000004F054FE2E2001970096205E03234242CE
:1038100032215B2004E004232121552001970096EA
:1038200004F0A4FE062362A232210320009704F0D4
:1038300031FF4E4C0197403C0096228E03233221EB
:103840001B2004F093FE062359A232213720009753
:1038500004F020FF019700960323228E32214CE0D2
:10386000062355A20F210320009704F013FF3F4CBD
:103870005349403CE06805F015FAFCF7A3FD024609
:1038800004230F211B200197009604F06FFE0623EE
:103890004CA20F213720009704F0FCFE4849206914
:1038A00005F000FAFCF78EFD024604230F21552097
:1038B0000197009604F05AFE062344A2212103201A
:1038C000009704F0E7FEA069FCF77CFD02460423A4
:1038D00021211B200197009604F048FE06233DA2FB
:1038E00021213720009704F0D5FE206AFCF76AFDFD
:1038F00004230246212101970096552004F036FE4C
:10390000364819490078091D072809D001281CD01C
:10391000042804D1081F4570002004F06FFFFEBD8D
:10392000114A1078401E40B210705570002801DA1C
:10393000022013E000201056002811D0012811D0D9
:103940000228ECD126A08861FEBD074A1078401CF1
:1039500040B2107055700228ECDD00201070E9E7CD
:1039600023A0F0E727A0EEE764F4FF1F58F5FF1F40
:1039700048464C3A000000004846523A0000000019
:103980004841453A000000005641453A0000000019
:103990004C5F453A00000000525F453A00000000CD
:1039A0004C5F503A00000000525F503A00000000A7
:1039B0004E6F723A00000000534B503A0000000076
:1039C00000002041534B493A00000000444B503A5C
:1039D00000000000444B443A00000000ADF3FF1F1C
:1039E00050494420506172616D65746572730000C6
:1039F0004D6F746F7220506172616D657465727382
:103A00000000000053656E736F7220506172616D2B
:103A10006574657273000000F0B5034608464900FE
:103A20008C465C5A15E0521E904203DA5100595AF6
:103A3000A142F8D25100904204DA5D5AA54201D861
:103A4000401CF8E7904204DA46009D5B5F5A9F53A2
:103A50005D529042E8DB41005D5A62469D525C52E5
:103A6000F0BD0000FEB55E4C6088002816D16049AC
:103A70005CA088615F48006960610846FFF77AFBD7
:103A800020462C30FEF7D9FE20464430FEF7D5FE06
:103A900020465C30FEF7D1FE0120608056483F276B
:103AA00000783F0618250C26012827D003282FD0A0
:103AB000072853D009285CD004287CD0484801212D
:103AC0002C30FEF70AFE464801214430FEF705FE81
:103AD0000C234AA210211420009504F0DBFD484974
:103AE000606905F0DFF8FCF76DFC02460423102145
:103AF0003A200096019504F039FDFEBD38480021BA
:103B00002C30FEF7EAFD3946606905F05BF82EE0DF
:103B1000334800212C30FEF7E0FD394F18E03F21FB
:103B20000906606905F04EF860610A2001F034FD75
:103B30003946606905F0B6F8FCF744FC02460423F8
:103B400010213A200096019504F010FDFFF780FA4D
:103B50003F2003F023FB0028E1D0B9E720480021F3
:103B60004430FEF7BAFD3946606905F02BF9606113
:103B7000AEE71B4800214430FEF7AFFD204F18E0B0
:103B80003F210906606905F01DF960610A2001F016
:103B900003FD3946606905F085F8FCF713FC024621
:103BA000042310213A200096019504F0DFFCFFF772
:103BB0004FFA192000E004E003F0F0FA0028DFD00B
:103BC00086E70C486169016104F0BEFD0020608059
:103BD00002F024F8022004F011FEFDF77BFF77E7E6
:103BE000A4F4FF1F5370656564204B69000000005A
:103BF00008F4FF1F18F5FF1FADF3FF1F4B693A00D4
:103C000000002041FEB55E4C2088002816D1604996
:103C10005CA088615F48C06820610846FFF7AAFA87
:103C200020462C30FEF709FE20464430FEF705FE04
:103C300020465C30FEF701FE0120208056483F27D9
:103C400000783F0618250C26012827D003282FD0FE
:103C5000072853D009285CD004287CD0484801218B
:103C60002C30FEF73AFD464801214430FEF735FD81
:103C70000C234AA210211420009504F00BFD4849A2
:103C8000206905F00FF8FCF79DFB02460423102184
:103C90003A200096019504F069FCFEBD38480021E9
:103CA0002C30FEF71AFD3946206904F08BFF2EE018
:103CB000334800212C30FEF710FD394F18E03F212A
:103CC0000906206904F07EFF20610A2001F064FCEF
:103CD0003946206904F0E6FFFCF774FB0246042332
:103CE00010213A200096019504F040FCFFF7B0F94E
:103CF0003F2003F053FA0028E1D0B9E72048002123
:103D00004430FEF7EAFC3946206905F05BF8206193
:103D1000AEE71B4800214430FEF7DFFC204F18E0DF
:103D20003F210906206905F04DF820610A2001F0C5
:103D300033FC3946206904F0B5FFFCF743FB02462B
:103D4000042310213A200096019504F00FFCFFF7A0
:103D50007FF9192000E004E003F020FA0028DFD00A
:103D600086E70C482169C16004F0EEFC0020208049
:103D700001F054FF022004F041FDFDF7ABFE77E7B0
:103D8000A4F4FF1F5370656564204B7000000000B1
:103D900008F4FF1F18F5FF1FADF3FF1F4B703A002B
:103DA0000000204110B500F001F810BD70B50F49BA
:103DB00000244868002805D04868401E486001D1AA
:103DC000012008708868401C88608868084A904212
:103DD00001D100208860074D14206043401901F094
:103DE0003BFC641CE4B2062CF6D370BD88F0FF1FC8
:103DF000FFFFFF7FD0FAFF1F10480F49818001218C
:103E000041702321017011200D49000548620D48C1
:103E1000002141700C4A962111701A21017001791C
:103E2000C906FCD401790907890FFBD10749086845
:103E3000400848608860704703E8000000200540A3
:103E400000800440004006400050064038F0FF1F4C
:103E500070B5284C6078002805D10120607020469C
:103E60009430FEF7C1FF244D2878072810D121484F
:103E700000219430FEF7A4FF1E4800219430FEF785
:103E80009FFFFFF7E5F83F2003F088F90028FAD0FC
:103E90002878012810D1174801219430FEF790FFAF
:103EA000144801219430FEF78BFFFFF7D1F8192059
:103EB00003F074F90028FAD02878042811D10020E2
:103EC0006070182003F06AF90028FAD0094894308D
:103ED000FFF714F8012805D001F0A0FE022004F03D
:103EE0008DFC70BD01F09AFE022004F087FCFDF706
:103EF00026FF70BDB0F3FF1FADF3FF1FF8B5254AD5
:103F000000201379014613799B063ED5D279224DC4
:103F100000262B78214C002B14D0012B17D0022B1C
:103F20001DD0032B1ED0E7787F1D9F4202D9E2549B
:103F30005B1C2B70E3782F785A1DBA4225D12E7066
:103F40001A1D17E0AA2AF5D12270012205E0AF2A36
:103F500001D02E70EEE7627002222A70EAE7A270AA
:103F60000322FAE7E2700422F7E7275C7918401C85
:103F7000C9B2C0B28242F8D80848001D185C884215
:103F800001D06E7001E0A0786870054801F094FBE4
:103F9000F8BD000000A00640CDF0FF1FACFDFF1FE4
:103FA00058FBFF1FF8B504148BB2264682B25E435D
:103FB0000D141046371458433604801900217941F6
:103FC00016466E43371436048019794126466E43EF
:103FD0008919F8BD30B47446641E2578641CAB4260
:103FE00000D21D46635D5B00E31830BC184700003B
:103FF0004900CA020243100000D004204A0D01D03B
:1040000001221043044A490D914201D10221084383
:10401000012800D105207047FF070000F8B50446CD
:104020004F1EC8000838211815461E460868496802
:104030003A4606239A4310D02A463346FCF794FFAB
:104040003A46D200083AA3181A687F1E5B68FCF74C
:104050000BFD06223B469343EED1022F23D0042FC3
:1040600011D0062F2FD12A463346FCF77DFFE36A95
:10407000A26AFCF7F9FC2A463346FCF775FF636A2F
:10408000226AFCF7F1FC2A463346FCF76DFFE36930
:10409000A269FCF7E9FC2A463346FCF765FF636931
:1040A0002269FCF7E1FC2A463346FCF75DFFE36832
:1040B000A268FCF7D9FC2A463346FCF755FF636833
:1040C0002268FCF7D1FCF8BD10B50122FDF7E6FA35
:1040D00010BD10B5FCF7C8FC10BD002210B513468A
:1040E00010461146FCF7F0FC10BD0000034A10B565
:1040F00000201107FDF7D2FA10BD000001FDFFFFFF
:1041000030380A2801D20120704700207047002073
:1041100070470000F3B583B00025684602F0B0FD9B
:10412000002401270398A600815904988059081A91
:1041300000D54042FDF760F90F21C943FDF768F94A
:10414000694689594A00120E0BD0FDF75BF87F21B2
:10415000C90504F037FE400009494008884205DCE3
:1041600007E0084940180849884202D33846A04071
:104170000543641C032CD5DB284605B0F0BD0000C8
:10418000295C0F3E666666C19A99D90010B5074949
:104190004A698B031A434A6105498B690124224607
:1041A000824013438B614C6010BD000000800440CE
:1041B00000B0034089070A0F064920328A60C00612
:1041C000C00E086008680006FCD508690005000DEF
:1041D0007047000000B00340F0B504464F008E4821
:1041E0008FB07F080D460D91874228DB404238187A
:1041F00020430CD08948874203DC874218D1002C29
:1042000016D020462946FFF75FFF0FB0F0BD844A65
:10421000844B20462946FCF7A7FE07460E46824AF5
:10422000824B20462946FCF79FFE3A46334649E03A
:104230000120FDF795F9FFF750FF0FB0F0BD7C4866
:10424000874243DAF920800587420BDA2046294667
:10425000FFF7CEFE042801D1FFF748FF204629468C
:104260000FB0F0BD22462B4610462946FCF77CFED7
:10427000064602466F480F460B4606217844FFF774
:10428000CDFE32463B46FCF76FFE06906A4807912A
:1042900032463B4604217844FFF7C0FE32463B4697
:1042A000FCF762FE00225C4BFCF7DEFB02460B468D
:1042B00007990698FCF708FC22462B46FCF754FEAB
:1042C00022462B46FCF7D0FB0FB0F0BD2046524CE7
:1042D0006900490800222346FCF7DEFB0022D24396
:1042E000FDF7DCF90546024654480E460B4606210A
:1042F0007844FFF793FE2A463346FCF735FE0690D6
:104300004F4807912A46334604217844FFF786FE3A
:104310002A463346FCF728FE00222346FCF7A4FB7E
:10432000059104902846314604F0BCFB08904548AE
:104330000C46874219DB059B049A07990698FCF7FF
:10434000C3FB02460B4621460898FCF70DFE2346A8
:10435000089AFCF789FB0122FDF7A0F9304A314B9E
:10436000FCF78FFB304A314B4AE000273A460B46B8
:104370000898FCF779FB3A4623460A910E901046BE
:104380001946FCF7F1FD2A463346FCF785FB0A9BEC
:104390000E9AFCF799FB05460E46059B049A079971
:1043A0000698FCF791FB00910490012228463146C3
:1043B000FDF774F91A4A1B4BFCF76EFB0E460546D7
:1043C000012221460898FDF769F9009B049AFCF741
:1043D000CBFD2A463346FCF754FB05460E46012228
:1043E00038462146FDF75AF90F4C174F22463B46F7
:1043F000FCF752FB2A463346FCF74EFB22463B466F
:10440000FCF74AFB0D9A002A00DD5DE70122D20786
:1044100051400FB0F0BD00000000F03F0000F07F01
:10442000075C143326A6913C182D4454FB21F93F18
:104430000000E03F987F0000AE7F0000247F000076
:104440003A7F00003333EF3FFB21E93FF0B589B0FD
:1044500004460D464800069172494008884215DB23
:104460007149884203DC884207D1002C05D02046E0
:104470002946FFF729FE09B0F0BD6C48002D02DD8A
:104480006B4909B0F0BD6B4909B0F0BD6A4988427B
:1044900011DA6A4988420BDA20462946FFF7A8FD5F
:1044A000042801D1FFF722FE2046294609B0F0BDBD
:1044B0000026F6435DE06D0061496D08884232DAFE
:1044C0006049884219DA0026012332469B072046BC
:1044D0002946FCF7C9FA07460191012220462946E0
:1044E000FDF7DCF80022584BFCF7CBFA3A46019B6B
:1044F000FCF7EAFA04460D463BE001260022524B47
:1045000020462946FCF7B0FA0746009100224E4BA0
:1045100020462946FCF7B5FA3A46009BFCF7D4FA48
:1045200004460D4625E04949884219DA0226002250
:10453000474B20462946FCF717FD0022424BFCF76B
:1045400093FA074602910022414B20462946FCF788
:1045500098FA3A46029BFCF7B7FA04460D4608E083
:10456000032622462B4600203A49FCF7ADFA0446C2
:104570000D4622462B4610461946FCF7F5FC074629
:104580000B4602460191FCF7EFFC024602903248CE
:104590000B46039106217844FFF740FD3A46019B04
:1045A000FCF7E2FC00902D48019105217844039B23
:1045B000029AFFF733FD039B029AFCF7D5FC0246F3
:1045C0000B4601990098002E0BDAFCF74DFA2246B3
:1045D0002B46FCF7C9FC22462B46FCF75DFA09B0D6
:1045E000F0BDFCF741FA22462B46FCF7BDFC1C4A05
:1045F000F6007A4493191A685B68FCF742FA22467F
:104600002B46FCF73EFA174A7A4493191A685B68FE
:10461000FCF742FA069A002AE1DA0122D207514059
:1046200009B0F0BD000010440000F07F182D445484
:10463000FB21F93FFB21F9BF0000DC3F0000203ED9
:104640000000F33F0000E63F0000F03F0080034021
:104650000000F83F0000F0BF367D0000F87C00004D
:10466000927C00005C7C0000F0B51FB4039B5442B8
:104670005D00164626439C46F40F6D084B004E4ED7
:104680005B082C438E46B44205D847420743FC0FD3
:104690001C43B44204D96346FFF71BFD05B0F0BDCF
:1046A000464E6644164309D0CC0F6646B61702271D
:1046B0003E40264304461C4304D00BE0FFF7C6FEF1
:1046C00005B0F0BD002EFBD0012EF9D0022E32D065
:1046D000032E34D014462C430BD0374CA54216D1B0
:1046E000A3420AD1012189078D438B4319460395C3
:1046F0000DE0704600280FDB25E0314F7F44002E8F
:104700000ED0012E10D0022E15D0032E17D0A342AA
:104710001DD17046002816DA2A482B4905B0F0BD95
:104720007968386805B0F0BD01227968D207386829
:10473000514005B0F0BD2348244905B0F0BD2148E3
:10474000234905B0F0BD1F48224905B0F0BD5B1BF1
:104750001B153C2B02DD1B481E490FE06446002C54
:1047600005DA3C24E34202DA0020014606E0039B1E
:10477000FCF7AAF949004908FFF768FE002EE4D0CB
:10478000012E0BD0144A154B022E0CD0FCF779F9F0
:104790000C4A0E4BFCF775F905B0F0BD0122D207AB
:1047A000514005B0F0BDFCF76CF9064A074BFCF729
:1047B00073F905B0F0BD00000000F07F000010C0EC
:1047C000007C0000182D4454FB21F9BFFB21094057
:1047D000FB2109C0FB21F93F075C143326A6A13C4D
:1047E00010B502F09BFA62B6FDF710FE00F006FF6E
:1047F00000F048FF00F0C0FC00F0B6F900F0F3F85C
:1048000000F068FE00F007F800F03BFA00F0F2F963
:1048100000F0ECFD10BD10B5002001F0EBFE012012
:1048200001F0E8FE012200210A2002F0CBFC012267
:104830000021262002F0C6FC10BD000010B50020AB
:1048400001F0D0FE084C218E40182086012001F096
:10485000C9FE618E40186086002001F0BBFE012079
:1048600001F0B8FE10BD000058F5FF1FF8B5089C18
:104870000D461E46079FA047A847B047052000F0F9
:104880009BFEB847052000F097FEA047F8BDF8B59D
:10489000089C0D461646079FA047A847B04705202D
:1048A00000F08AFEB847052000F086FEA047F8BD5C
:1048B0000FB4FEB5002508982C460D9F0C9E80472E
:1048C0000E988047052000F077FEB8476006040E7A
:1048D000B047012801D1641CE4B2032000F06CFE53
:1048E0006D1CEDB2082DEBD30F9808AD00280E9883
:1048F0000197009602900FCD06D0FFF7B7FF204634
:10490000FEBC08BC04B01847FFF7C1FFF7E70FB4BF
:10491000F8B5174600240C9E0D9D8847B047E8095E
:1049200001D0B84701E0099880476806050E0520C8
:1049300000F042FE0B988047052000F03DFEB04796
:10494000022000F039FE641CE4B2082CE7D3F8BC66
:1049500008BC04B01847F8B514461D46089F079ECA
:104960008847A047B047042000F026FEA84704204F
:1049700000F022FEB847F8BDF8B514461D46089F62
:10498000079E8847B847A847042000F015FEB047A7
:10499000A047042000F010FEF8BD0FB4FEB50CAC2B
:1049A000E0CC0898002480470A988047012000F056
:1049B00003FEB047012000F0FFFD0EE0641CE4B2EE
:1049C000FA2C0AD96846E0C008AC0FCCFFF7D4FF38
:1049D0000120FEBC08BC04B01847A8470028EDD150
:1049E000B8470020F5E710B500F082F800F05AF85B
:1049F00010BD000070B50546294900014418206823
:104A00008047690005226B180026002832D02179E2
:104A1000052901D2227170BD0A2902D2491C2171D7
:104A200070BD6900A07A6D186D1C002804D10120AA
:104A3000A072E8B200F080F821890029F0D0E08867
:104A4000884208D2401C80B2E08021898842E7D1A8
:104A5000DB1CD8B20BE0E07A0028E1D0207B401CC0
:104A6000C0B22073E17A8842DAD32673E8B200F04C
:104A700063F870BD2079052801D922710CE0002867
:104A800002D0401E207107E0A07A012804D19B1CAF
:104A9000A672D8B200F050F82673E68070BD000010
:104AA000A0F6FF1F70B50E480021034681726424F2
:104AB0000C3302250A46C17214260801C01804816D
:104AC00005718272491C0273C9B2C6720329F4D3FC
:104AD00004481860044818610448186270BD00005A
:104AE00094F6FF1F493200003532000021320000E9
:104AF00010B5012200213F2002F064FB01220021B9
:104B0000182002F05FFB01220021192002F05AFB5D
:104B100010BD0000074A917AD07A814201D100206D
:104B20007047505C491CC9B291720A29F8D3002120
:104B30009172704794F6FF1F0549CA7A8854C87A63
:104B4000401CC0B2C8720A2801D30020C872704746
:104B500094F6FF1F10B500242046FFF74BFF641C9E
:104B6000E4B2032CF8D310BD10B5002201210820B7
:104B700002F028FB00220121092002F023FB10BDD6
:104B800010B5002804D001280BD0022808D103E07A
:104B90000021082002F06EFB0021092002F06AFBD0
:104BA00010BD00210820F9E710B5002804D0012825
:104BB0000BD0022808D103E00121082002F05AFBA3
:104BC0000121092002F056FB10BD01210820F9E760
:104BD00010B5002804D0012809D0022806D102E02F
:104BE000082002F061FB092002F05EFB10BD0820E6
:104BF000FAE7000010B50D4C0023224619460220AA
:104C000001F06EFD002322460121022001F068FD23
:104C1000002322460321022001F062FD00232246E8
:104C20000421022001F05CFD10BD0000983A000054
:104C300070B505460C1E06DD0A460021022001F073
:104C40002DFD002205E000221146022001F026FD84
:104C500062420121022001F021FD002D06DD2A46DD
:104C60000421022001F01AFD002205E000220421A7
:104C7000022001F013FD6A420321022001F00EFD23
:104C800070BD10B500F03CF880216B2000F012FAE6
:104C9000C82000F081FC00216B2000F00BFA0320FB
:104CA00000F06CF9002000F062F9642000F087F950
:104CB00000216A2000F0FEF90021232000F0FAF91B
:104CC0008021372000F0F6F90021382000F0F2F9B9
:104CD000752000F0C9F8682801D0012010BD01211D
:104CE0006B2000F0E7F900216C2000F0E3F964206C
:104CF00000F065F902F0F4FC0028FBD110BD0000C3
:104D000010B5012200212C2002F05CFA2C2003F0C7
:104D100029FD012211462D2002F054FA2D2003F026
:104D200021FD0948074941610849816108498160BD
:104D30000849C160084901600849416008490161AA
:104D400010BD00006732000080FDFF1F73320000BD
:104D50007F3200008B32000097320000A532000045
:104D60005D320000F0B53F4C154620460F4610302E
:104D700007C885B01E466B4607C30FCC103CFFF733
:104D8000EAFDD0201034039007CC6B4607C31C3CCF
:104D90000FCC103CFFF7BBFD103407CC6B4607C3AC
:104DA0001C3C0FCC103CFFF7F8FD00280AD0204631
:104DB000103007C86B4607C30FCCFFF7DDFD01209D
:104DC00005B0F0BD20461030039707C86B4607C3F7
:104DD0000FCC103CFFF79BFD103407CC6B4607C38C
:104DE0001C3C0FCC103CFFF7D8FD103407CC6B46B1
:104DF00007C31C3C0FCC103CFFF7ADFDD120103495
:104E0000039007CC6B4607C31C3C0FCC103CFFF74C
:104E10007EFD103407CC6B4607C31C3C0FCC103C06
:104E2000FFF7BBFD10E0012D1AD0012003902046B2
:104E3000103007C86B4607C30FCC103CFFF738FD96
:104E40006D1E3070EDB2761C002DECD12046103076
:104E500007C86B4607C30FCCFFF78EFD0020AFE7F6
:104E60000020E3E780FDFF1F7FB5334C0546204659
:104E7000103007C86B4607C30FCC103CFFF76BFD23
:104E8000D0201034039007CC6B4607C31C3C0FCCDA
:104E9000103CFFF73CFD103407CC6B4607C31C3CAD
:104EA0000FCC103CFFF779FD1034039507CC6B460F
:104EB00007C31C3C0FCC103CFFF729FD103407CC76
:104EC0006B4607C31C3C0FCC103CFFF766FD10344B
:104ED00007CC6B4607C31C3C0FCC103CFFF73BFDD7
:104EE000D1201034039007CC6B4607C31C3C0FCC79
:104EF000103CFFF70CFD103407CC6B4607C31C3C7D
:104F00000FCC103CFFF749FD00201034039007CC74
:104F10006B4607C31C3C0FCC103CFFF7C9FC054691
:104F2000103407CC6B4607C31C3C0FCCFFF724FDA5
:104F3000284604B070BD000080FDFF1F7CB51446FC
:104F40000D4606466B46062243216820FFF70AFFFE
:104F500000280BD16946098849BA318069464988D9
:104F600049BA29806946898849BA21807CBDC00632
:104F700010B5010E1C2000F09DF810BDC00610B544
:104F8000010E1B2000F096F810BD10B5BC2801D30F
:104F9000012110E0622801D302210CE02A2801D36C
:104FA000032108E0142801D3042104E00A2801D3D6
:104FB000052100E006211A2000F07CF810BD10B594
:104FC00004467D20C000844201D9044602E0042C3E
:104FD00000D204242146FBF7DFFA401EC1B219209B
:104FE00000F068F86008FFF7D0FF10BDFFB5304C47
:104FF00017462046103007C885B01E466B4607C3CB
:105000000FCC0025103CFFF7A6FCD02010340390F5
:1050100007CC6B4607C31C3C0FCC103CFFF777FC5A
:10502000103407CC6B4607C31C3C0FCC103CFFF779
:10503000B4FC00282AD1069803902046103007C8F7
:105040006B4607C30FCC103CFFF761FC103407CC54
:105050006B4607C31C3C0FCC103CFFF79EFC22E0C4
:10506000705D03902046103007C86B4607C30FCC15
:10507000103CFFF74CFC103407CC6B4607C31C3CBC
:105080000FCC103CFFF789FC00280AD020461030D6
:1050900007C86B4607C30FCCFFF76EFC012009B0B1
:1050A000F0BD6D1CEDB2BD42DAD30020F7E7000081
:1050B00080FDFF1F7FB52F4C064620460D46103061
:1050C00007C86B4607C30FCC103CFFF744FCD02049
:1050D0001034039007CC6B4607C31C3C0FCC103C2C
:1050E000FFF715FC103407CC6B4607C31C3C0FCCF4
:1050F000103CFFF752FC002827D1204610300396C1
:1051000007C86B4607C30FCC103CFFF700FC1034F8
:1051100007CC6B4607C31C3C0FCC103CFFF73DFC93
:105120001034039507CC6B4607C31C3C0FCC103CD6
:10513000FFF7EDFB103407CC6B4607C31C3C0FCCCC
:10514000103CFFF72AFC00280AD02046103007C880
:105150006B4607C30FCCFFF70FFC012004B070BDF6
:105160002046103007C86B4607C30FCCFFF704FC7E
:105170000020F3E780FDFF1F10B500F07DF801214E
:10518000432002F077F8642000F006FA0021432063
:1051900002F070F8642000F0FFF90121432002F0D2
:1051A00069F80021AE2003F0A3FA0021D52003F016
:1051B0009FFA0021502003F09BFA0021A82003F061
:1051C00097FA00213F2003F093FA0021D32003F047
:1051D0008FFA0021084603F08BFA0021402003F0EB
:1051E00087FA00218D2003F083FA0021142003F0B8
:1051F0007FFA0021202003F07BFA0021084603F00B
:1052000077FA0021A02003F073FA0021CF2003F0E9
:105210006FFA0021DA2003F06BFA0021122003F06C
:1052200067FA0021812003F063FA0021EF2003F0E8
:105230005FFA0021D92003F05BFA0021F12003F08E
:1052400057FA0021DB2003F053FA0021302003F04D
:105250004FFA0021A42003F04BFA0021A62003F00E
:1052600047FA0021AF2003F043FA03F0B5F800211C
:10527000084600F02BF810BD10B5002201211720C0
:1052800001F0A0FF172003F06DFA00220121432056
:1052900001F098FF432003F065FA0022012123204A
:1052A00001F090FF232003F05DFA0022012142204B
:1052B00001F088FF422003F055FA00220121162058
:1052C00001F080FF162003F04DFA10BD10B5044622
:1052D000B031C8B2002103F00BFA200900211030D0
:1052E00003F006FA2007000F01210843002103F014
:1052F000FFF910BDFEB50027009701200197FFF7C9
:1053000053FC384E0020410100228919401C0A86B6
:1053100080B24A860228F6D344E00025002D02D050
:10532000012D19D10AE000210E20FEF743FF2D497F
:1053300020314A7B5200921910870AE000210B208D
:10534000FEF738FF274940314A7B5200921940321C
:105350001083487B401C4873680184192046203024
:10536000417B0A2901D300214173204638300922AC
:10537000002103F084FB4A20218E005B814200D291
:105380002086618E208F814200D960866D1CADB26F
:10539000022DC3D30120FFF71BFC052000F0FCF811
:1053A0007F1CBFB210488742B7D300206B46410133
:1053B000891942000C8E9C524031D218401C498EF3
:1053C00080B291800228F2D30120FFF7D9FBFD20A3
:1053D000FDF708F8002308226946FD20FDF736F89E
:1053E000FEBD000018F5FF1FB80B000010B5082027
:1053F000FEF7CCFE0920FEF7C9FE0A20FEF7C6FE26
:105400000B20FEF7C3FE0E20FEF7C0FE0F20FEF7B6
:10541000BDFE10BDF8B500240A4861010D18288EA4
:105420006E8E801BFBF7E8FF0746E88D801BFBF7BD
:10543000E3FF3946FBF7E6FE641CE4B26863022C26
:10544000EAD3F8BD18F5FF1F70B500241F4E25469E
:10545000002C02D0012C08D102E000210E2001E036
:1054600000210B20FEF7A6FEC5B26001801901469F
:1054700020314A7B5300521CC3184A731D874A7B54
:105480000A2A01D300224A7301462E310A223830FB
:1054900001F086F8FFF7BEFF641CE4B2022CD7D3FC
:1054A000746D756B2146284603F08CFB0646214639
:1054B000284603F087FC064903F0F4FB3146FBF76E
:1054C000A1FE02498031486570BD000018F5FF1F3C
:1054D0000000C84210B501220021372001F072FE01
:1054E00001220021362001F06DFE01220021292039
:1054F00001F068FE01220021282001F063FE372020
:1055000003F030F9362003F02DF9292003F02AF9B1
:10551000282003F027F910BDF0B585B01546022804
:1055200003D90020C04305B0F0BD0C4EC400325D6D
:10553000012A0FD06A46107001275770032010729D
:1055400068460395019100F0BFFF3755A0194560EB
:105550000020E8E70120C043E5E7000048FBFF1F0B
:1055600070B5062802D90020C04370BD1424094D2F
:1055700060434419267B012E09D0616000266670C5
:105580002B5401202073A1603046226170BD0120A0
:10559000C04370BDD0FAFF1F002809D0012800D1F8
:1055A0000220044948600020087008780128FCD1D6
:1055B0007047000088F0FF1FF8B50D4E074675696B
:1055C00000240D480B490068FAF7E6FF7843B169FB
:1055D0000246B0698842FCD0884201D2091A01E033
:1055E0002B1A59180C1901469442F2D3F8BD000049
:1055F00000E000E040420F004CF0FF1F30B50021FA
:10560000104C0A4614234B431819426082604270C2
:10561000E254491C0261C9B202730629F2D30A4856
:105620000A490068401E88420BD809494861094868
:105630000724C3691B021B0A4D042B43C3618A6103
:105640000C6130BDD0FAFF1F4CF0FF1FFFFFFF00C1
:1056500000E000E004ED00E04168002910D041685E
:10566000491E41600CD1012141700178012903D10B
:1056700081684160002141700069002800D0004726
:105680007047000000B500F03BF805480068C1789D
:1056900020221143C1700349D001086000BD000001
:1056A00058FBFF1F00E100E0012801D000207047F7
:1056B0000048704758FBFF1F01680A79120701D59F
:1056C0000A79CA790A790A79120612D5828A002AD9
:1056D00010D0438A4268D25CCA71418A491C89B29F
:1056E00041828289914201D300214182818A491EEF
:1056F00081827047C8784006400EC870704700002D
:105700000B480A4901600B4981600146283141601C
:10571000FF210131C1818181002141830183C18247
:10572000818241824162C1610162704700A00640EE
:1057300058FBFF1F80FCFF1FF8B50023FFF7B4FFE5
:10574000002820D0002517E08489878A6E4637809C
:105750003688B442F9D9CC5C078A4668F455048A85
:10576000641CA4B204828689B44200D30582848A70
:10577000641C84825B1C9BB29342E5D30068C178B1
:1057800080221143C170F8BD10B5094C2078012862
:105790000DD00120207000F00DF800F011FA00F09B
:1057A000BFF800F05FF800F08FF80020207010BD07
:1057B00084F0FF1F10B5104C607800281AD0132811
:1057C00014D008DC02280BD010280CD011280DD0E2
:1057D00012280DD10AE0142808D0152808D105E0B8
:1057E00000F056F904E000F0D5F8102000F0C4F9FC
:1057F0000020607010BD0000CDF0FF1F70B588B0B4
:105800000E460446154620216846FAF7D6FD1B2DA4
:1058100002D9002008B070BDAA20694608704870FF
:105820008E70CD7000216846431908E0625C46180E
:1058300032711A79465C9219491C1A71C9B2A9428F
:10584000F4D32C462A1D05E01979065D8919641CDC
:105850001971E4B29442F7D301466A1D0120FFF7A3
:105860006BFFD6E73EB50020154C164D0090019019
:1058700002902946E06803F015FAFBF773FD010476
:105880000A0E69460A7048702946A06803F00AFAB1
:10589000FBF768FD01040A0E69468A70C870294644
:1058A000206903F0FFF9FBF75DFD01040A0E69466C
:1058B0000A7148710C2201216846FFF79FFF3EBD27
:1058C00098F5FF1F0000C84200B589B02021684646
:1058D000FAF773FD11496A46888F031213705070EE
:1058E000C88F01129170D0700C48403001880B12A3
:1058F0001371517141880B129371D17181880B1210
:1059000013725172C08801129172D0721222022158
:105910006846FFF773FF09B000BD000058F5FF1F90
:105920001FB500201A4900900190029003908A8DC3
:105930006B4614121C705A70CA8D14129C70DA7067
:10594000187158710A8E140A9C71DA7118725872A3
:10595000488E010A9972D8720D484038406FFBF7A3
:1059600001FD6421484301126B46197358730848BE
:105970004038806FFBF7F6FC6421484301126B4608
:105980009973D8731022F1216846FFF737FF1FBDC6
:1059900058F5FF1FF8B5394C6079217900020843AA
:1059A00040BA00B2FBF728FD3549FBF72BFC354D1B
:1059B0002860E079A1790002084340BA00B2FBF701
:1059C0001BFD314E3146FBF71DFC6860607A217A81
:1059D0000002084340BA00B2FBF70EFD2B4F3946D8
:1059E000FBF710FCA860E07AA17A0002084340BAF5
:1059F00000B2FBF701FD3146FBF704FCE860607B79
:105A0000217B0002084340BA00B2FBF7F5FC39469F
:105A1000FBF7F8FB2861E07BA17B0002084340BA5A
:105A200000B2FBF7E9FC3946FBF7ECFB6861607CF0
:105A3000217C0002084340BA00B2FBF7DDFC1049AC
:105A4000FBF7E0FBA861E07CA17C0002084340BAC0
:105A500000B2FBF7D1FC3146FBF7D4FBE861607D77
:105A6000217D0002084340BA00B2FBF7C5FC04499F
:105A7000FBF7C8FB286202F067FEF8BDACFDFF1F14
:105A80000000204118F5FF1F0000C84200007A44C2
:105A9000F0B585B014216846FAF78FFC324C334DCF
:105AA0002068294603F0FEF8FBF75CFC0212694609
:105AB0000A7048702E4E6068314603F0F3F8FBF729
:105AC00051FC021269468A70C8702A4FA068394694
:105AD00003F0E8F8FBF746FC021269460A714871C8
