:020000040000FA
:10000000A8040020830100008F010000910100007E
:1000100000000000000000000000000000000000E0
:10002000000000000000000000000000930100003C
:100030000000000000000000950100006D38000085
:100040009901000099010000990100009901000048
:100050009901000099010000990100009901000038
:100060009901000099010000990100009901000028
:10007000C539000099010000990100001513000026
:100080009901000099010000990100009901000008
:1000900099010000990100003D300000653000002A
:1000A00099010000990100009901000099010000E8
:1000B00099010000990100009901000099010000D8
:1000C00000F002F800F030F80CA030C8083824180E
:1000D0002D18A246671EAB4654465D46AC4201D180
:1000E00000F022F87E460F3E0FCCB6460126334282
:1000F00000D0FB1AA246AB4633431847DC920000FF
:10010000FC9200000023002400250026103A01D3B1
:1001100078C1FBD8520700D330C100D50B607047BF
:100120001FB51FBD10B510BD01F072F81146FFF7E5
:10013000F7FF05F003FF01F08AF803B4FFF7F2FFC1
:1001400003BC03F021FD000070B505460C461646C1
:1001500002E00FCC0FC5103E102EFAD2082E02D3AB
:1001600003CC03C5083E042E07D301CC01C5361FBE
:1001700003E021782970641C6D1C761EF9D270BDD5
:100180007047094880470948804709480047FEE70B
:10019000FEE7FEE7FEE7FEE7FEE70000054806494A
:1001A000044A064B70470000C1380000810100007E
:1001B000C1000000A8030020A8040020A80300201C
:1001C0007047000030B5441C03E00178401C002952
:1001D0000DD08107F9D10B4BDD0104C8D11A914331
:1001E0002940FAD0001B0A0603D0C01E30BD001BF8
:1001F00030BD0A0401D0801E30BD0902FCD0401E73
:1002000030BD00000101010101E004C0091F042903
:10021000FBD28B0701D50280801CC90700D0027079
:10022000704700290BD0C30702D00270401C491E42
:10023000022904D3830702D50280801C891EE3E7CC
:100240000022EEE70022DFE7002203098B422CD3D5
:10025000030A8B4211D300239C464EE003460B4316
:100260003CD4002243088B4231D303098B421CD378
:10027000030A8B4201D394463FE0C3098B4201D36A
:10028000CB01C01A524183098B4201D38B01C01AA2
:10029000524143098B4201D34B01C01A5241030919
:1002A0008B4201D30B01C01A5241C3088B4201D3C8
:1002B000CB00C01A524183088B4201D38B00C01A75
:1002C000524143088B4201D34B00C01A5241411A9C
:1002D00000D201465241104670475DE0CA0F00D07F
:1002E0004942031000D34042534000229C46030978
:1002F0008B422DD3030A8B4212D3FC22890112BAFE
:10030000030A8B420CD3890192118B4208D38901D5
:1003100092118B4204D389013AD0921100E08909ED
:10032000C3098B4201D3CB01C01A524183098B42CE
:1003300001D38B01C01A524143098B4201D34B01B7
:10034000C01A524103098B4201D30B01C01A52411A
:10035000C3088B4201D3CB00C01A524183088B42A1
:1003600001D38B00C01A5241D9D243088B4201D32A
:100370004B00C01A5241411A00D201466346524115
:100380005B10104601D34042002B00D54942704714
:1003900063465B1000D3404201B50020C046C04612
:1003A00002BD7047704770471F22030C02D10F2215
:1003B000000402D0030E03D004E000200146704781
:1003C0000002083A030F01D10001121F830F01D16F
:1003D0008000921E002801DB4000521E12055118B9
:1003E0004205C012411810467047C10FC90700D01E
:1003F0004042012292071143D6E701218907D3E742
:10040000FFFFFFFFFFFFFFFFFFFFFFFFFFFFFEFEFE
:100410000246C80FC00781434B0030B54B405B001C
:100420009B0D20D01923DB06C91801231B05994217
:1004300020DB0324A40704251346AB400BD3002B79
:1004400004D1EB0613409B00E34204D4012464076B
:10045000002312195941FF231B0599420BD2C900F1
:100460000143500F09E0CB0204D5014308030243C6
:1004700005D0054830BDFF21C905084330BD0846F9
:1004800007210905884330BD0000C07FF0B50C4648
:10049000871A9C410D46861A9D4103D2C01BA1417B
:1004A000D21963410D0D1F0DC94EEC1BAE435CD03C
:1004B0007F057F0D0026002F51D02D05AC46A943A6
:1004C000DD020123ED0A1B051D4320231B1B24D441
:1004D0001746E740381871412F46E740CC199D4038
:1004E0002818314661410C0D27D161449A4013D53B
:1004F0000023401C594152000ED140084000012207
:100500004B005205D34207D305204007C14201D515
:10051000B04900E0B0493046F0BD6B00002A00D081
:1005200001229A181F23203C1B1B01D5002302E047
:10053000E540281871410C0DD7D001242405091974
:10054000C407CD0740084908E40F28436144002C44
:10055000D5D00024401C61419A40D0D1CDE76A0536
:10056000520DD9D1C90FC907D5E79C4D4E000028BF
:1005700001D0012400E0002434195F00002A01D0DA
:10058000012600E00026BE19954FAC420CD8AE42C1
:100590000AD8B44206D001256D05EC42BCD0104605
:1005A0001946F0BD9942FCD000203946F0BDF0B5A7
:1005B0001FB40C460F46811A9F412546861A9D415D
:1005C00006D20125ED076F40401ABC4152187B410D
:1005D000210D1E0D8D1BAC467D4D8D437ED07505C6
:1005E0006D0D7CD00D05AE46AC431B031B0B794D46
:1005F00052429D41202366469B1B14D31746F74069
:10060000381800260090744160462F460741E419CF
:1006100000989D402818664116D4714671189A407A
:1006200025D5012320E093182A466A415200002B69
:1006300000D0521C1E23203E9B1B002B61DD354148
:10064000EE1728186641E8D5001876415B1C9A40E1
:1006500000D3401C4B05F3181524E34010D3002BA6
:1006600052D071467118D30FC01802D3491C05B07F
:10067000F0BD0123DB079A42F9D140084000F6E7BC
:1006800001225205B21801D1002853D00123CC0A0F
:10069000DB029943891E002A08D1020C03D0020C08
:1006A0000004103902E00246002020390023550BD7
:1006B00005D112020823550B01D152010D23550C0F
:1006C00001D112011B1DD50C01D192009B1C150DEF
:1006D00001D152005B1C2025EE1A01E02CE022E043
:1006E0000546F54015439840CA1AE10769181305F5
:1006F000C918002ABBDA032040070818C10FC90730
:100700000FE071466118B2E7F10740080843711025
:1007100071444A000CD001235B059A42A7D2C90F4D
:10072000C9070020A3E74905490D26D1002001E0B3
:100730000028F4D100219AE7284D6600002801D056
:10074000012100E0002171185F00002A01D001267C
:1007500000E00026BE19224FA94210D8AE420ED8A2
:10076000B14208D001256D05E94206D01946A8021C
:10077000414010467BE79C4201D0214677E70020AC
:10078000394674E710B50C465C4005D50124E407F2
:100790006340FFF70CFF10BDFFF778FE10BD30B4CB
:1007A0000C465C4004D50124E407634030BC6DE690
:1007B00030BCFCE670B50124E40761400D465D40A5
:1007C00002D4FFF763FE70BD6340FFF7F0FE70BD1B
:1007D000FF0700000000F0FF0000F07F0000E0FFD6
:1007E0000000F87FF0B5F94D0C091E092C402E4091
:1007F0002F468BB0A7437DD0B543FCD0002E7AD0D6
:10080000002CFCD00D465D40ED0F2543AC1BFF25B1
:10081000AD0464190894C502440DC9022143500D6A
:10082000DC0204430120C00701430443D2020191CA
:10083000200C110C00958C46010423468B430A9131
:1008400061460904E24D8A430991010A7D44491930
:100850008039097805464D4301266D18F605751B4C
:100860006943C90C640B891C4C436418B5012C1BEB
:10087000250C2E04B4434C434D43210C69188909BF
:100880000591009DE90701D00121C90704912C467B
:1008900001996708CD072F434C08059DE10B4D4397
:1008A0002D0C29466646754302950D4645432E4656
:1008B000029D7D1BB44100950D465D4301942C0CB7
:1008C0002F040D465543AE462D0C3D43029503942F
:1008D0007546049C2D04641B049406D2029C039D5F
:1008E000641C002675410395029401AC70CC009FF6
:1008F0007D1B01E03EE162E1B441090400950791EE
:1009000001940599A4086143090C0C464443650B06
:10091000E7040C4666467443A646640B3C430395C5
:1009200002947446049DE4042C1B049406D2029C99
:10093000039D641C002675410395029401AC70CCA4
:10094000009F7D1BB44101940C465C430095650FEC
:10095000E7000C465443A646640F3C4303950294BB
:100960007446049DE4002C1B049406D2029C039D53
:10097000641C002675410395029401AC70CC009F65
:100980007D1BB441AE09AF06049DC900AD092F43DC
:10099000049DA406AD060495079D3443691807918C
:1009A000059DE10B4D432D0C294666467543029586
:1009B0000D4645432E46029D7D1BB44100950D46D4
:1009C0005D4301942C0C2F040D465543AE462D0C6F
:1009D0003D43029503947546049C2D04641B0494C6
:1009E00006D2029C039D641C002675410395029467
:1009F00001AC70CC009F7D1BB44101948C05069422
:100A0000079C890A611800950791019C0599A40823
:100A10006143090C0D464543680BEF040D466446DF
:100A200065436C0B3C43049FED047D1BAC4602D236
:100A30000025641C6841009E019D371B85410846C6
:100A4000584301950C46460FC5005443600F284398
:100A50006546E4002C1B02D20025401C6E41019D1E
:100A60003F1AB5412846BD09800628438446A0099F
:100A7000BF064E020699A40676180743079D00207C
:100A800068410A99079019430020099B009060462D
:100A9000FF1913434041E20F64003A43A446044661
:100AA000D71A8C41A04203D90120009020463A4633
:100AB000C70F941840416246D20F22436446640037
:100AC0000494009CBE466400D71AA44604460297CC
:100AD0008C417746002F01D1A04204D96046401CCA
:100AE0008446029A2046C40FA64694184041049AB0
:100AF0000546D20F224364466400D31A8D417146E5
:100B0000002901D1A84202D928461A46641C104384
:100B10000122002800D0164361020020079B89199A
:100B200004465C410223002C02DB49181346644151
:100B3000089DCE0A2D145D194B056705E10A2C05A9
:100B40000D1908993E43C9076940002B08D093400E
:100B500006D30022761C5141002B01D17608760085
:100B60001C4A002D43DB154241D0AA433FD03046FA
:100B70000BB0F0BD06180D464D41174C7642AC4106
:100B80001AD395181C465C41134A6D42A24113D3F7
:100B9000012252054C00D4420AD15C00D4420BD051
:100BA0004B4002D592021143E2E749004908DFE7D2
:100BB0005940C90FC90718E000200849D8E705487F
:100BC00001420DD10342F7D0F2E700000000FF0719
:100BD000DA8700000000F07F0000E0FF0000F87FEF
:100BE000114859400143C01241400020C0E7012391
:100BF000089A9B069A4205DC032252078918C90FFE
:100C0000C907B5E7052252078918074A1143D212CE
:100C10005140ADE770B515461C4602460B462846C6
:100C20002146FFF7DFFD70BDFFFFFF7FF0B58B4C66
:100C30000F09254689B0BD437BD01D092646AE432A
:100C4000FAD00E465E402740F60F3E43254071D055
:100C500024012142FBD0FF24AD19A4042D1B0395D0
:100C600001252D05DB02DB0AC9022B43C90A2943F2
:100C70001E010901040F130F050121431701880B01
:100C8000820391432D098C46A90B1E438A03954389
:100C9000B30B9A0396433F09BA0B9403A7430296FA
:100CA0002E467E430497B6464E19D7190C46019638
:100CB000544305977E43371B7646BF1B3601B64625
:100CC000BE0B361900967646BC043719009C01D33A
:100CD000641C00946400002F01D001263443029E5E
:100CE000049F754366467E430496760034196E0071
:100CF00034190094029C019E1C196643751BAE4674
:100D0000069465464519059C05956C4359437546FF
:100D10000891691A0191049E01465143A41B049154
:100D2000611A009C0791E10605D061090122114377
:100D300002E072E06EE06109089D00272C0A2D0692
:100D40006918049D7C412A0A2D066918019D62419B
:100D5000AC0DAD026D185441079A910D92025519D0
:100D60006141029A644658435443069B059A5A438C
:100D7000121A131B9A0E9B015B187A41010B000596
:100D8000C3185141220A200644195A419A4200D2FE
:100D9000491C01204002814203D315230226F64359
:100DA00002E014230326F6432020C51AA940174663
:100DB000AF40DA400A4320460399D840091473181B
:100DC00019055118039A3843D2075140AC4009D055
:100DD0000122944006D30022401C5141002C01D135
:100DE000400840001E4A934212D301220398920603
:100DF000904207DB0520400709181A480143C0123A
:100E0000414004E0032040070818C10FC907002033
:100E100009B0F0BD0020F107FAE705180C464C4177
:100E200011486D42A04115D394181A465A410E48F4
:100E3000644290410ED301204A004005824209D30A
:100E40005A00824206D35940C90F084AC9070020F8
:100E50001143DDE700200649DAE700000000FF0744
:100E6000FE070000FFFFFF7F0000E0FF0000F07FB3
:100E70000000F87F0121C9050123411842001B062B
:100E8000D3185B0E0AD0C1100722D206891840077A
:100E90005242D14201D5520089187047090208D543
:100EA0000146002A03D0C10FC90700207047104631
:100EB0007047420202D0002002497047072109050D
:100EC0000143F4E70000F87FF0B5FF252D04C609C3
:100ED000C209FF2704462E400137CB093E43484054
:100EE0002A402B400746002A6BD0002B69D0AA422B
:100EF00067D0AB4265D0002800DA32460125ED0507
:100F000029432C4309022002090AD21A4B0C7F24E0
:100F1000E31A434C000A7C44E35C7D242404121948
:100F200014145B00A218884201D3521C00E0400058
:100F300049420C465C4324115C43DB016415E31811
:100F4000040A5C43C502200D0C4644436419250A7B
:100F50005D432303EC0C0D46654300030019EB18B9
:100F60004C42A34201D35B18401CD4052018002B2F
:100F700007D05B00C91804D3401C002901D14008E8
:100F800040003F2189048A4209D3002A08DC110667
:100F9000090F04D0032149074018C00FC007F0BD56
:100FA00001224100120689187F2252069142F6D290
:100FB00005214907C84201D59010F0BDFF20C005AA
:100FC000F0BD002F00DA32461648AA4207D2AB42E3
:100FD00005D21902090E17D0F80FC007F0BDFF2582
:100FE00063002D06AB42F9D84900A942F6D8AB42BE
:100FF00001D1A942F2D0A94201D1002101E0610052
:101000004908D0050843F0BD1102090EFBD0FF20AE
:101010000243D005F0BD0A460146104654E70000E1
:10102000908100000000C07F10B501469E240002A0
:10103000CA15A307002A02D01843002A04DBA21A0B
:10104000002A0CDDD04010BD1206120E01D1400066
:101050004008A21A03D4D04040420028F3DDFF220A
:1010600048001206904201D9002010BDC817C043A5
:10107000584010BD0102C21504D00123DB071943FB
:10108000002A0ADB9E239A1A02D40846D0407047F1
:10109000FF2241001206914201D900207047C0177B
:1010A000C04370471F22030C02D10F2200041CD042
:1010B000030E01D10002083A030F01D10001121FF3
:1010C000830F01D18000921E002801DB4000521ED8
:1010D000D2055118021251181922904004D3491C0C
:1010E000002801D14908490008467047C10FC907C7
:1010F00000D04042012292071143D3E70121890722
:10110000D0E7704770B505464800440D124B0020EB
:10111000002C0AD0634008D09A4206DA6642B242F6
:1011200003DD12054019514170BD002C08D0002B81
:1011300009D0C90FC907002AF6DB084A114370BD60
:10114000C90FC90770BD28460A03104302D000200A
:10115000034970BD284670BDFF0700000000F07F06
:101160000000F87F10B5FF231B0644009C421DD8E9
:101170004C009C421AD80346124A0B4307D4401A2B
:1011800002D3EFF3008010BDEFF3008010BD081A0A
:1011900006D2EFF3008001219043C907084302E023
:1011A000EFF30080904380F3008810BD0D231B04F3
:1011B0001A4204D01146002000F006F810BD00F0DD
:1011C0001BF810BD00000090C80212D54803400F64
:1011D000002804D0C803C043012188407047EFF3C2
:1011E00000800001000903210907084380F30088FB
:1011F000704700207047000010B5024800F02FF83B
:1012000010BD00000000C07F00487047440300206C
:101210007546FFF7F9FFAE46050069465346C0081C
:10122000C000854618B020B5FEF7B8FF60BC0027A7
:101230004908B6460026C0C5C0C5C0C5C0C5C0C5A2
:10124000C0C5C0C5C0C5403D49008D46704710B5FA
:101250000446C046C0462046FEF76FFF10BD10B5DD
:101260000C461107090F092904D00A290AD00829B8
:101270000CD104E011460820FFF7A6FF06E0510656
:1012800006D501E0510601D50120C007214610BD59
:10129000D10607D501010909CC084907000E00064F
:1012A000044309E0410F20024907000A0143200ED0
:1012B00000061D22D14101430846E7E770B58C18AE
:1012C0000578401C6B075B0F01D10378401C2A1185
:1012D00006D10278401C03E00678401C0E70491CC1
:1012E0005B1EF9D12B0705D40023521E0DD40B70C1
:1012F000491CFAE70378401CCB1A921C03E01D78C6
:101300000D70491C5B1C521EF9D5A142D8D3002098
:1013100070BD000030B5094A0020064C064913781C
:1013200004E022694500401C4A53C0B29842F8D3F9
:1013300030BD000000B003401CF6FF1F78F0FF1F17
:1013400070B50E4CA168E06D05F0D2FA0546042098
:10135000205EFFF7CBFE0146204680380468806897
:1013600005F036FA06462946204605F031FA3146A0
:1013700005F0BEFA0249486270BD0000B0F5FF1FDB
:1013800000F0FF1F70B5284CE088401CE0802088EA
:10139000401C208000F0D8FA6088401C608000F07B
:1013A0009BF8E0880025030002F060FB0638040784
:1013B0002427323802F008FE70BD2089401C80B21C
:1013C00020811428F8D325812580A088184A401C44
:1013D00000B2A080154C616E914208DA2821401CB1
:1013E00048431421FEF73AFFFFF780FE606600F0E5
:1013F00025FA70BD03F038FC70BD6089401C000404
:10140000000C6081F8D06581658000F015F870BD32
:10141000FFF796FF00F07CF8E58070BD65812580C0
:1014200025816580F8E7000000F0FF1FB0F5FF1F81
:101430000000204270477047F0B5244C244F656D82
:1014400085B02846796B05F053FA01900420205EA0
:101450002A30FFF74BFE0390204629461430019AAC
:1014600004F00CFAE06B1B490E028842E06B00D3DB
:1014700070400290606C8842606C00D370400090B5
:10148000F86938620399B86A05F0A2F903900099E7
:10149000019805F09DF9009028467040029905F0EA
:1014A00097F9009905F024FA039905F021F9F861FC
:1014B0008121606DC905884205DA7F21C905C842CE
:1014C00001D20020F8617D6305B0F0BDB0F5FF1FCB
:1014D00000F0FF1F0000808070B50B4C216AE069AE
:1014E0000D4605F005FA06466088401CFFF706FE2B
:1014F000314605F06DF90549FFF7E6FC294605F090
:10150000F7F8A06170BD000000F0FF1F0000A040D0
:10151000F8B52A4EF168706A05F0EAF8B169054637
:101520000F4605F0E5F9FFF77FFD04B2284639467E
:1015300005F0DEF8FFF778FD05B2002C01DD0A3476
:1015400002E0002C01DA0A3C24B2002D01DD0A354C
:1015500002E0002D01DA0A3D2DB219492820085E6B
:10156000424211B2A04201DA044602E0A24200DD8A
:101570000C46A84201DA054602E0AA4200DD0D460B
:101580000F48803884850746C5854037F96DB868AF
:1015900005F0AEF90B49884202DC0B49884207D9B5
:1015A0000021084602F00AFF0020B0807866F8BDEE
:1015B0002946204602F002FFF8BD000000F0FF1FA0
:1015C000F0F5FF1F0000F041000010C1F8B52A4CF3
:1015D00000257F2065658002A5652746803F01685C
:1015E0003960416879608168B960C168F9600169F2
:1015F0003961416979618169B961C169F961006ADB
:1016000038621E482E46E0621D49A6626162A061F2
:101610001C4860611C48E0631C4860641C48E66428
:10162000A0641C4820652046143004F0C9FAFD224D
:1016300052026801C0190146068720310E734E73AD
:101640006900C685891846630B8803866D1C8988E6
:10165000EDB24186022DECD307481921403886852A
:10166000C685068646867E67BE6749018030666607
:1016700001850948E065F8BDB0F5FF1F0000204175
:10168000CDCC4C3F0000B442000040400000344349
:101690000000B0400000C8436666E64070477047EF
:1016A00010B5012002F05AFE10BD0000FEB5594CE5
:1016B000594FA089002815D15C4958A08861786EDF
:1016C000A062084601F006FA20462C3000F065FDC5
:1016D0002046443000F061FD20465C3000F05DFDA6
:1016E0000120A0815248182500780C26012824D01A
:1016F00003282DD007284ED0092858D004287AD0A6
:10170000444801212C3000F098FC4248012144302B
:1017100000F093FC0C2347A210210A20009504F04E
:10172000D5FDA06AFFF7A6FC02460223102158202F
:101730000096019504F036FDFEBD364800212C30A0
:1017400000F07BFC7F21C905A06A04F0D1FF2CE0EA
:10175000304800212C3000F070FC7F27FF0514E09A
:101760003946A06A04F0C4FFA0620A2003F024FBFB
:10177000A06AFFF77FFC0246022310215820009642
:10178000019504F00FFD01F013F93F2004F03EFB3A
:101790000028E5D0BEE71F480021443000F04DFC92
:1017A0007F21C905A06A05F0A3F8A062B2E7194835
:1017B0000021443000F041FC7F27FF0514E039464A
:1017C000A06A05F095F8A0620A2003F0F5FAA06A75
:1017D000FFF750FC02460223102158200096019585
:1017E00004F0E0FC01F0E4F8192004F00FFB0028FD
:1017F000E5D08FE7FFE7A06A78660020A081FFF7B9
:101800004DFF03F01BFE022004F0E2FDFFF712FE85
:1018100080E70000BCF4FF1FB0F5FF1F5365742084
:1018200054617267657453707065640020F4FF1F23
:10183000C5F3FF1F53706565643A0000F8B50A20D0
:1018400004F0E4FA354C002807D0258E262004F059
:10185000DDFA0128608E03D003E0208E4542F5E7D3
:1018600040420021218661862818C10F08184010C7
:10187000FEF7BBFD00222A4BFFF7D8F9FEF7C8FDA3
:10188000264A014640321066526E104605F030F886
:10189000244C0746E06AFFF7EDFA234A234BFFF793
:1018A000C5F9FEF7B5FD00903846FFF7E3FA204A88
:1018B000204BFFF7BBF905460E460098FFF7DAFA12
:1018C0002A463346FEF75EFFFEF7A2FD0546E062BC
:1018D0001948874207DA1948874204D82946206BFD
:1018E00004F006FF20631649206B884202DC15498C
:1018F000884200D9216309484038C66801692069D7
:101900006061206B04F064FF07463146284604F00E
:101910005FFF394604F0ECFE2061F8BD70F5FF1F53
:101920000000943F00F0FF1F666666666666E63F4D
:10193000333333333333D33F00002041000020C121
:1019400000803B4500803BC570B50B4C6169206948
:101950000D4604F0CDFF06462088401CFFF7CEFB65
:10196000314604F035FF0549FFF7AEFA294604F089
:10197000BFFEE06070BD000000F0FF1F0000C84225
:10198000FEB5574C6089002816D15A4955A0886188
:101990005948006A6062084601F09CF820462C30E5
:1019A00000F0FBFB2046443000F0F7FB20465C30A3
:1019B00000F0F3FB012060815048514F007818255A
:1019C0000C26012824D003282CD007284BD0092826
:1019D00054D0042874D0424801212C3000F02DFB53
:1019E0003F480121443000F028FB0C2345A2102180
:1019F0001420009504F06AFC606AFFF73BFB024686
:101A0000042310213A200096019504F0CBFBFEBD83
:101A1000334800212C3000F010FB3946606A04F096
:101A200067FE29E02E4800212C3000F006FB14E070
:101A30003946606A04F05CFE60620A2003F0BCF97B
:101A4000606AFFF717FB0246042310213A20009634
:101A5000019504F0A7FB00F0ABFF3F2004F0D6F99E
:101A60000028E5D0C1E71E480021443000F0E5FA27
:101A70003946606A04F03CFF6062B6E7184800210E
:101A8000443000F0DAFA14E03946606A04F030FFBE
:101A900060620A2003F090F9606AFFF7EBFA0246F1
:101AA000042310213A200096019504F07BFB00F0FE
:101AB0007FFF192004F0AAF90028E5D095E7FFE799
:101AC0000D48616A016204F05BFC0020608103F054
:101AD000B5FC022004F07CFCFFF7ACFC85E70000BD
:101AE000BCF4FF1F446972656374696F6E204B64B8
:101AF0000000000020F4FF1F30F5FF1FC5F3FF1F9B
:101B00000000A0404B643A00FEB55E4CE08800281F
:101B100016D161495CA0886160488069E06108462F
:101B200000F0D8FF20462C3000F037FB2046443030
:101B300000F033FB20465C3000F02FFB0120E080FA
:101B400057483F2700783F0618250C26012827D044
:101B500003282FD0072853D009285CD004287CD034
:101B6000484801212C3000F068FA464801214430F1
:101B700000F063FA0C234BA210211420009504F00E
:101B8000A5FB4949E06904F023FEFFF773FA02461A
:101B9000042310213A200096019504F003FBFEBDBA
:101BA000384800212C3000F048FA3946E06904F04A
:101BB0009FFD2EE0334800212C3000F03EFA3A4FD2
:101BC00018E03F210906E06904F092FDE0610A2077
:101BD00003F0F2F83946E06904F0FAFDFFF74AFA3B
:101BE0000246042310213A200096019504F0DAFA07
:101BF00000F0DEFE3F2004F009F90028E1D0B9E74B
:101C000020480021443000F018FA3946E06904F019
:101C10006FFEE061AEE71B480021443000F00DFA92
:101C2000214F18E03F210906E06904F061FEE06100
:101C30000A2003F0C1F83946E06904F0C9FDFFF756
:101C400019FA0246042310213A200096019504F067
:101C5000A9FA00F0ADFE192000E004E004F0D6F887
:101C60000028DFD086E70D48E169816104F088FB38
:101C70000020E08003F0E2FB022004F0A9FBFFF764
:101C8000D9FB77E7BCF4FF1F446972656374696F21
:101C90006E204B700000000020F4FF1F30F5FF1F86
:101CA000C5F3FF1F4B703A0000002041F8B5244CEB
:101CB00005462078002841D0284603F0DBFF60610C
:101CC0000021A0616956814201DD002028701C4876
:101CD0002978007D1A4C401AC6B2583468782169B8
:101CE000884200D8002616486661583000F0F2FE9F
:101CF0001348743086616978016100F05DFE2069E7
:101D00006978C7B2814200D20F4600240AE0301938
:101D10001C21484342192001011B1E20133100F0F1
:101D2000C7FC641CBC42F2DB05491C228869504395
:101D3000401901220861827000200870F8BD00007F
:101D4000C8F3FF1F410210B50748002242700A2362
:101D500043720B0C037201234370090A4172027231
:101D600000F054F8002010BD0000024010B50C49EE
:101D7000486901221203104348610A4C6079000649
:101D8000FCD509487D21C9000068FEF75DFA401EB8
:101D90008006800E4030E0703020607110BD000081
:101DA000008004400000024050F0FF1FFFB54002D9
:101DB000C518042781B00C4600261FE012480021F8
:101DC000417006214172290C017201214170290ADA
:101DD0004172FC2129400172022141702178017277
:101DE0006178417203214170A1780172E1784172FA
:101DF000E419ED1900F00AF8F01986B2039886424A
:101E0000DCD3002005B0F0BD0000024010B572B672
:101E10003020074C60710749481F0160601D8847EA
:101E200062B660793321084000D0012010BD000067
:101E30000000024059F0FF1FF8B5002A7ED0540080
:101E400054438718012B41D0861A022B7BD0032BD9
:101E500076D0042B72D11546002600910098069A80
:101E6000C1B2B8B200F000FD0098761C401E009090
:101E70006800024671006A4371435118091B081A31
:101E8000401C002801DD6D1E7F1EAE42E6DB00987F
:101E9000069AC1B2B8B200F0E7FC284641007000D3
:101EA0006D1E891E0246694372438918091B081872
:101EB000401C7F1E002803DC0098401E761C00900A
:101EC000002DE4DC0098C1B2B8B276E000970D4670
:101ED000164600270098E9B280B2069A00F0C4FCCA
:101EE00070007F1C01467A0071437A438918091BF0
:101EF000081A401C6D1C002803DD0098401E761E49
:101F00000090B742E6DB0098E9B280B2069A00F092
:101F1000ABFC00993046491E009141007800761EC6
:101F2000891E024671437A438918091B0818401C10
:101F3000002801DC6D1C7F1C002E02E040E002E066
:101F40003FE0E0DC75E01546002700910098069A16
:101F5000C1B2B0B200F088FC00987F1C401C009019
:101F60006800024679006A4379435118091B081A30
:101F7000401C002801DD6D1E761CAF42E6DB009898
:101F8000069AC1B2B0B200F06FFC2846410078005A
:101F90006D1E891E024669437A438918091B081879
:101FA000401C761C002803DC0098401C7F1C00901D
:101FB000002DE4DC0098C1B2B0B2069A00F054FCE7
:101FC000F8BD00960D46164600270098E9B280B28B
:101FD000069A00F049FC70007F1C024679007243AB
:101FE00079435118091B081A401C6D1E002803DD97
:101FF0000098401C761E0090B742E6DB0098E9B2DC
:1020000080B2069A00F030FC00993046491C0091DD
:1020100041007800761E891E024671437A43891872
:10202000091B0818401C002801DC6D1E7F1C002EB7
:10203000E4DC0098E9B280B2BFE77CB50446C06832
:102040000D460E287DD3A0681E287AD3206903F0A0
:102050000AFEA168884274D825750C26616820683C
:10206000002D11D00122801D891D00F02EF920695C
:1020700003F0F9FDA168081A2188400840180021E2
:1020800080B2009601916CE00022801D891D00F055
:102090001CF9012500952068616803230622801D34
:1020A000891DFFF7C9FE0095A16820684218616884
:1020B000801D0B46D21F00F094FA0095A16820689D
:1020C0000423401861680622C01F891DFFF7B4FE73
:1020D0000095E1686068A268411820684B1E82186C
:1020E000801D491ED21F00F07CFA0095E1686068EF
:1020F000A26841182068012380180622C01FC91F4A
:10210000FFF79AFE00956168E0680B182068891D4A
:102110000246DB1F00F065FA0095E1686068022363
:10212000411820680622801DC91FFFF785FE009513
:102130006168E068A2680B1820688018421E401E83
:1021400000E018E0891DDB1F00F04BFA206903F066
:102150008AFDA168081A21884008401880B20096BC
:102160000195E168A2880C394908511889B20C23FD
:10217000226904F0C3F97CBD10B503F049FF10BD1E
:1021800038B51446C9B280B26A4600F0AAFB684668
:10219000017801206140884338BD7CB50446C068A1
:1021A0000E287BD3A0681E2878D3206903F05BFD3E
:1021B000A168884272D801250095206861680323D0
:1021C0000622801D891DFFF737FE0095A168206853
:1021D00042186168801D0B46D21F00F002FA00957C
:1021E000A16820680423401861680622C01F891D69
:1021F000FFF722FE0095E1686068A2684118206838
:102200004B1E8218801D491ED21F00F0EAF900956E
:10221000E1686068A26841182068012380180622DE
:10222000C01FC91FFFF708FE00956168E0680B1822
:102230002068891D0246DB1F00F0D3F90095E16894
:1022400060680223411820680622801DC91FFFF71D
:10225000F3FD00956168E068A2680B182068891D8D
:102260008018421E401EDB1F00F0BBF9207D0C26AB
:10227000002814D0206861680122801D891D00F0AB
:1022800024F8206903F0EFFCA168081A21884008AF
:102290004018002180B2009601910BE014E0206903
:1022A00003F0E1FCA168081A21884008401880B2B8
:1022B00000960195E168A2880C394908511889B245
:1022C0000C23226904F01AF97CBDF7B5D8B00C468E
:1022D0000546802874D2402C72D2E1B2A8B250AA2E
:1022E00000F0FFFA50A802785A98D107C007C90F2A
:1022F000C00F814264D021462846559400F0CCFAA4
:102300000646569050A802782146284600F0F1FA79
:102310005490801940082994019428900124009039
:10232000254601E0002D7BD0E90028A80818803858
:10233000816F5291C66F50A86D1E0278EDB2314682
:10234000529800F0A9FA539050A80278314652985A
:1023500000F0CFFA519050A80278761C314652987E
:10236000FFF70EFF002804D050A80278314652989B
:1023700015E0539F08E050A8027831463846FFF731
:10238000FFFE002803D17F1C51988742F3D9519852
:102390008742C7D850A8529702783146384600F095
:1023A000A8FA519050A802783146529800F074FA79
:1023B0005390142C1FD2471E58975990074617E088
:1023C0007EE050A80278711E3846FFF7D9FE00283B
:1023D00027D059995898884207D05891E00069460B
:1023E0000F504018641CE4B24660142C03D27F1CCA
:1023F00051988742E5D9539951985A9B4018400803
:1024000052905198F1B282B2539880B200F0D5F850
:10241000142DA0D2539F59977F1E5897599F19E0AA
:102420001FE05997E1E750A80278711C3846FFF782
:10243000A7FE002813D059995898884207D0589180
:10244000E80028A90F5040186D1CEDB24660142D0D
:1024500081D27F1C5198874200D97CE7E3E75997E6
:10246000F5E7002C20D0E100684608188038816F1D
:102470005291C66F50A8641E0278E4B23146529859
:1024800000F00AFA539050A802783146529800F0B2
:1024900030FA074650A80278761E31465298FFF768
:1024A0006FFE00280ED020E0002D00D03AE75498AF
:1024B0005A9B82B25598C1B2569880B200F07DF80E
:1024C0005BB0F0BD539809E050A8027831465198AE
:1024D000FFF756FE002804D15198401C5190B84295
:1024E000F2D95198B842BCD8529050A802783146DF
:1024F000529800F0FEF9074650A8027831465298EB
:1025000000F0CAF95390142D20D25990401E5890D3
:10251000599818E050A80278711C5198FFF730FEC6
:10252000002826D059995898884208D05891E80038
:1025300028A9519A0A5040186D1CEDB24660142D1E
:1025400004D25198401C5190B842E3D95398BAB282
:102550003818400852905398F1B280B25A9B00F05C
:102560002CF8142C96D253985990401E5890599894
:102570001BE051985990E2E750A80278711E5198DB
:10258000FFF7FEFD002815D059995898884208D0C9
:102590005891E0006946519A0A504018641CE4B210
:1025A0004660142CDED25198401C5190B84200D99C
:1025B00070E7E1E751985990F3E7F8B515461E46E4
:1025C0000F460446A84202D9D0B2254604463246F8
:1025D0003946204600F048F9641CA4B2A542F6D260
:1025E000F8BDFFB583B0054605980C46411B06981B
:1025F0000027021BFF43002902DD0120029002E0B8
:10260000002904DA0297002A09DD012711E0C2B28D
:10261000E1B2A8B20C9B00F02CF907B0F0BD002A83
:1026200007DB0598E1B282B2A8B20C9BFFF7C5FFA9
:10263000F3E70298484339465143420000924A006A
:10264000019288421CDB161A0098101A00900EE0C6
:10265000E1B2A8B20C9A00F007F902982D18002EEA
:1026600002DA0198361802E000988619E4190598F4
:102670008542EDD1E1B2A8B20C9A00F0F5F8CCE7B2
:102680000098461A801A01900EE0E1B2A8B20C9AA6
:1026900000F0EAF8E419002E02DA0098361803E098
:1026A0000198861902982D1806988442EDD1E1E729
:1026B000FEB514460D460646802805D8402D03D8A1
:1026C000022D01D3122E01D20020FEBDE0680028A9
:1026D000FBD0A27830461023A91E12380C27002AFE
:1026E00012D06268002A04D0C9B2C0B2009303F0CD
:1026F00096FD002001900097A9B2B0B20C23E268C9
:1027000003F0FCFE0120FEBDA268002A05D0009364
:10271000C9B2C0B2102303F082FD0120EAE7000035
:1027200010B5002902D00121002401E0002101247C
:102730000448FFF782FC034821461830FFF77DFC70
:1027400010BD00008CF3FF1FFEB5816804461429FC
:102750003CD3E068142839D325686A18802A35D814
:1027600061680B18402B31D800272846521E5B1E8B
:10277000009700F0F4F8012500956168E068A26810
:102780000B1820685B1E8218521E00F0CAF82088C1
:102790002189304B4118491E8AB2217980B20E310D
:1027A000C9B21B78FFF709FF0095A168206842189D
:1027B0006168521E0B460D3300F0D1F8206903F01A
:1027C00067FA0246A068811E8A4201D90020FEBD38
:1027D00080B20C26019700960290A0883346401CD8
:1027E00081B22088226980B203F0E0FE1A480775A2
:1027F000A16901612168491D0160E2686168891869
:10280000C268891A091F4160FFF7C7FC12481830D7
:102810000575E1690161A268216889188268891AD1
:10282000891F0160E26861688918C268891A091FF6
:102830004160FFF7B2FC00960195A0880C2311308F
:1028400081B220886269801D80B203F057FE0120AA
:10285000FEBD000088F3FF1F8CF3FF1F0148007DC1
:10286000704700008CF3FF1F10B5C0B203F0E6FB09
:1028700010BDF8B515461E4607460C46A94201D9BB
:102880000D461446324621463846FFF7EDFF641CDC
:10289000E4B2A542F6D2F8BDF8B5D507441EED0F57
:1028A0000E46002C0ED0F1B2A0B26A4600F019F824
:1028B00068460078C007C00FA84201D0601CF8BD70
:1028C000641EF0D1F1B200206A4600F00AF86846B2
:1028D0000078C007C00FA84201D00120F8BD002039
:1028E000F8BD10B51446C0B203F0C4FB2070002040
:1028F00010BDF8B5441CD5070E46ED0F0DE0F1B242
:10290000A0B26A46FFF7EDFF68460078C007C00F27
:10291000A84201D0601EF8BD641C802CEFD380203B
:10292000F8BDF8B51C4615460E46074692B2C9B228
:1029300080B2069BFFF741FEAAB2E1B2B8B2069B95
:10294000FFF73BFEE2B2F1B2B8B2069BFFF791FF90
:10295000E2B2F1B2A8B2069BFFF78BFFF8BDF8B563
:1029600017461E460C460546B84201D9154607468D
:10297000B44201D91C460E46B44206D1BAB2E1B205
:10298000A8B2069BFFF719FEF8BDBD420DD1F2B209
:10299000E1B2A8B2069BFFF76CFFF8BDBAB2E1B294
:1029A000A8B2069BFFF709FE641CB442F6D9F8BD35
:1029B00010B503F073FB10BDF8B5040052D0A26847
:1029C0000A2A4FD3E06814284CD30125009561688A
:1029D0000B1820685B1E8218521EFFF7A2FF082604
:1029E0000096208921780838400808182179C0B25B
:1029F000491CC9B233461C4A03F011FC00962079E9
:102A0000217B227840180938C1B220890823083870
:102A100040081018144AC0B2083203F000FC0095B8
:102A2000A168206842186168521E09310B46FFF701
:102A3000D8FD0095E1686068A268411820680A39ED
:102A400082180B46521EFFF7CCFDE06862692169CF
:102A500014388A4202D25043FDF7F6FBE06120466B
:102A600000F004F8F8BD0000FA8F0000FEB504463F
:102A70008189808B091A14398EB22188491C8AB247
:102A80000192A188721E0A318DB28018218900221C
:102A90000092C91E019A89B280B257182B183A4683
:102AA00029460198FFF75BFF21696069814201D8DF
:102AB000002005E0A069491E7043FDF7C5FB80B208
:102AC000012100912918E269019853183A46FFF74D
:102AD00046FFFEBDFEB58168044614293BD3E3687A
:102AE000142B38D320684218802A34D86168CB1858
:102AF000402B30D80025521E5B1E0095FFF72FFF9C
:102B0000012600966168E068A2680B1820685B1EC9
:102B10008218521EFFF705FF20882189174B4118A4
:102B2000491E8AB2217980B20E31C9B21B78FFF7F3
:102B300044FD0096A168206842186168521E0B4649
:102B40000D33FFF70CFFA06903F0A9F80246A06857
:102B5000811E8A4201D90020FEBD80B20C21019560
:102B600000910290A0880C23401C81B22088A269A9
:102B700080B203F01BFD0120FEBD000088F3FF1FA3
:102B800010B5192003F042F9012801D0012010BD31
:102B9000002010BD10B5182003F038F9012801D02D
:102BA000012010BD002010BD10B53F2003F02EF90C
:102BB000012801D0012010BD002010BDF3B5574CF5
:102BC0008BB0E16908910C9803F092FE21690091A5
:102BD00003F0FEFD616903F08BFD25464035029050
:102BE000686804900146606803F082FEA96803915A
:102BF00003F07EFE4A4902460860E8680123064663
:102C0000DB075840486007468860A0680190C860AC
:102C10001046009903F0DCFD296803F069FD069079
:102C20003846009903F0D4FD0746049903F060FD8F
:102C300007903846039903F05BFD059000990198D1
:102C400003F0C6FD314603F053FD099002990B983D
:102C500003F04EFE206200902078FEF74FFA0490B9
:102C6000069903F0B5FD606206460599049803F0E5
:102C7000AFFD0746A0623146049803F0A9FDE16864
:102C800003F036FDE062014601903046FEF71CF984
:102C90002063039038460199FEF716F960630190AE
:102CA000A6630799049803F093FD0746E063314655
:102CB000039803F08DFD069903F00EFE2860394657
:102CC000039803F085FD079903F006FE686031461E
:102CD000019803F07DFD059903F0FEFDA8603946DB
:102CE000019803F075FD099903F0F6FDE86000997D
:102CF000039803F06DFD029903F0FAFC60610099FE
:102D0000019803F065FD089903F0F2FC0146E061CB
:102D10000C9803F0EDFDA0610DB0F0BD94F0FF1F25
:102D200098FDFF1F10B52C2003F070F810BD10B5F2
:102D300001212D2003F0D6F810BD10B500212D2063
:102D400003F0D0F810BD10B501212C2003F0CAF813
:102D500010BD10B500212C2003F0C4F810BD10B533
:102D6000012200212C2003F065F810BD10B50122CE
:102D700011462C2003F05EF810BD0000F0B50021D4
:102D8000104D114F114B0A4604261C204843401990
:102D900046708C008270476082601C5902614261FB
:102DA000491CC9B2C46082610429EED30120A87015
:102DB000074828610748E86202488C306863064883
:102DC0006866F0BD300100200A90000000F4FF1F8B
:102DD000855D0000555D00003D5D0000F8B5674E63
:102DE0007068FEF763FF664900270878002800D066
:102DF000F760624C583401285BD0072854D13E2339
:102E00007522122101200097FFF7A9FDB0691C214E
:102E100048437168401830618770B069401CB061E8
:102E200072685178491E814200DCB161B0691C2191
:102E30004843801801213061817072681078401C0D
:102E400043B21370204651782469A14205D80D463B
:102E50008B420EDB491E11700BE0E5B2641EA342EB
:102E600007D914700269891A4269914201D9521C2A
:102E70004261002410E041481C2158304069484319
:102E8000716841181C2060430A182001011B1E2094
:102E90001331FFF70DFC641CAC42ECDB3748B16921
:102EA00074308161FFF7E2FD35480078042849D08D
:102EB0004DE03E237522122101200097FFF74FFDC0
:102EC000B1691C2251437268881830618770B069FB
:102ED000401EB061002800DCB761B0691C21484386
:102EE0007168401801213061817071680878401E56
:102EF00042B20A704D78236920469D4203D8002AC9
:102F00000ADA0F7008E0DDB2002A05DA0F704169B5
:102F1000002901D0491E6161002410E017481C21DE
:102F2000583040694843716841181C2060430A18B2
:102F30002001011B1E201331FFF7BAFB641CAC42B9
:102F4000ECDBABE730690069002800D08047F0680F
:102F5000411CF16064280FDDF76030694169002988
:102F600008D0877070691C2148437168401801219E
:102F70003061817002F0FCFAF8BD0000C8F3FF1F59
:102F8000C5F3FF1F8307FF22DB0E9A408907090E56
:102F9000994000280BDA0007000F0838830808481A
:102FA0009B001818C36993430B43C36170478308A0
:102FB00004489B001818036893430B430360704751
:102FC00000ED00E000E400E0F0B50021134B144CEC
:102FD000144E0A4605251C204843C0188261026130
:102FE000446082608F00827045704261491CF759CD
:102FF000C9B2C7600529EED3012098700A4818614C
:103000000A48D8620A4898640A480449586603483E
:103010008C398030816008490160F0BD4802002091
:103020000A900000E4F3FF1FE15D0000C95D0000AD
:10303000B15D0000995D0000555D000010B5074CC2
:10304000E068C00704D006480068002800D0804728
:10305000E06801210843E06010BD000000710340FA
:103060007CF0FF1F10B5074CE069C00704D006488C
:103070004068002800D08047E06901210843E061F2
:1030800010BD0000007103407CF0FF1FF0B500216F
:10309000114C124B124E0A4603251C2048430019BE
:1030A00045708261026143608F008260827042617C
:1030B000491CF759C9B2C7600329EED3012006495C
:1030C000A0708C31A161074820610749E162024983
:1030D0008C392165A064F0BDBC0100200A9000007D
:1030E00014F4FF1F555D0000F95D000010B5074C9A
:1030F0006078002808D0201DFFF7ECFC2046203027
:10310000FFF75AFC0020607010BD00007CF4FF1F28
:10311000FEB5FFF7EBFFC6490020085601250C2736
:103120000626C44C002804D001287BD002286FD08A
:103130004AE10623C0A20F210320009703F0C6F83E
:10314000BC48019740380096C28D03230F211B20F5
:1031500003F028F80623BAA20F214120009703F0BC
:10316000B5F801970096E28903230F215F2003F051
:1031700019F80623B4A232210320009703F0A6F821
:10318000AC4CFF214034606DC905C84214D30623FE
:103190002D2232211B200097019502F0A3FF01216F
:1031A000606DC9074840FDF73FFF02B2032332219B
:1031B00021200197009607E0FDF736FF02B20323B6
:1031C00032211B200197009602F0ECFF0623A0A2FB
:1031D00032214120009703F079F8FF21A06DC90545
:1031E000C84216D306232D2232215A20009701957A
:1031F00002F078FF0121A06DC9074840FDF714FFD8
:1032000002B203233221602001970096DAE009E040
:103210008AE0FDF709FF02B2032332215A20019709
:103220000096CFE006238CA20F210320009703F025
:103230004DF801970096228E04230F211B2002F0E7
:10324000B1FF062386A20F213720009703F03EF836
:1032500001970096628E04230F21552002F0A2FFF1
:10326000062381A221210320009703F02FF82C22AE
:10327000A25E002A10DA06232D2232211B2000979D
:10328000019502F02FFF2C2001970096205E03236A
:1032900042423221212004E0042321211B200197F6
:1032A000009602F07FFF062371A2212137200097AC
:1032B00003F00CF82E22A25E002A10DA06232D223B
:1032C000322155200097019502F00CFF2E20019726
:1032D0000096205E0323424232215B2004E0042357
:1032E000212155200197009602F05CFF062362A27F
:1032F00032210320009702F0E9FF4E4C0197403C39
:103300000096228E032332211B2002F04BFF06235E
:1033100059A232213720009702F0D8FF019700967A
:103320000323228E32214CE0062355A20F210320D5
:10333000009702F0CBFF3F4C5349403CE06803F05C
:1033400047FAFDF797FE024604230F211B20019741
:10335000009602F027FF06234CA20F21372000978A
:1033600002F0B4FF4849206903F032FAFDF782FE0B
:10337000024604230F2155200197009602F012FF08
:10338000062344A221210320009702F09FFFA06999
:10339000FDF770FE0246042321211B2001970096B1
:1033A00002F000FF06233DA221213720009702F002
:1033B0008DFF206AFDF75EFE04230246212101975E
:1033C0000096552002F0EEFE364819490078091D96
:1033D000072809D001281CD0042804D1081F4570F3
:1033E000002002F0F5FFFEBD114A1078401E40B2E9
:1033F00010705570002801DA022013E000201056EA
:10340000002811D0012811D00228ECD126A0886113
:10341000FEBD074A1078401C40B21070557002285B
:10342000ECDD00201070E9E723A0F0E727A0EEE72D
:103430007CF4FF1F70F5FF1F48464C3A0000000067
:103440004846523A000000004841453A000000005A
:103450005641453A000000004C5F453A000000002C
:10346000525F453A000000004C5F503A00000000F7
:10347000525F503A000000004E6F723A00000000A8
:10348000534B503A0000000000002041534B493A92
:1034900000000000444B503A00000000444B443A06
:1034A00000000000C5F3FF1F5049442050617261C5
:1034B0006D657465727300004D6F746F722050619A
:1034C00072616D65746572730000000053656E7300
:1034D0006F7220506172616D6574657273000000D7
:1034E000F0B50346084649008C465C5A15E0521E6A
:1034F000904203DA5100595AA142F8D25100904249
:1035000004DA5D5AA54201D8401CF8E7904204DA7B
:1035100046009D5B5F5A9F535D529042E8DB41003D
:103520005D5A62469D525C52F0BD0000FEB55E4C95
:103530006088002816D160495CA088615F480069F6
:1035400060610846FFF7C6FA20462C30FEF725FEDC
:1035500020464430FEF721FE20465C30FEF71DFE7B
:103560000120608056483F2700783F0618250C262A
:10357000012827D003282FD0072853D009285CD052
:1035800004287CD0484801212C30FEF756FD4648DF
:1035900001214430FEF751FD0C234AA210211420D2
:1035A000009502F093FE4849606903F011F9FDF7B8
:1035B00061FD0246042310213A200096019502F095
:1035C000F1FDFEBD384800212C30FEF736FD3946AE
:1035D000606903F08DF82EE0334800212C30FEF7AF
:1035E0002CFD394F18E03F210906606903F080F88F
:1035F00060610A2001F0E0FB3946606903F0E8F8F9
:10360000FDF738FD0246042310213A20009601956B
:1036100002F0C8FDFFF7CCF93F2002F0F7FB0028CD
:10362000E1D0B9E7204800214430FEF706FD3946D5
:10363000606903F05DF96061AEE71B48002144302A
:10364000FEF7FBFC204F18E03F210906606903F0FC
:103650004FF960610A2001F0AFFB3946606903F061
:10366000B7F8FDF707FD0246042310213A20009623
:10367000019502F097FDFFF79BF9192000E004E0A7
:1036800002F0C4FB0028DFD086E70C4861690161C5
:1036900002F076FE0020608001F0D0FE022002F0F1
:1036A00097FEFDF7C7FE77E7BCF4FF1F5370656513
:1036B00064204B690000000020F4FF1F30F5FF1F5D
:1036C000C5F3FF1F4B693A0000002041FEB55E4C78
:1036D0002088002816D160495CA088615F48C068D6
:1036E00020610846FFF7F6F920462C30FEF755FD1D
:1036F00020464430FEF751FD20465C30FEF74DFD7C
:103700000120208056483F2700783F0618250C26C8
:10371000012827D003282FD0072853D009285CD0B0
:1037200004287CD0484801212C30FEF786FC46480E
:1037300001214430FEF781FC0C234AA21021142001
:10374000009502F0C3FD4849206903F041F8FDF7F8
:1037500091FC0246042310213A200096019502F0C4
:1037600021FDFEBD384800212C30FEF766FC3946AD
:10377000206902F0BDFF2EE0334800212C30FEF717
:103780005CFC394F18E03F210906206902F0B0FFC8
:1037900020610A2001F010FB3946206903F018F877
:1037A000FDF768FC0246042310213A20009601959B
:1037B00002F0F8FCFFF7FCF83F2002F027FB00289E
:1037C000E1D0B9E7204800214430FEF736FC394605
:1037D000206903F08DF82061AEE71B4800214430DA
:1037E000FEF72BFC204F18E03F210906206903F06B
:1037F0007FF820610A2001F0DFFA3946206902F0E3
:10380000E7FFFDF737FC0246042310213A2000961B
:10381000019502F0C7FCFFF7CBF8192000E004E0A7
:1038200002F0F4FA0028DFD086E70C482169C16075
:1038300002F0A6FD0020208001F000FE022002F030
:10384000C7FDFDF7F7FD77E7BCF4FF1F5370656513
:1038500064204B700000000020F4FF1F30F5FF1FB4
:10386000C5F3FF1F4B703A000000204110B500F077
:1038700001F810BD70B50F4900244868002805D034
:103880004868401E486001D1012008708868401CCB
:1038900088608868084A904201D100208860074DFE
:1038A00014206043401901F0E7FA641CE4B2062CCE
:1038B000F6D370BD88F0FF1FFFFFFF7FE8FAFF1F00
:1038C00010480F498180012141702321017011208E
:1038D0000D49000548620D48002141700C4A9621AF
:1038E00011701A2101700179C906FCD40179090708
:1038F000890FFBD107490868400848608860704715
:1039000003E800000020054000800440004006401D
:103910000050064038F0FF1F70B5284C6078002832
:1039200005D10120607020469430FEF70DFF244D34
:103930002878072810D1214800219430FEF7F0FEA6
:103940001E4800219430FEF7EBFEFFF731F83F20D0
:1039500002F05CFA0028FAD02878012810D1174824
:1039600001219430FEF7DCFE144801219430FEF76B
:10397000D7FEFFF71DF8192002F048FA0028FAD008
:103980002878042811D100206070182002F03EFA37
:103990000028FAD009489430FEF760FF012805D0CE
:1039A00001F04CFD022002F013FD70BD01F046FD58
:1039B000022002F00DFDFDF772FE70BDC8F3FF1F7F
:1039C000C5F3FF1FF8B5254A002013790146137986
:1039D0009B063ED5D279224D00262B78214C002B18
:1039E00014D0012B17D0022B1DD0032B1ED0E7784B
:1039F0007F1D9F4202D9E2545B1C2B70E3782F7825
:103A00005A1DBA4225D12E701A1D17E0AA2AF5D1E7
:103A10002270012205E0AF2A01D02E70EEE762701D
:103A200002222A70EAE7A2700322FAE7E270042277
:103A3000F7E7275C7918401CC9B2C0B28242F8D8B7
:103A40000848001D185C884201D06E7001E0A07823
:103A50006870054801F040FAF8BD000000A006407B
:103A6000E4F0FF1FC0FEFF1F70FBFF1F30B4744661
:103A7000641E2578641CAB4200D21D46635D5B006A
:103A8000E31830BC184700004900CA020243100086
:103A900000D004204A0D01D001221043044A490DF0
:103AA000914201D102210843012800D1052070472D
:103AB000FF070000F8B504464F1EC800083821185B
:103AC00015461E46086849683A4606239A4310D0B0
:103AD0002A463346FDF7AAF83A46D200083AA31818
:103AE0001A687F1E5B68FCF74DFE06223B46934337
:103AF000EED1022F23D0042F11D0062F2FD12A462A
:103B00003346FDF793F8E36AA26AFCF73BFE2A46C8
:103B10003346FDF78BF8636A226AFCF733FE2A46C8
:103B20003346FDF783F8E369A269FCF72BFE2A46CA
:103B30003346FDF77BF863692269FCF723FE2A46CA
:103B40003346FDF773F8E368A268FCF71BFE2A46CC
:103B50003346FDF76BF863682268FCF713FEF8BD87
:103B600010B50122FDF7CEFA10BD10B5FCF70AFE24
:103B700010BD0000034A10B500201107FDF7C2FA7E
:103B800010BD000001FDFFFF0020704710B5074980
:103B90004A698B031A434A6105498B69012422460D
:103BA000824013438B614C6010BD000000800440D4
:103BB00000B0034089070A0F064920328A60C00618
:103BC000C00E086008680006FCD508690005000DF5
:103BD0007047000000B00340F0B589B004460D46C0
:103BE0004800069172494008884215DB71498842B5
:103BF00003DC884207D1002C05D020462946FFF778
:103C0000AFFF09B0F0BD6C48002D02DD6B4909B073
:103C1000F0BD6B4909B0F0BD6A49884211DA6A49C2
:103C200088420BDA20462946FFF72EFF042801D1EF
:103C3000FFF7A0FF2046294609B0F0BD0026F64355
:103C40005DE06D0061496D08884232DA6049884262
:103C500019DA0026012332469B0720462946FCF745
:103C600091FD07460191012220462946FDF74AFAB7
:103C70000022584BFCF793FD3A46019BFCF7B2FD3E
:103C800004460D463BE001260022524B20462946C1
:103C9000FCF778FD0746009100224E4B204629464E
:103CA000FCF77DFD3A46009BFCF79CFD04460D4663
:103CB00025E04949884219DA02260022474B20466E
:103CC0002946FCF7B3FF0022424BFCF75BFD074699
:103CD00002910022414B20462946FCF760FD3A46FE
:103CE000029BFCF77FFD04460D4608E003262246B2
:103CF0002B4600203A49FCF775FD04460D46224646
:103D00002B4610461946FCF791FF07460B46024624
:103D10000191FCF78BFF0246029032480B4603915B
:103D200006217844FFF7C6FE3A46019BFCF77EFF6A
:103D300000902D48019105217844039B029AFFF7DA
:103D4000B9FE039B029AFCF771FF02460B460199EC
:103D50000098002E0BDAFCF715FD22462B46FCF7E7
:103D600065FF22462B46FCF725FD09B0F0BDFCF7A8
:103D700009FD22462B46FCF759FF1C4AF6007A44FF
:103D800093191A685B68FCF70AFD22462B46FCF77C
:103D900006FD174A7A4493191A685B68FCF70AFD16
:103DA000069A002AE1DA0122D207514009B0F0BD9B
:103DB000000010440000F07F182D4454FB21F93F0F
:103DC000FB21F9BF0000DC3F0000203E0000F33F74
:103DD0000000E63F0000F03F008003400000F83F95
:103DE0000000F0BF32540000F45300008E53000076
:103DF00058530000F0B51FB4039B54425D001646B3
:103E000026439C46F40F6D084B004E4E5B082C4336
:103E10008E46B44205D847420743FC0F1C43B442C8
:103E200004D96346FFF7A1FE05B0F0BD464E6644D7
:103E3000164309D0CC0F6646B61702273E402643EC
:103E400004461C4304D00BE0FFF7C6FE05B0F0BDEE
:103E5000002EFBD0012EF9D0022E32D0032E34D00A
:103E600014462C430BD0374CA54216D1A3420AD19D
:103E7000012189078D438B43194603950DE0704658
:103E800000280FDB25E0314F7F44002E0ED0012E9D
:103E900010D0022E15D0032E17D0A3421DD170468C
:103EA000002816DA2A482B4905B0F0BD7968386831
:103EB00005B0F0BD01227968D2073868514005B0DD
:103EC000F0BD2348244905B0F0BD2148234905B081
:103ED000F0BD1F48224905B0F0BD5B1B1B153C2BF4
:103EE00002DD1B481E490FE06446002C05DA3C2425
:103EF000E34202DA0020014606E0039BFCF772FC75
:103F000049004908FFF768FE002EE4D0012E0BD0CF
:103F1000144A154B022E0CD0FCF741FC0C4A0E4BF8
:103F2000FCF73DFC05B0F0BD0122D207514005B0C1
:103F3000F0BDFCF734FC064A074BFCF73BFC05B030
:103F4000F0BD00000000F07F000010C0FC52000037
:103F5000182D4454FB21F9BFFB210940FB2109C066
:103F6000FB21F93F075C143326A6A13C10B501F0F4
:103F70009DFE62B6FDF7FAFE00F050FF00F092FFE2
:103F800000F00AFD00F0B6F900F0F3F800F0B2FE20
:103F900000F007F800F03CFA00F0F2F900F036FE0D
:103FA00010BD10B5002001F03BFB012001F038FBF3
:103FB000012200210A2001F03DFF012200212620DC
:103FC00001F038FF10BD000010B5002001F020FB0B
:103FD000084C218E40182086012001F019FB618ECB
:103FE00040186086002001F00BFB012001F008FB67
:103FF00010BD000070F5FF1FF8B5089C0D461E4669
:10400000079FA047A847B047052000F0E5FEB84746
:10401000052000F0E1FEA047F8BDF8B5089C0D466C
:104020001646079FA047A847B047052000F0D4FEDA
:10403000B847052000F0D0FEA047F8BD0FB4FEB58C
:10404000002508982C460D9F0C9E80470E988047AF
:10405000052000F0C1FEB8476006040EB0470128F5
:1040600001D1641CE4B2032000F0B6FE6D1CEDB279
:10407000082DEBD30F9808AD00280E9801970096F5
:1040800002900FCD06D0FFF7B7FF2046FEBC08BC5C
:1040900004B01847FFF7C1FFF7E70FB4F8B51746AC
:1040A00000240C9E0D9D8847B047E80901D0B84711
:1040B00001E0099880476806050E052000F08CFE97
:1040C0000B988047052000F087FEB047022000F0E3
:1040D00083FE641CE4B2082CE7D3F8BC08BC04B02F
:1040E0001847F8B514461D46089F079E8847A04705
:1040F000B047042000F070FEA847042000F06CFEDA
:10410000B847F8BDF8B514461D46089F079E884776
:10411000B847A847042000F05FFEB047A04704203E
:1041200000F05AFEF8BD0FB4FEB50CACE0CC089818
:10413000002480470A988047012000F04DFEB047D8
:10414000012000F049FE0EE0641CE4B2FA2C0AD90A
:104150006846E0C008AC0FCCFFF7D4FF0120FEBCDE
:1041600008BC04B01847A8470028EDD1B847002084
:10417000F5E710B500F082F800F05AF810BD000025
:1041800070B5054629490001441820688047690038
:1041900005226B180026002832D02179052901D28A
:1041A000227170BD0A2902D2491C217170BD6900BB
:1041B000A07A6D186D1C002804D10120A072E8B20D
:1041C00000F080F821890029F0D0E088884208D2E8
:1041D000401C80B2E08021898842E7D1DB1CD8B244
:1041E0000BE0E07A0028E1D0207B401CC0B22073B5
:1041F000E17A8842DAD32673E8B200F063F870BD42
:104200002079052801D922710CE0002802D0401E37
:10421000207107E0A07A012804D19B1CA672D8B2B5
:1042200000F050F82673E68070BD0000B8F6FF1F5E
:1042300070B50E4800210346817264240C330225B8
:104240000A46C17214260801C018048105718272E1
:10425000491C0273C9B2C6720329F4D3044818601A
:10426000044818610448186270BD0000ACF6FF1FD6
:10427000A92B0000952B0000812B000010B5012216
:1042800000213F2001F0D6FD01220021182001F07D
:10429000D1FD01220021192001F0CCFD10BD00004C
:1042A000074A917AD07A814201D100207047505C50
:1042B000491CC9B291720A29F8D300219172704742
:1042C000ACF6FF1F0549CA7A8854C87A401CC0B2B0
:1042D000C8720A2801D30020C8727047ACF6FF1FCD
:1042E00010B500242046FFF74BFF641CE4B2032CFA
:1042F000F8D310BD10B500220121082001F09AFD6D
:1043000000220121092001F095FD10BD10B5002803
:1043100004D001280BD0022808D103E00021082096
:1043200001F0E0FD0021092001F0DCFD10BD0021BD
:104330000820F9E710B5002804D001280BD0022886
:1043400008D103E00121082001F0CCFD0121092062
:1043500001F0C8FD10BD01210820F9E710B50028C3
:1043600004D0012809D0022806D102E0082001F07B
:10437000D3FD092001F0D0FD10BD0820FAE70000B0
:1043800010B50D4C002322461946022001F0BEF95B
:10439000002322460121022001F0B8F90023224621
:1043A0000321022001F0B2F9002322460421022059
:1043B00001F0ACF910BD0000983A000070B5054658
:1043C0000C1E06DD0A460021022001F07DF90022C4
:1043D00005E000221146022001F076F96242012137
:1043E000022001F071F9002D06DD2A460421022089
:1043F00001F06AF9002205E000220421022001F008
:1044000063F96A420321022001F05EF970BD0000E9
:1044100010B500F0AFF880216B2000F051FAC820F1
:1044200000F0CAFC00216B2000F04AFA032000F0E3
:104430000FFA002000F005FA642000F02AFA0021AB
:104440006A2000F03DFA0021232000F039FA802193
:10445000372000F035FA0021382000F031FA7520BD
:1044600000F062F9682801D0012010BD01216B2005
:1044700000F026FA00216C2000F022FA642000F0FF
:1044800008FA064801F086F80448543801F082F82A
:104490000248543001F07EF8002010BD18FEFF1FC6
:1044A000FEB52D4A911E1446881E00F095F82A4A42
:1044B000921D911E881E00F0ABF927493C2040391F
:1044C000085EFCF713FE01900020205EFCF70EFE54
:1044D00000900420205E0A38FCF708FE07464726B5
:1044E0008F203606C005B74204DD0146384602F08B
:1044F000FFF90746194D1A4E3846FCF7BBFC2A4611
:104500003346FCF76FF9FBF783FF05460098FCF78D
:10451000B1FC06460F460198FCF7ACFC32463B4620
:10452000FFF768FC00220F4BFCF780FB03225207C9
:104530000D4BFCF757F9FBF76BFF0126F6072946F1
:104540007140FEF73BFB094840697040A060084895
:10455000006870402061FEBDB0F5FF1F66666666AC
:104560006666304000806640FB21094094F0FF1FE2
:10457000C4FDFF1F10B5012200212C2001F05AFCC0
:104580002C2001F00BFF012211462D2001F052FCDE
:104590002D2001F003FF0948074941610849816165
:1045A000084981600849C1600849016008494160C3
:1045B0000849016110BD00002F2D0000A8FDFF1F5C
:1045C0003B2D0000472D0000532D00005F2D000003
:1045D0006D2D0000252D00007CB514460D460646C5
:1045E0006B4606223B21682000F010F800280BD112
:1045F0006946098849BA31806946498849BA29809B
:104600006946898849BA21807CBD0000F0B5454CD7
:10461000154620460F46203007C885B01E466B461B
:1046200007C3204610300FC8FFF75BFDD020039072
:104630002046203007C86B4607C3204610300FC8FD
:10464000FFF72BFD2046203007C86B4607C32046E6
:1046500010300FC8FFF767FD00280BD02046203030
:1046600007C86B4607C310340FCCFFF74BFD012082
:1046700005B0F0BD20462030039707C86B4607C33E
:10468000204610300FC8FFF708FD2046203007C82D
:104690006B4607C3204610300FC8FFF744FD204685
:1046A000203007C86B4607C3204610300FC8FFF7FD
:1046B00018FDD12003902046203007C86B4607C361
:1046C000204610300FC8FFF7E8FC2046203007C80E
:1046D0006B4607C3204610300FC8FFF724FD11E0DA
:1046E000012D1CD0012003902046203007C86B46C6
:1046F00007C3204610300FC8FFF7A0FC6D1E3070B6
:10470000EDB2761C002DEBD12046203007C86B4659
:1047100007C310340FCCFFF7F5FC0020A8E70020FA
:10472000E1E7000098FDFF1F7FB5384C05462046A5
:10473000203007C86B4607C3204610300FC8FFF76C
:10474000D0FCD02003902046203007C86B4607C31A
:10475000204610300FC8FFF7A0FC2046203007C8C5
:104760006B4607C3204610300FC8FFF7DCFC20461D
:104770002030039507C86B4607C3204610300FC88A
:10478000FFF78BFC2046203007C86B4607C3204646
:1047900010300FC8FFF7C7FC2046203007C86B4613
:1047A00007C3204610300FC8FFF79BFCD1200390B1
:1047B0002046203007C86B4607C3204610300FC87C
:1047C000FFF76BFC2046203007C86B4607C3204626
:1047D00010300FC8FFF7A7FC0020039020462030C0
:1047E00007C86B4607C3204610300FC8FFF726FCEA
:1047F00005462046203007C86B4607C310340FCC4F
:10480000FFF780FC284604B070BD000098FDFF1F34
:104810007CB514460D4606466B46062243216820A9
:10482000FFF7F4FE00280BD16946098849BA3180A8
:104830006946498849BA29806946898849BA2180E8
:104840007CBDC00610B5010E1C2000F039F810BD6B
:10485000C00610B5010E1B2000F032F810BD10B5D7
:10486000BC2801D3012110E0622801D302210CE011
:104870002A2801D3032108E0142801D3042104E0ED
:104880000A2801D3052100E006211A2000F018F8BB
:1048900010BD10B504467D20C000844201D90446F5
:1048A00002E0042C00D204242146FBF7CDFC401E7C
:1048B000C1B2192000F004F86008FFF7D0FF10BD66
:1048C0007FB5344C064620460D46203007C86B465F
:1048D00007C3204610300FC8FFF703FCD020039019
:1048E0002046203007C86B4607C3204610300FC84B
:1048F000FFF7D3FB2046203007C86B4607C320468E
:1049000010300FC8FFF70FFC00282BD120462030B5
:10491000039607C86B4607C3204610300FC8FFF741
:10492000BCFB2046203007C86B4607C3204610302A
:104930000FC8FFF7F8FB20462030039507C86B46E9
:1049400007C3204610300FC8FFF7A7FB20462030D2
:1049500007C86B4607C3204610300FC8FFF7E3FBBC
:1049600000280BD02046203007C86B4607C3103400
:104970000FCCFFF7C7FB012004B070BD20462030EC
:1049800007C86B4607C310340FCCFFF7BBFB0020F2
:10499000F2E7000098FDFF1F10B500F07DF801213F
:1049A000432001F09FFA642000F006FA0021432022
:1049B00001F098FA642000F0FFF90121432001F092
:1049C00091FA0021AE2001F0AFFC0021D52001F0CA
:1049D000ABFC0021502001F0A7FC0021A82001F031
:1049E000A3FC00213F2001F09FFC0021D32001F017
:1049F0009BFC0021084601F097FC0021402001F0BB
:104A000093FC00218D2001F08FFC0021142001F087
:104A10008BFC0021202001F087FC0021084601F0DA
:104A200083FC0021A02001F07FFC0021CF2001F0B9
:104A30007BFC0021DA2001F077FC0021122001F03C
:104A400073FC0021812001F06FFC0021EF2001F0B8
:104A50006BFC0021D92001F067FC0021F12001F05E
:104A600063FC0021DB2001F05FFC0021302001F01D
:104A70005BFC0021A42001F057FC0021A62001F0DE
:104A800053FC0021AF2001F04FFC01F0C1FA0021DE
:104A9000084600F02BF810BD10B5002201211720A8
:104AA00001F0C8F9172001F079FC00220121432010
:104AB00001F0C0F9432001F071FC00220121232004
:104AC00001F0B8F9232001F069FC00220121422005
:104AD00001F0B0F9422001F061FC00220121162012
:104AE00001F0A8F9162001F059FC10BD10B50446DC
:104AF000B031C8B2002101F017FC200900211030AC
:104B000001F012FC2007000F01210843002101F0F1
:104B10000BFC10BDFEB50027009701200197FFF7A1
:104B200009FC384E0020410100228919401C0A86E8
:104B300080B24A860228F6D344E00025002D02D038
:104B4000012D19D10AE000210E20FFF733F82D497D
:104B500020314A7B5200921910870AE000210B2075
:104B6000FFF728F8274940314A7B5200921940321A
:104B70001083487B401C487368018419204620300C
:104B8000417B0A2901D30021417320463830092294
:104B9000002101F02EFD4A20218E005B814200D2CF
:104BA0002086618E208F814200D960866D1CADB257
:104BB000022DC3D30120FFF7D1FB052000F0FCF844
:104BC0007F1CBFB210488742B7D300206B4641011B
:104BD000891942000C8E9C524031D218401C498EDB
:104BE00080B291800228F2D30120FFF78FFBFD20D5
:104BF000FDF7A8F8002308226946FD20FDF7D6F846
:104C0000FEBD000030F5FF1FB80B000010B50820F6
:104C1000FEF7BCFF0920FEF7B9FF0A20FEF7B6FF3A
:104C20000B20FEF7B3FF0E20FEF7B0FF0F20FEF7BC
:104C3000ADFF10BDF8B500240A4861010D18288E9B
:104C40006E8E801BFCF752FA0746E88D801BFCF73E
:104C50004DFA3946FCF738F9641CE4B26863022C5B
:104C6000EAD3F8BD30F5FF1F70B500241F4E25466E
:104C7000002C02D0012C08D102E000210E2001E01E
:104C800000210B20FEF796FFC5B260018019014696
:104C900020314A7B5300521CC3184A731D874A7B3C
:104CA0000A2A01D300224A7301462E310A223830E3
:104CB00000F094FCFFF7BEFF641CE4B2022CD7D3D3
:104CC000746D756B2146284601F012FD064621469B
:104CD000284601F00DFE064901F07AFD3146FCF749
:104CE000F3F802498031486570BD000030F5FF1FC0
:104CF0000000C84210B501220021372001F09AF8C7
:104D000001220021362001F095F8012200212920FE
:104D100001F090F801220021282001F08BF83720C3
:104D200001F03CFB362001F039FB292001F036FB75
:104D3000282001F033FB10BDF0B585B015460228E0
:104D400003D90020C04305B0F0BD0C4EC400325D55
:104D5000012A0FD06A461070012757700320107285
:104D600068460395019100F0A9FB3755A0194560ED
:104D70000020E8E70120C043E5E7000060FBFF1FDB
:104D800070B5062802D90020C04370BD1424094D17
:104D900060434419267B012E09D0616000266670AD
:104DA0002B5401202073A1603046226170BD012088
:104DB000C04370BDE8FAFF1F002809D0012800D1C8
:104DC0000220044948600020087008780128FCD1BE
:104DD0007047000088F0FF1FF8B50D4E0746756953
:104DE00000240D480B490068FBF72EFA7843B1699F
:104DF0000246B0698842FCD0884201D2091A01E01B
:104E00002B1A59180C1901469442F2D3F8BD000030
:104E100000E000E040420F004CF0FF1F30B50021E1
:104E2000104C0A4614234B431819426082604270AA
:104E3000E254491C0261C9B202730629F2D30A483E
:104E40000A490068401E88420BD809494861094850
:104E50000724C3691B021B0A4D042B43C3618A61EB
:104E60000C6130BDE8FAFF1F4CF0FF1FFFFFFF0091
:104E700000E000E004ED00E04168002910D0416846
:104E8000491E41600CD1012141700178012903D1F3
:104E900081684160002141700069002800D000470E
:104EA0007047000000B500F03BF805480068C17885
:104EB00020221143C1700349D001086000BD0000E9
:104EC00070FBFF1F00E100E0012801D000207047C7
:104ED0000048704770FBFF1F01680A79120701D56F
:104EE0000A79CA790A790A79120612D5828A002AC1
:104EF00010D0438A4268D25CCA71418A491C89B287
:104F000041828289914201D300214182818A491ED6
:104F100081827047C8784006400EC8707047000014
:104F20000B480A4901600B49816001462831416004
:104F3000FF210131C1818181002141830183C1822F
:104F4000818241824162C1610162704700A00640D6
:104F500070FBFF1F98FCFF1FF8B50023FFF7B4FF9D
:104F6000002820D0002517E08489878A6E46378084
:104F70003688B442F9D9CC5C078A4668F455048A6D
:104F8000641CA4B204828689B44200D30582848A58
:104F9000641C84825B1C9BB29342E5D30068C17899
:104FA00080221143C170F8BD10B5094C207801284A
:104FB0000DD00120207000F00DF800F011FA00F083
:104FC000BFF800F05FF800F08FF80020207010BDEF
:104FD00084F0FF1F10B5104C607800281AD01328F9
:104FE00014D008DC02280BD010280CD011280DD0CA
:104FF00012280DD10AE0142808D0152808D105E0A0
:1050000000F056F904E000F0D5F8102000F0C4F9E3
:105010000020607010BD0000E4F0FF1F70B588B084
:105020000E460446154620216846FBF70BF91B2D5A
:1050300002D9002008B070BDAA20694608704870E7
:105040008E70CD7000216846431908E0625C4618F6
:1050500032711A79465C9219491C1A71C9B2A94277
:10506000F4D32C462A1D05E01979065D8919641CC4
:105070001971E4B29442F7D301466A1D0120FFF78B
:105080006BFFD6E73EB50020154C164D0090019001
:1050900002902946E06801F09BFBFBF7C5FF010485
:1050A0000A0E69460A7048702946A06801F090FB14
:1050B000FBF7BAFF01040A0E69468A70C8702946D8
:1050C000206901F085FBFBF7AFFF01040A0E69467A
:1050D0000A7148710C2201216846FFF79FFF3EBD0F
:1050E000B0F5FF1F0000C84200B589B02021684616
:1050F000FBF7A8F811496A46888F031213705070A5
:10510000C88F01129170D0700C48403001880B128A
:105110001371517141880B129371D17181880B12F7
:1051200013725172C08801129172D0721222022140
:105130006846FFF773FF09B000BD000070F5FF1F60
:105140001FB500201A4900900190029003908A8DAB
:105150006B4614121C705A70CA8D14129C70DA704F
:10516000187158710A8E140A9C71DA71187258728B
:10517000488E010A9972D8720D484038406FFBF78B
:1051800053FF6421484301126B4619735873084852
:105190004038806FFBF748FF6421484301126B469B
:1051A0009973D8731022F1216846FFF737FF1FBDAE
:1051B00070F5FF1FF8B5394C60792179000208437A
:1051C00040BA00B2FBF792FF3549FBF77DFE354D43
:1051D0002860E079A1790002084340BA00B2FBF7E9
:1051E00085FF314E3146FBF76FFE6860607A217AA9
:1051F0000002084340BA00B2FBF778FF2B4F394654
:10520000FBF762FEA860E07AA17A0002084340BA88
:1052100000B2FBF76BFF3146FBF756FEE860607BA0
:10522000217B0002084340BA00B2FBF75FFF39461A
:10523000FBF74AFE2861E07BA17B0002084340BAED
:1052400000B2FBF753FF3946FBF73EFE6861607C16
:10525000217C0002084340BA00B2FBF747FF104927
:10526000FBF732FEA861E07CA17C0002084340BA53
:1052700000B2FBF73BFF3146FBF726FEE861607D9D
:10528000217D0002084340BA00B2FBF72FFF04491A
:10529000FBF71AFE286201F073F8F8BDC0FEFF1F8D
:1052A0000000204130F5FF1F0000C84200007A4492
:1052B000F0B585B014216846FAF7C4FF324C334D7F
:1052C0002068294601F084FAFBF7AEFE0212694617
:1052D0000A7048702E4E6068314601F079FAFBF78B
:1052E000A3FE021269468A70C8702A4FA068394628
:1052F00001F06EFAFBF798FE021269460A714871D6
:105300003146E06801F064FAFBF78EFE021269464E
:105310008A71C8713146206901F05AFAFBF784FEA0
:10532000021269460A7248723946606901F050FA01
:10533000FBF77AFE021269468A72C8722946A06992
:1053400001F046FAFBF770FE021269460A734873D1
:105350003946E06901F03CFAFBF766FE0212694645
:105360008A73C8732946206A01F032FAFBF75CFEA3
:10537000021269460A744874122210216846FFF727
:105380004DFE05B0F0BD000030F5FF1F00002041CC
:105390000000C84200007A441CB500210091019130
:1053A000AA216A4611705170EF2191700721D170C6
:1053B00010710A48C178001D085C507100206946D0
:1053C0000B5C8A79401CD218C0B28A710728F7D3C7
:1053D00007220120FFF7C0FD1CBD0000C0FEFF1F1B
:1053E00010B586B014216846FAF72CFF12486946BA
:1053F000C08D114C020A0A7048700F48803440304A
:10540000C089020A8A70C870606DFBF70DFE010446
:105410000A0E69460A714871A06DFBF705FE01048A
:105420000A0E69468A71C8710822F2216846FFF7A0
:10543000F5FD06B010BD000030F5FF1F10B5FDF7FB
:105440009DFCFDF723FEFDF7BFFD10BD10B5FEF777
:1054500027FF194C0028607007D02078002804D15D
:10546000022000F0B5FF0020607020780300FEF7F6
:10547000FDFA0A09200C060F1215181B1E20FDF755
:1054800047FE16E000F09AFD13E0FDF7A7FC10E0E0
:10549000FEF71CF90DE0FEF749F80AE0FCF734FBD3
:1054A00007E0FCF76DFA04E0FCF700F901E0FEF715
:1054B00033FAFDF77DFA10BDC4F3FF1F70B526491E
:1054C0004A6902231A434A6124490A689A430A60D6
:1054D0002349426809684A4301780C01214964184C
:1054E0002260027812015218D56801242543D56044
:1054F0000278120152189568A5439560027812014E
:10550000521895689D43956002781201521895686B
:10551000254395604278012A16D10278120151186C
:105520008A681A438A6002780F4B9200C1689950CA
:1055300001780E4A002908D0012905D1C90511605A
:10554000017A1720FDF71EFD70BD0121890511604C
:10555000017A1620F6E70000008004400070034046
:1055600050F0FF1F007103407CF0FF1F00E100E0DE
:1055700010B5074C0548606021465831A068886125
:10558000002000F025FF0120207010BD3001002018
:10559000C8F3FF1F10B5002101600D4C0B4B7F229B
:1055A0000461D2050365C260416014300EC0016021
:1055B000816042600261C160064A81614261C161ED
:1055C000054901623F210906416210BD0AD7A33B8C
:1055D0000AD7A3BB6F12833AA69B443B70B50C4617
:1055E00003460021084604E04D005D5B2818491C75
:1055F00089B29142F8D31146FAF726FE208070BD99
:105600000021024A8000105841607047D8690000AC
:10561000024980000858406880B27047D86900008D
:1056200010B5044600F010F8064AA00011580B68A7
:105630000B600B68182423430B6010580021416055
:1056400010BD0000D869000010B51D4C002815D011
:10565000012823D0022810D16069802108436061AD
:10566000E068032109078843E06016490020C8600C
:10567000052000F093FEE068E06010BD6069202125
:1056800008436061E068032109068843E060202048
:1056900000F084FEE068012109060EE06069402107
:1056A00008436061E068032189068843E0602720A1
:1056B00000F074FEE0680121C9060843DCE7000041
:1056C0000080044040A0034070B50D460C490D4BCE
:1056D000040004D0012C04D0022C08D10EE008886C
:1056E00000E048881946401C5043FAF7ADFD064AD1
:1056F000A1005258E9001031505070BD8888F1E780
:1057000066F0FF1FE8030000D8690000FFB581B014
:105710001F460646029900F053F82648039905688B
:105720007D20C0004543280CFAF78EFD002401E0DF
:10573000641CE4B20146E140FAD1072C37D8284670
:10574000E0400399FAF780FD85B21B4970000D52C5
:105750007D21C900002E03D0012E01D0022E04D1DC
:10576000681C7843FAF770FD87B2144AB0001158EC
:105770008D6002991358C9008E460C315D589C46C5
:1057800004239D4363465D50155828236B506107E1
:10579000490F1358083119600023022E01D1916876
:1057A000CB6414587146103167501058436005B0EF
:1057B000F0BD000048F0FF1F66F0FF1FD869000031
:1057C00030B5FF24013465002B4A00280ED0012893
:1057D0001BD0022815D153698020034353610B006D
:1057E000FEF744F906242B343B43460F506920232F
:1057F00018435061002905D0012902D1D068A8437F
:10580000D06030BDD068A043FAE750694023184308
:105810005061002905D00129F3D1D068C90288431D
:10582000EEE7D068012189020843E9E710698008A2
:10583000800010611069012105E010690C21884386
:105840001061106904210843106130BD10693021D6
:105850008843106110691021F5E71169C02399434D
:10586000116111690143116130BD10692043EBE7FB
:1058700010692843E8E7000000800440F7B58C4633
:1058800000218AB0044600910191C94E079103910D
:105890000491059108460D460691C54F8200543F7C
:1058A00000233946BB501C318B501C31401C8B509F
:1058B000C0B2B3500728F0D3A1680027604600F0BB
:1058C00087FF0090E1680C9800F082FF0190384655
:1058D0000C214843B7494218936809585268009808
:1058E00000F08EF9B249BA00543988504000000ED9
:1058F00005D0AF48A9001C386D1C4750EDB27F1C85
:10590000FFB2072FE3D300273D4628460C2148432A
:10591000A8494218936809585268019800F070F934
:10592000A349AA00383988504000000E03D0B800BF
:105930007F1C3550FFB26D1CEDB2072DE5D300275B
:105940000025B80001909A4801991C3846581C203F
:105950009949704341189648AA00805880000290E7
:105960000858FBF7C3FB0090914902983839095851
:10597000B0008F4E543E305800F02AFF0990009935
:1059800000F026FF039900F0B3FE039007990998F1
:1059900000F0AEFE6D1CEDB20790072DD3D37F1C37
:1059A000FFB2072FCCD34000844D000E03D00799DF
:1059B0000398FBF789FA0490E069049900F008FF66
:1059C0000490216900F05CFF206906D368400499C7
:1059D00000F056FF02D2206968400490A06A049942
:1059E00000F086FEA0627549606B4840A16A00F035
:1059F00047FF03D27148616B4140A162616BA06AAD
:105A000000F03EFF01D2606BA06200270025B800C5
:105A10000190674801991C38465867491C2070431B
:105A2000C43141186248AA0080588000029008588A
:105A3000FBF75CFB00905E49029838390958B000CA
:105A40005B4E543E305800F0C3FE0690009900F0C3
:105A5000BFFE039900F04CFE03900799069800F0F2
:105A600047FE6D1CEDB20790072DD2D37F1CFFB20D
:105A7000072FCBD34000000E03D007990398FBF704
:105A800023FA0590206A059900F0A2FE059061694D
:105A900000F0F6FE606907D3484D0599684000F0B4
:105AA000EFFE02D2606968400590E06A059900F057
:105AB0001FFEE0624149A06B4840E16A00F0E0FE51
:105AC00003D23E49A06B4840E062A16BE06A00F05F
:105AD000D7FE01D2A06BE06200200790074603903A
